{
  "contractName": "ChiToken",
  "abi": [
    {
      "anonymous": false,
      "inputs": [
        {
          "indexed": true,
          "internalType": "address",
          "name": "owner",
          "type": "address"
        },
        {
          "indexed": true,
          "internalType": "address",
          "name": "spender",
          "type": "address"
        },
        {
          "indexed": false,
          "internalType": "uint256",
          "name": "value",
          "type": "uint256"
        }
      ],
      "name": "Approval",
      "type": "event"
    },
    {
      "anonymous": false,
      "inputs": [
        {
          "indexed": true,
          "internalType": "address",
          "name": "from",
          "type": "address"
        },
        {
          "indexed": true,
          "internalType": "address",
          "name": "to",
          "type": "address"
        },
        {
          "indexed": false,
          "internalType": "uint256",
          "name": "value",
          "type": "uint256"
        }
      ],
      "name": "Transfer",
      "type": "event"
    },
    {
      "inputs": [
        {
          "internalType": "address",
          "name": "owner",
          "type": "address"
        },
        {
          "internalType": "address",
          "name": "spender",
          "type": "address"
        }
      ],
      "name": "allowance",
      "outputs": [
        {
          "internalType": "uint256",
          "name": "",
          "type": "uint256"
        }
      ],
      "stateMutability": "view",
      "type": "function"
    },
    {
      "inputs": [
        {
          "internalType": "address",
          "name": "spender",
          "type": "address"
        },
        {
          "internalType": "uint256",
          "name": "amount",
          "type": "uint256"
        }
      ],
      "name": "approve",
      "outputs": [
        {
          "internalType": "bool",
          "name": "",
          "type": "bool"
        }
      ],
      "stateMutability": "nonpayable",
      "type": "function"
    },
    {
      "inputs": [
        {
          "internalType": "address",
          "name": "account",
          "type": "address"
        }
      ],
      "name": "balanceOf",
      "outputs": [
        {
          "internalType": "uint256",
          "name": "",
          "type": "uint256"
        }
      ],
      "stateMutability": "view",
      "type": "function"
    },
    {
      "inputs": [],
      "name": "decimals",
      "outputs": [
        {
          "internalType": "uint8",
          "name": "",
          "type": "uint8"
        }
      ],
      "stateMutability": "view",
      "type": "function"
    },
    {
      "inputs": [],
      "name": "name",
      "outputs": [
        {
          "internalType": "string",
          "name": "",
          "type": "string"
        }
      ],
      "stateMutability": "view",
      "type": "function"
    },
    {
      "inputs": [],
      "name": "symbol",
      "outputs": [
        {
          "internalType": "string",
          "name": "",
          "type": "string"
        }
      ],
      "stateMutability": "view",
      "type": "function"
    },
    {
      "inputs": [],
      "name": "totalBurned",
      "outputs": [
        {
          "internalType": "uint256",
          "name": "",
          "type": "uint256"
        }
      ],
      "stateMutability": "view",
      "type": "function"
    },
    {
      "inputs": [],
      "name": "totalMinted",
      "outputs": [
        {
          "internalType": "uint256",
          "name": "",
          "type": "uint256"
        }
      ],
      "stateMutability": "view",
      "type": "function"
    },
    {
      "inputs": [
        {
          "internalType": "address",
          "name": "recipient",
          "type": "address"
        },
        {
          "internalType": "uint256",
          "name": "amount",
          "type": "uint256"
        }
      ],
      "name": "transfer",
      "outputs": [
        {
          "internalType": "bool",
          "name": "",
          "type": "bool"
        }
      ],
      "stateMutability": "nonpayable",
      "type": "function"
    },
    {
      "inputs": [
        {
          "internalType": "address",
          "name": "sender",
          "type": "address"
        },
        {
          "internalType": "address",
          "name": "recipient",
          "type": "address"
        },
        {
          "internalType": "uint256",
          "name": "amount",
          "type": "uint256"
        }
      ],
      "name": "transferFrom",
      "outputs": [
        {
          "internalType": "bool",
          "name": "",
          "type": "bool"
        }
      ],
      "stateMutability": "nonpayable",
      "type": "function"
    },
    {
      "inputs": [],
      "name": "totalSupply",
      "outputs": [
        {
          "internalType": "uint256",
          "name": "",
          "type": "uint256"
        }
      ],
      "stateMutability": "view",
      "type": "function"
    },
    {
      "inputs": [
        {
          "internalType": "uint256",
          "name": "value",
          "type": "uint256"
        }
      ],
      "name": "mint",
      "outputs": [],
      "stateMutability": "nonpayable",
      "type": "function"
    },
    {
      "inputs": [
        {
          "internalType": "uint256",
          "name": "salt",
          "type": "uint256"
        }
      ],
      "name": "computeAddress2",
      "outputs": [
        {
          "internalType": "address",
          "name": "child",
          "type": "address"
        }
      ],
      "stateMutability": "pure",
      "type": "function"
    },
    {
      "inputs": [
        {
          "internalType": "uint256",
          "name": "value",
          "type": "uint256"
        }
      ],
      "name": "free",
      "outputs": [
        {
          "internalType": "uint256",
          "name": "",
          "type": "uint256"
        }
      ],
      "stateMutability": "nonpayable",
      "type": "function"
    },
    {
      "inputs": [
        {
          "internalType": "uint256",
          "name": "value",
          "type": "uint256"
        }
      ],
      "name": "freeUpTo",
      "outputs": [
        {
          "internalType": "uint256",
          "name": "",
          "type": "uint256"
        }
      ],
      "stateMutability": "nonpayable",
      "type": "function"
    },
    {
      "inputs": [
        {
          "internalType": "address",
          "name": "from",
          "type": "address"
        },
        {
          "internalType": "uint256",
          "name": "value",
          "type": "uint256"
        }
      ],
      "name": "freeFrom",
      "outputs": [
        {
          "internalType": "uint256",
          "name": "",
          "type": "uint256"
        }
      ],
      "stateMutability": "nonpayable",
      "type": "function"
    },
    {
      "inputs": [
        {
          "internalType": "address",
          "name": "from",
          "type": "address"
        },
        {
          "internalType": "uint256",
          "name": "value",
          "type": "uint256"
        }
      ],
      "name": "freeFromUpTo",
      "outputs": [
        {
          "internalType": "uint256",
          "name": "",
          "type": "uint256"
        }
      ],
      "stateMutability": "nonpayable",
      "type": "function"
    }
  ],
  "bytecode": "0x608060405234801561001057600080fd5b50610cca806100206000396000f3fe608060405234801561001057600080fd5b506004361061011b5760003560e01c806370a08231116100b2578063a9059cbb11610081578063d89135cd11610066578063d89135cd14610331578063d8ccd0f31461033a578063dd62ed3e1461034d57600080fd5b8063a9059cbb14610294578063b0ac19a0146102a757600080fd5b806370a082311461021157806395d89b411461023a578063a0712d6814610276578063a2309ff81461028b57600080fd5b806323b872dd116100ee57806323b872dd146101be578063313ce567146101d15780635f2e2b45146101eb5780636366b936146101fe57600080fd5b806306fdde0314610120578063079d229f14610172578063095ea7b31461019357806318160ddd146101b6575b600080fd5b61015c6040518060400160405280601281526020017f43686920546f6b656e2062792031696e6368000000000000000000000000000081525081565b6040516101699190610b31565b60405180910390f35b610185610180366004610af0565b610386565b604051908152602001610169565b6101a66101a1366004610af0565b6103e7565b6040519015158152602001610169565b6101856103fd565b6101a66101cc366004610ab5565b610414565b6101d9600081565b60405160ff9091168152602001610169565b6101856101f9366004610af0565b610488565b61018561020c366004610b19565b6104a9565b61018561021f366004610a69565b6001600160a01b031660009081526020819052604090205490565b61015c6040518060400160405280600381526020017f434849000000000000000000000000000000000000000000000000000000000081525081565b610289610284366004610b19565b6104ce565b005b61018560025481565b6101a66102a2366004610af0565b6106a2565b6103196102b5366004610b19565b6040517fff0000000000004946c0e9f43f4dee607b0ef1fa1c0000000000000000000000815260158101919091527f3c1644c68e5d6cb380c36d1bf847fdbc0c7ac28030025a2fc5e63cce23c163486035820152605590206001600160a01b031690565b6040516001600160a01b039091168152602001610169565b61018560035481565b610185610348366004610b19565b6106af565b61018561035b366004610a83565b6001600160a01b03918216600090815260016020908152604080832093909416825291909152205490565b60006103e0836101f96103b7856103b2886001600160a01b031660009081526020819052604090205490565b6106ce565b6001600160a01b03871660009081526001602090815260408083203384529091529020546106ce565b9392505050565b60006103f43384846106e4565b50600192915050565b600060035460025461040f9190610bba565b905090565b6000610421848484610746565b6001600160a01b038416600090815260016020908152604080832033845290915290205460ff81901c61047d5761047d853361047886604051806060016040528060288152602001610c4960289139869190610803565b6106e4565b506001949350505050565b600081156104a35761049a8383610852565b6104a3826108b8565b50919050565b336000908152602081905260408120546104c8906103489084906106ce565b92915050565b6002547f746d4946c0e9f43f4dee607b0ef1fa1c3318585733ff6000526015600bf30000600052602082045b801561066d5781601e600080f55060018201601e600080f55060028201601e600080f55060038201601e600080f55060048201601e600080f55060058201601e600080f55060068201601e600080f55060078201601e600080f55060088201601e600080f55060098201601e600080f550600a8201601e600080f550600b8201601e600080f550600c8201601e600080f550600d8201601e600080f550600e8201601e600080f550600f8201601e600080f55060108201601e600080f55060118201601e600080f55060128201601e600080f55060138201601e600080f55060148201601e600080f55060158201601e600080f55060168201601e600080f55060178201601e600080f55060188201601e600080f55060198201601e600080f550601a8201601e600080f550601b8201601e600080f550601c8201601e600080f550601d8201601e600080f550601e8201601e600080f550601f8201601e600080f55060209190910190600019016104fa565b50601f82165b80156106915781601e600080f5506001919091019060001901610673565b5061069c338361093f565b60025550565b60006103f4338484610746565b600081156106ca576106c133836109b8565b6106ca826108b8565b5090565b60008183106106dd57816103e0565b5090919050565b6001600160a01b0383811660008181526001602090815260408083209487168084529482529182902085905590518481527f8c5be1e5ebec7d5bd14f71427d1e84f3dd0314c0f7b2291e5b200ac8c7c3b92591015b60405180910390a3505050565b61078381604051806060016040528060268152602001610c23602691396001600160a01b0386166000908152602081905260409020549190610803565b6001600160a01b0380851660009081526020819052604080822093909355908416815220546107b29082610a41565b6001600160a01b038381166000818152602081815260409182902094909455518481529092918616917fddf252ad1be2c89b69c2b068fc378daa952ba7f163c4a11628f55a4df523b3ef9101610739565b6000818484111561084a576040517f08c379a00000000000000000000000000000000000000000000000000000000081526004016108419190610b31565b60405180910390fd5b505050900390565b61085c82826109b8565b6001600160a01b038216600090815260016020908152604080832033845290915290205460ff81901c6108b3576108b3833361047885604051806060016040528060248152602001610c7160249139869190610803565b505050565b600354818101806003556040517fff0000000000004946c0e9f43f4dee607b0ef1fa1c000000000000000000000081527f3c1644c68e5d6cb380c36d1bf847fdbc0c7ac28030025a2fc5e63cce23c163486035820152601581015b82841015610938578381526000806000806000605587205af150600184019350610913565b5050505050565b6001600160a01b0382166000908152602081905260409020546109629082610a41565b6001600160a01b038316600081815260208181526040808320949094559251848152919290917fddf252ad1be2c89b69c2b068fc378daa952ba7f163c4a11628f55a4df523b3ef91015b60405180910390a35050565b6109f581604051806060016040528060228152602001610c01602291396001600160a01b0385166000908152602081905260409020549190610803565b6001600160a01b03831660008181526020818152604080832094909455925184815290927fddf252ad1be2c89b69c2b068fc378daa952ba7f163c4a11628f55a4df523b3ef91016109ac565b60006103e08284610ba2565b80356001600160a01b0381168114610a6457600080fd5b919050565b600060208284031215610a7a578081fd5b6103e082610a4d565b60008060408385031215610a95578081fd5b610a9e83610a4d565b9150610aac60208401610a4d565b90509250929050565b600080600060608486031215610ac9578081fd5b610ad284610a4d565b9250610ae060208501610a4d565b9150604084013590509250925092565b60008060408385031215610b02578182fd5b610b0b83610a4d565b946020939093013593505050565b600060208284031215610b2a578081fd5b5035919050565b6000602080835283518082850152825b81811015610b5d57858101830151858201604001528201610b41565b81811115610b6e5783604083870101525b50601f017fffffffffffffffffffffffffffffffffffffffffffffffffffffffffffffffe016929092016040019392505050565b60008219821115610bb557610bb5610bd1565b500190565b600082821015610bcc57610bcc610bd1565b500390565b7f4e487b7100000000000000000000000000000000000000000000000000000000600052601160045260246000fdfe45524332303a206275726e20616d6f756e7420657863656564732062616c616e636545524332303a207472616e7366657220616d6f756e7420657863656564732062616c616e636545524332303a207472616e7366657220616d6f756e74206578636565647320616c6c6f77616e636545524332303a206275726e20616d6f756e74206578636565647320616c6c6f77616e6365a2646970667358221220c3399b8711459e7a1de37ac0ed922f7c62376ecd005efdfcb937c38d7ebbb06064736f6c63430008040033",
  "immutableReferences": {},
  "source": "// SPDX-License-Identifier: MIT\r\npragma solidity ^0.8.0;\r\n\r\nimport \"../../ERC20WithoutTotalSupply.sol\";\r\n\r\ncontract ChiToken is IERC20, ERC20WithoutTotalSupply {\r\n    string constant public name = \"Chi Token by 1inch\";\r\n    string constant public symbol = \"CHI\";\r\n    uint8 constant public decimals = 0;\r\n\r\n    uint256 public totalMinted;\r\n    uint256 public totalBurned;\r\n\r\n    function totalSupply() public view override returns(uint256) {\r\n        return totalMinted - totalBurned;\r\n    }\r\n\r\n    function mint(uint256 value) public {\r\n        uint256 offset = totalMinted;\r\n        assembly {\r\n            mstore(0, 0x746d4946c0e9F43F4Dee607b0eF1fA1c3318585733ff6000526015600bf30000)\r\n\r\n            for {let i := div(value, 32)} i {i := sub(i, 1)} {\r\n                pop(create2(0, 0, 30, add(offset, 0))) pop(create2(0, 0, 30, add(offset, 1)))\r\n                pop(create2(0, 0, 30, add(offset, 2))) pop(create2(0, 0, 30, add(offset, 3)))\r\n                pop(create2(0, 0, 30, add(offset, 4))) pop(create2(0, 0, 30, add(offset, 5)))\r\n                pop(create2(0, 0, 30, add(offset, 6))) pop(create2(0, 0, 30, add(offset, 7)))\r\n                pop(create2(0, 0, 30, add(offset, 8))) pop(create2(0, 0, 30, add(offset, 9)))\r\n                pop(create2(0, 0, 30, add(offset, 10))) pop(create2(0, 0, 30, add(offset, 11)))\r\n                pop(create2(0, 0, 30, add(offset, 12))) pop(create2(0, 0, 30, add(offset, 13)))\r\n                pop(create2(0, 0, 30, add(offset, 14))) pop(create2(0, 0, 30, add(offset, 15)))\r\n                pop(create2(0, 0, 30, add(offset, 16))) pop(create2(0, 0, 30, add(offset, 17)))\r\n                pop(create2(0, 0, 30, add(offset, 18))) pop(create2(0, 0, 30, add(offset, 19)))\r\n                pop(create2(0, 0, 30, add(offset, 20))) pop(create2(0, 0, 30, add(offset, 21)))\r\n                pop(create2(0, 0, 30, add(offset, 22))) pop(create2(0, 0, 30, add(offset, 23)))\r\n                pop(create2(0, 0, 30, add(offset, 24))) pop(create2(0, 0, 30, add(offset, 25)))\r\n                pop(create2(0, 0, 30, add(offset, 26))) pop(create2(0, 0, 30, add(offset, 27)))\r\n                pop(create2(0, 0, 30, add(offset, 28))) pop(create2(0, 0, 30, add(offset, 29)))\r\n                pop(create2(0, 0, 30, add(offset, 30))) pop(create2(0, 0, 30, add(offset, 31)))\r\n                offset := add(offset, 32)\r\n            }\r\n\r\n            for {let i := and(value, 0x1F)} i {i := sub(i, 1)} {\r\n                pop(create2(0, 0, 30, offset))\r\n                offset := add(offset, 1)\r\n            }\r\n        }\r\n\r\n        _mint(msg.sender, value);\r\n        totalMinted = offset;\r\n    }\r\n\r\n    function computeAddress2(uint256 salt) public pure returns (address child) {\r\n        assembly {\r\n            let data := mload(0x40)\r\n            mstore(data, 0xff0000000000004946c0e9F43F4Dee607b0eF1fA1c0000000000000000000000)\r\n            mstore(add(data, 21), salt)\r\n            mstore(add(data, 53), 0x3c1644c68e5d6cb380c36d1bf847fdbc0c7ac28030025a2fc5e63cce23c16348)\r\n            child := and(keccak256(data, 85), 0xFFFFFFFFFFFFFFFFFFFFFFFFFFFFFFFFFFFFFFFF)\r\n        }\r\n    }\r\n\r\n    function _destroyChildren(uint256 value) internal {\r\n        assembly {\r\n            let i := sload(totalBurned.slot)\r\n            let end := add(i, value)\r\n            sstore(totalBurned.slot, end)\r\n\r\n            let data := mload(0x40)\r\n            mstore(data, 0xff0000000000004946c0e9F43F4Dee607b0eF1fA1c0000000000000000000000)\r\n            mstore(add(data, 53), 0x3c1644c68e5d6cb380c36d1bf847fdbc0c7ac28030025a2fc5e63cce23c16348)\r\n            let ptr := add(data, 21)\r\n            for { } lt(i, end) { i := add(i, 1) } {\r\n                mstore(ptr, i)\r\n                pop(call(gas(), keccak256(data, 85), 0, 0, 0, 0, 0))\r\n            }\r\n        }\r\n    }\r\n\r\n    function free(uint256 value) public returns (uint256)  {\r\n        if (value > 0) {\r\n            _burn(msg.sender, value);\r\n            _destroyChildren(value);\r\n        }\r\n        return value;\r\n    }\r\n\r\n    function freeUpTo(uint256 value) public returns (uint256) {\r\n        return free(Math.min(value, balanceOf(msg.sender)));\r\n    }\r\n\r\n    function freeFrom(address from, uint256 value) public returns (uint256) {\r\n        if (value > 0) {\r\n            _burnFrom(from, value);\r\n            _destroyChildren(value);\r\n        }\r\n        return value;\r\n    }\r\n\r\n    function freeFromUpTo(address from, uint256 value) public returns (uint256) {\r\n        return freeFrom(from, Math.min(Math.min(value, balanceOf(from)), allowance(from, msg.sender)));\r\n    }\r\n}\r\n",
  "sourcePath": "C:/Users/khera/Documents/GitHub/GasSwapTokens/contracts/existing_gas_tokens/Chi/ChiToken.sol",
  "compiler": {
    "name": "solc",
    "version": "0.8.4+commit.c7e474f2.Emscripten.clang"
  },
  "schemaVersion": "3.3.4",
  "updatedAt": "2021-05-14T16:51:06.598Z",
  "devdoc": {
    "kind": "dev",
    "methods": {
      "allowance(address,address)": {
        "details": "Returns the remaining number of tokens that `spender` will be allowed to spend on behalf of `owner` through {transferFrom}. This is zero by default. This value changes when {approve} or {transferFrom} are called."
      },
      "approve(address,uint256)": {
        "details": "Sets `amount` as the allowance of `spender` over the caller's tokens. Returns a boolean value indicating whether the operation succeeded. IMPORTANT: Beware that changing an allowance with this method brings the risk that someone may use both the old and the new allowance by unfortunate transaction ordering. One possible solution to mitigate this race condition is to first reduce the spender's allowance to 0 and set the desired value afterwards: https://github.com/ethereum/EIPs/issues/20#issuecomment-263524729 Emits an {Approval} event."
      },
      "balanceOf(address)": {
        "details": "Returns the amount of tokens owned by `account`."
      },
      "totalSupply()": {
        "details": "Returns the amount of tokens in existence."
      },
      "transfer(address,uint256)": {
        "details": "Moves `amount` tokens from the caller's account to `recipient`. Returns a boolean value indicating whether the operation succeeded. Emits a {Transfer} event."
      },
      "transferFrom(address,address,uint256)": {
        "details": "Moves `amount` tokens from `sender` to `recipient` using the allowance mechanism. `amount` is then deducted from the caller's allowance. Returns a boolean value indicating whether the operation succeeded. Emits a {Transfer} event."
      }
    },
    "version": 1
  },
  "userdoc": {
    "kind": "user",
    "methods": {},
    "version": 1
  }
}