{
  "contractName": "GasToken2",
  "abi": [
    {
      "anonymous": false,
      "inputs": [
        {
          "indexed": true,
          "internalType": "address",
          "name": "owner",
          "type": "address"
        },
        {
          "indexed": true,
          "internalType": "address",
          "name": "spender",
          "type": "address"
        },
        {
          "indexed": false,
          "internalType": "uint256",
          "name": "value",
          "type": "uint256"
        }
      ],
      "name": "Approval",
      "type": "event"
    },
    {
      "anonymous": false,
      "inputs": [
        {
          "indexed": true,
          "internalType": "address",
          "name": "from",
          "type": "address"
        },
        {
          "indexed": true,
          "internalType": "address",
          "name": "to",
          "type": "address"
        },
        {
          "indexed": false,
          "internalType": "uint256",
          "name": "value",
          "type": "uint256"
        }
      ],
      "name": "Transfer",
      "type": "event"
    },
    {
      "inputs": [],
      "name": "decimals",
      "outputs": [
        {
          "internalType": "uint8",
          "name": "",
          "type": "uint8"
        }
      ],
      "stateMutability": "view",
      "type": "function"
    },
    {
      "inputs": [],
      "name": "name",
      "outputs": [
        {
          "internalType": "string",
          "name": "",
          "type": "string"
        }
      ],
      "stateMutability": "view",
      "type": "function"
    },
    {
      "inputs": [],
      "name": "symbol",
      "outputs": [
        {
          "internalType": "string",
          "name": "",
          "type": "string"
        }
      ],
      "stateMutability": "view",
      "type": "function"
    },
    {
      "inputs": [
        {
          "internalType": "address",
          "name": "owner",
          "type": "address"
        }
      ],
      "name": "balanceOf",
      "outputs": [
        {
          "internalType": "uint256",
          "name": "balance",
          "type": "uint256"
        }
      ],
      "stateMutability": "nonpayable",
      "type": "function"
    },
    {
      "inputs": [
        {
          "internalType": "address",
          "name": "to",
          "type": "address"
        },
        {
          "internalType": "uint256",
          "name": "value",
          "type": "uint256"
        }
      ],
      "name": "transfer",
      "outputs": [
        {
          "internalType": "bool",
          "name": "success",
          "type": "bool"
        }
      ],
      "stateMutability": "nonpayable",
      "type": "function"
    },
    {
      "inputs": [
        {
          "internalType": "address",
          "name": "from",
          "type": "address"
        },
        {
          "internalType": "address",
          "name": "to",
          "type": "address"
        },
        {
          "internalType": "uint256",
          "name": "value",
          "type": "uint256"
        }
      ],
      "name": "transferFrom",
      "outputs": [
        {
          "internalType": "bool",
          "name": "success",
          "type": "bool"
        }
      ],
      "stateMutability": "nonpayable",
      "type": "function"
    },
    {
      "inputs": [
        {
          "internalType": "address",
          "name": "spender",
          "type": "address"
        },
        {
          "internalType": "uint256",
          "name": "value",
          "type": "uint256"
        }
      ],
      "name": "approve",
      "outputs": [
        {
          "internalType": "bool",
          "name": "success",
          "type": "bool"
        }
      ],
      "stateMutability": "nonpayable",
      "type": "function"
    },
    {
      "inputs": [
        {
          "internalType": "address",
          "name": "owner",
          "type": "address"
        },
        {
          "internalType": "address",
          "name": "spender",
          "type": "address"
        }
      ],
      "name": "allowance",
      "outputs": [
        {
          "internalType": "uint256",
          "name": "remaining",
          "type": "uint256"
        }
      ],
      "stateMutability": "nonpayable",
      "type": "function"
    },
    {
      "inputs": [],
      "name": "totalSupply",
      "outputs": [
        {
          "internalType": "uint256",
          "name": "supply",
          "type": "uint256"
        }
      ],
      "stateMutability": "nonpayable",
      "type": "function"
    },
    {
      "inputs": [
        {
          "internalType": "uint256",
          "name": "value",
          "type": "uint256"
        }
      ],
      "name": "mint",
      "outputs": [],
      "stateMutability": "nonpayable",
      "type": "function"
    },
    {
      "inputs": [
        {
          "internalType": "uint256",
          "name": "salt",
          "type": "uint256"
        }
      ],
      "name": "computeAddress2",
      "outputs": [
        {
          "internalType": "address",
          "name": "child",
          "type": "address"
        }
      ],
      "stateMutability": "pure",
      "type": "function"
    },
    {
      "inputs": [
        {
          "internalType": "uint256",
          "name": "value",
          "type": "uint256"
        }
      ],
      "name": "free",
      "outputs": [
        {
          "internalType": "bool",
          "name": "success",
          "type": "bool"
        }
      ],
      "stateMutability": "nonpayable",
      "type": "function"
    },
    {
      "inputs": [
        {
          "internalType": "uint256",
          "name": "value",
          "type": "uint256"
        }
      ],
      "name": "freeUpTo",
      "outputs": [
        {
          "internalType": "uint256",
          "name": "freed",
          "type": "uint256"
        }
      ],
      "stateMutability": "nonpayable",
      "type": "function"
    },
    {
      "inputs": [
        {
          "internalType": "address",
          "name": "from",
          "type": "address"
        },
        {
          "internalType": "uint256",
          "name": "value",
          "type": "uint256"
        }
      ],
      "name": "freeFrom",
      "outputs": [
        {
          "internalType": "bool",
          "name": "success",
          "type": "bool"
        }
      ],
      "stateMutability": "nonpayable",
      "type": "function"
    },
    {
      "inputs": [
        {
          "internalType": "address",
          "name": "from",
          "type": "address"
        },
        {
          "internalType": "uint256",
          "name": "value",
          "type": "uint256"
        }
      ],
      "name": "freeFromUpTo",
      "outputs": [
        {
          "internalType": "uint256",
          "name": "freed",
          "type": "uint256"
        }
      ],
      "stateMutability": "nonpayable",
      "type": "function"
    }
  ],
  "bytecode": "0x608060405234801561001057600080fd5b50610a90806100206000396000f3fe608060405234801561001057600080fd5b50600436106100f55760003560e01c80636366b93611610097578063a9059cbb11610066578063a9059cbb1461023a578063b0ac19a01461024d578063d8ccd0f3146102d7578063dd62ed3e146102ea57600080fd5b80636366b936146101c657806370a08231146101d957806395d89b4114610202578063a0712d681461022557600080fd5b806318160ddd116100d357806318160ddd1461017e57806323b872dd14610186578063313ce567146101995780635f2e2b45146101b357600080fd5b806306fdde03146100fa578063079d229f1461013a578063095ea7b31461015b575b600080fd5b6101246040518060400160405280600b81526020016a476173746f6b656e2e696f60a81b81525081565b60405161013191906109a7565b60405180910390f35b61014d610148366004610966565b610323565b604051908152602001610131565b61016e610169366004610966565b6103de565b6040519015158152602001610131565b61014d610489565b61016e61019436600461092b565b6104a0565b6101a1600281565b60405160ff9091168152602001610131565b61016e6101c1366004610966565b610532565b61014d6101d436600461098f565b6105fd565b61014d6101e73660046108df565b6001600160a01b031660009081526020819052604090205490565b6101246040518060400160405280600481526020016323a9aa1960e11b81525081565b61023861023336600461098f565b610643565b005b61016e610248366004610966565b6106a8565b6102bf61025b36600461098f565b6040517fff0000000000004946c0e9f43f4dee607b0ef1fa1c0000000000000000000000815260158101919091527f3c1644c68e5d6cb380c36d1bf847fdbc0c7ac28030025a2fc5e63cce23c163486035820152605590206001600160a01b031690565b6040516001600160a01b039091168152602001610131565b61016e6102e536600461098f565b6106be565b61014d6102f83660046108f9565b6001600160a01b03918216600090815260016020908152604080832093909416825291909152205490565b6001600160a01b03821660009081526020819052604081205433908084111561034a578093505b6001600160a01b0380861660009081526001602090815260408083209386168352908390529020548086111561037e578095505b6103878661070b565b6103918684610a12565b6001600160a01b0388166000908152602081905260409020556103b48682610a12565b6001600160a01b039094166000908152602092909252506040902091909155508190505b92915050565b600033821580159061041457506001600160a01b0380821660009081526001602090815260408083209388168352929052205415155b156104235760009150506103d8565b6001600160a01b0381811660008181526001602090815260408083209489168084529482529182902087905590518681527f8c5be1e5ebec7d5bd14f71427d1e84f3dd0314c0f7b2291e5b200ac8c7c3b925910160405180910390a35060019392505050565b600060035460025461049b9190610a12565b905090565b6001600160a01b038316600090815260016020908152604080832033808552925282205483118015906104d957506104d98585856107b5565b15610525576001600160a01b03808616600090815260016020908152604080832093851683529290529081208054859290610515908490610a12565b909155506001925061052b915050565b60009150505b9392505050565b6001600160a01b038216600090815260208190526040812054339080841115610560576000925050506103d8565b6001600160a01b0380861660009081526001602090815260408083209386168352908390529020548086111561059d5760009450505050506103d8565b6105a68661070b565b6105b08684610a12565b6001600160a01b0388166000908152602081905260409020556105d38682610a12565b6001600160a01b039094166000908152602092909252506040902091909155506001905092915050565b3360009081526020819052604081205480831115610619578092505b6106228361070b565b61062c8382610a12565b336000908152602081905260409020555090919050565b60005b818110156106695761065661088d565b508061066181610a29565b915050610646565b50806002600082825461067c91906109fa565b909155505033600090815260208190526040812080548392906106a09084906109fa565b909155505050565b6000336106b68185856107b5565b949350505050565b33600090815260208190526040812054808311156106df5750600092915050565b6106e88361070b565b6106f28382610a12565b3360009081526020819052604090205550600192915050565b600354600061071b8260016109fa565b90505b61072883836109fa565b81116107a35761073f8160035461025b91906109fa565b6001600160a01b03166040516000604051808303816000865af19150503d8060008114610788576040519150601f19603f3d011682016040523d82523d6000602084013e61078d565b606091505b505050808061079b90610a29565b91505061071e565b506107ae82826109fa565b6003555050565b6001600160a01b0383166000908152602081905260408120548211610885576001600160a01b038416600090815260208190526040812080548492906107fc908490610a12565b90915550506001600160a01b038316600090815260208190526040812080548492906108299084906109fa565b92505081905550826001600160a01b0316846001600160a01b03167fddf252ad1be2c89b69c2b068fc378daa952ba7f163c4a11628f55a4df523b3ef8460405161087591815260200190565b60405180910390a350600161052b565b50600061052b565b60006040517e756eb3f879cb30fe243b4dfee438691c043318585733ff6000526016600af38152601f600182016000f091505090565b80356001600160a01b03811681146108da57600080fd5b919050565b6000602082840312156108f0578081fd5b61052b826108c3565b6000806040838503121561090b578081fd5b610914836108c3565b9150610922602084016108c3565b90509250929050565b60008060006060848603121561093f578081fd5b610948846108c3565b9250610956602085016108c3565b9150604084013590509250925092565b60008060408385031215610978578182fd5b610981836108c3565b946020939093013593505050565b6000602082840312156109a0578081fd5b5035919050565b6000602080835283518082850152825b818110156109d3578581018301518582016040015282016109b7565b818111156109e45783604083870101525b50601f01601f1916929092016040019392505050565b60008219821115610a0d57610a0d610a44565b500190565b600082821015610a2457610a24610a44565b500390565b6000600019821415610a3d57610a3d610a44565b5060010190565b634e487b7160e01b600052601160045260246000fdfea264697066735822122079df83bb9a5ea11bf5044c2fa13b2238c3cc33da66d4bde9ca538b12b7601a7e64736f6c63430008040033",
  "immutableReferences": {},
  "source": "// SPDX-License-Identifier: MIT\r\npragma solidity ^0.8.0;\r\n\r\ncontract GasToken2 {\r\n    //////////////////////////////////////////////////////////////////////////\r\n    // Generic ERC20\r\n    //////////////////////////////////////////////////////////////////////////\r\n    // owner -> amount\r\n    mapping(address => uint256) s_balances;\r\n    // owner -> spender -> max amount\r\n    mapping(address => mapping(address => uint256)) s_allowances;\r\n\r\n    event Transfer(address indexed from, address indexed to, uint256 value);\r\n\r\n    event Approval(address indexed owner, address indexed spender, uint256 value);\r\n\r\n    // Spec: Get the account balance of another account with address `owner`\r\n    function balanceOf(address owner) public returns (uint256 balance) {\r\n        return s_balances[owner];\r\n    }\r\n\r\n    function internalTransfer(address from, address to, uint256 value) internal returns (bool success) {\r\n        if (value <= s_balances[from]) {\r\n            s_balances[from] -= value;\r\n            s_balances[to] += value;\r\n            emit Transfer(from, to, value);\r\n            return true;\r\n        } else {\r\n            return false;\r\n        }\r\n    }\r\n\r\n    // Spec: Send `value` amount of tokens to address `to`\r\n    function transfer(address to, uint256 value) public returns (bool success) {\r\n        address from = msg.sender;\r\n        return internalTransfer(from, to, value);\r\n    }\r\n\r\n    // Spec: Send `value` amount of tokens from address `from` to address `to`\r\n    function transferFrom(address from, address to, uint256 value) public returns (bool success) {\r\n        address spender = msg.sender;\r\n        if(value <= s_allowances[from][spender] && internalTransfer(from, to, value)) {\r\n            s_allowances[from][spender] -= value;\r\n            return true;\r\n        } else {\r\n            return false;\r\n        }\r\n    }\r\n\r\n    // Spec: Allow `spender` to withdraw from your account, multiple times, up\r\n    // to the `value` amount. If this function is called again it overwrites the\r\n    // current allowance with `value`.\r\n    function approve(address spender, uint256 value) public returns (bool success) {\r\n        address owner = msg.sender;\r\n        if (value != 0 && s_allowances[owner][spender] != 0) {\r\n            return false;\r\n        }\r\n        s_allowances[owner][spender] = value;\r\n        emit Approval(owner, spender, value);\r\n        return true;\r\n    }\r\n\r\n    // Spec: Returns the `amount` which `spender` is still allowed to withdraw\r\n    // from `owner`.\r\n    // What if the allowance is higher than the balance of the `owner`?\r\n    // Callers should be careful to use min(allowance, balanceOf) to make sure\r\n    // that the allowance is actually present in the account!\r\n    function allowance(address owner, address spender) public returns (uint256 remaining) {\r\n        return s_allowances[owner][spender];\r\n    }\r\n\r\n    //////////////////////////////////////////////////////////////////////////\r\n    // GasToken specifics\r\n    //////////////////////////////////////////////////////////////////////////\r\n\r\n    uint8 constant public decimals = 2;\r\n    string constant public name = \"Gastoken.io\";\r\n    string constant public symbol = \"GST2\";\r\n\r\n    // We build a queue of nonces at which child contracts are stored. s_head is\r\n    // the nonce at the head of the queue, s_tail is the nonce behind the tail\r\n    // of the queue. The queue grows at the head and shrinks from the tail.\r\n    // Note that when and only when a contract CREATEs another contract, the\r\n    // creating contract's nonce is incremented.\r\n    // The first child contract is created with nonce == 1, the second child\r\n    // contract is created with nonce == 2, and so on...\r\n    // For example, if there are child contracts at nonces [2,3,4],\r\n    // then s_head == 4 and s_tail == 1. If there are no child contracts,\r\n    // s_head == s_tail.\r\n    uint256 s_head;\r\n    uint256 s_tail;\r\n\r\n    // totalSupply gives  the number of tokens currently in existence\r\n    // Each token corresponds to one child contract that can be SELFDESTRUCTed\r\n    // for a gas refund.\r\n    function totalSupply() public returns (uint256 supply) {\r\n        return s_head - s_tail;\r\n    }\r\n\r\n    // Creates a child contract that can only be destroyed by this contract.\r\n    function makeChild() internal returns (address addr) {\r\n        assembly {\r\n            // EVM assembler of runtime portion of child contract:\r\n            //     ;; Pseudocode: if (msg.sender != 0x0000000000b3f879cb30fe243b4dfee438691c04) { throw; }\r\n            //     ;;             suicide(msg.sender)\r\n            //     PUSH15 0xb3f879cb30fe243b4dfee438691c04 ;; hardcoded address of this contract\r\n            //     CALLER\r\n            //     XOR\r\n            //     PC\r\n            //     JUMPI\r\n            //     CALLER\r\n            //     SELFDESTRUCT\r\n            // Or in binary: 6eb3f879cb30fe243b4dfee438691c043318585733ff\r\n            // Since the binary is so short (22 bytes), we can get away\r\n            // with a very simple initcode:\r\n            //     PUSH22 0x6eb3f879cb30fe243b4dfee438691c043318585733ff\r\n            //     PUSH1 0\r\n            //     MSTORE ;; at this point, memory locations mem[10] through\r\n            //            ;; mem[31] contain the runtime portion of the child\r\n            //            ;; contract. all that's left to do is to RETURN this\r\n            //            ;; chunk of memory.\r\n            //     PUSH1 22 ;; length\r\n            //     PUSH1 10 ;; offset\r\n            //     RETURN\r\n            // Or in binary: 756eb3f879cb30fe243b4dfee438691c043318585733ff6000526016600af3\r\n            // Almost done! All we have to do is put this short (31 bytes) blob into\r\n            // memory and call CREATE with the appropriate offsets.\r\n            let solidity_free_mem_ptr := mload(0x40)\r\n            mstore(solidity_free_mem_ptr, 0x00756eb3f879cb30fe243b4dfee438691c043318585733ff6000526016600af3)\r\n            addr := create(0, add(solidity_free_mem_ptr, 1), 31)\r\n        }\r\n    }\r\n\r\n    // Mints `value` new sub-tokens (e.g. cents, pennies, ...) by creating `value`\r\n    // new child contracts. The minted tokens are owned by the caller of this\r\n    // function.\r\n    function mint(uint256 value) public {\r\n        for (uint256 i = 0; i < value; i++) {\r\n            makeChild();\r\n        }\r\n        s_head += value;\r\n        s_balances[msg.sender] += value;\r\n    }\r\n\r\n    // Destroys `value` child contracts and updates s_tail.\r\n    //\r\n    // This function is affected by an issue in solc: https://github.com/ethereum/solidity/issues/2999\r\n    // The `mk_contract_address(this, i).call();` doesn't forward all available gas, but only GAS - 25710.\r\n    // As a result, when this line is executed with e.g. 30000 gas, the callee will have less than 5000 gas\r\n    // available and its SELFDESTRUCT operation will fail leading to no gas refund occurring.\r\n    // The remaining ~29000 gas left after the call is enough to update s_tail and the caller's balance.\r\n    // Hence tokens will have been destroyed without a commensurate gas refund.\r\n    // Fortunately, there is a simple workaround:\r\n    // Whenever you call free, freeUpTo, freeFrom, or freeUpToFrom, ensure that you pass at least\r\n    // 25710 + `value` * (1148 + 5722 + 150) gas. (It won't all be used)\r\n    function destroyChildren(uint256 value) internal {\r\n        uint256 tail = s_tail;\r\n        // tail points to slot behind the last contract in the queue\r\n        for (uint256 i = tail + 1; i <= tail + value; i++) {\r\n            computeAddress2(s_tail + i).call(\"\");\r\n        }\r\n\r\n        s_tail = tail + value;\r\n    }\r\n\r\n    function computeAddress2(uint256 salt) public pure returns (address child) {\r\n        assembly {\r\n            let data := mload(0x40)\r\n            mstore(data, 0xff0000000000004946c0e9F43F4Dee607b0eF1fA1c0000000000000000000000)\r\n            mstore(add(data, 21), salt)\r\n            mstore(add(data, 53), 0x3c1644c68e5d6cb380c36d1bf847fdbc0c7ac28030025a2fc5e63cce23c16348)\r\n            child := and(keccak256(data, 85), 0xFFFFFFFFFFFFFFFFFFFFFFFFFFFFFFFFFFFFFFFF)\r\n        }\r\n    }\r\n\r\n    // Frees `value` sub-tokens (e.g. cents, pennies, ...) belonging to the\r\n    // caller of this function by destroying `value` child contracts, which\r\n    // will trigger a partial gas refund.\r\n    // You should ensure that you pass at least 25710 + `value` * (1148 + 5722 + 150) gas\r\n    // when calling this function. For details, see the comment above `destroyChildren`.\r\n    function free(uint256 value) public returns (bool success) {\r\n        uint256 from_balance = s_balances[msg.sender];\r\n        if (value > from_balance) {\r\n            return false;\r\n        }\r\n\r\n        destroyChildren(value);\r\n\r\n        s_balances[msg.sender] = from_balance - value;\r\n\r\n        return true;\r\n    }\r\n\r\n    // Frees up to `value` sub-tokens. Returns how many tokens were freed.\r\n    // Otherwise, identical to free.\r\n    // You should ensure that you pass at least 25710 + `value` * (1148 + 5722 + 150) gas\r\n    // when calling this function. For details, see the comment above `destroyChildren`.\r\n    function freeUpTo(uint256 value) public returns (uint256 freed) {\r\n        uint256 from_balance = s_balances[msg.sender];\r\n        if (value > from_balance) {\r\n            value = from_balance;\r\n        }\r\n\r\n        destroyChildren(value);\r\n\r\n        s_balances[msg.sender] = from_balance - value;\r\n\r\n        return value;\r\n    }\r\n\r\n    // Frees `value` sub-tokens owned by address `from`. Requires that `msg.sender`\r\n    // has been approved by `from`.\r\n    // You should ensure that you pass at least 25710 + `value` * (1148 + 5722 + 150) gas\r\n    // when calling this function. For details, see the comment above `destroyChildren`.\r\n    function freeFrom(address from, uint256 value) public returns (bool success) {\r\n        address spender = msg.sender;\r\n        uint256 from_balance = s_balances[from];\r\n        if (value > from_balance) {\r\n            return false;\r\n        }\r\n\r\n        mapping(address => uint256) storage from_allowances = s_allowances[from];\r\n        uint256 spender_allowance = from_allowances[spender];\r\n        if (value > spender_allowance) {\r\n            return false;\r\n        }\r\n\r\n        destroyChildren(value);\r\n\r\n        s_balances[from] = from_balance - value;\r\n        from_allowances[spender] = spender_allowance - value;\r\n\r\n        return true;\r\n    }\r\n\r\n    // Frees up to `value` sub-tokens owned by address `from`. Returns how many tokens were freed.\r\n    // Otherwise, identical to `freeFrom`.\r\n    // You should ensure that you pass at least 25710 + `value` * (1148 + 5722 + 150) gas\r\n    // when calling this function. For details, see the comment above `destroyChildren`.\r\n    function freeFromUpTo(address from, uint256 value) public returns (uint256 freed) {\r\n        address spender = msg.sender;\r\n        uint256 from_balance = s_balances[from];\r\n        if (value > from_balance) {\r\n            value = from_balance;\r\n        }\r\n\r\n        mapping(address => uint256) storage from_allowances = s_allowances[from];\r\n        uint256 spender_allowance = from_allowances[spender];\r\n        if (value > spender_allowance) {\r\n            value = spender_allowance;\r\n        }\r\n\r\n        destroyChildren(value);\r\n\r\n        s_balances[from] = from_balance - value;\r\n        from_allowances[spender] = spender_allowance - value;\r\n\r\n        return value;\r\n    }\r\n}\r\n",
  "sourcePath": "C:/Users/khera/Documents/GitHub/GasSwapTokens/contracts/existing_gas_tokens/GST/GasToken2.sol",
  "compiler": {
    "name": "solc",
    "version": "0.8.4+commit.c7e474f2.Emscripten.clang"
  },
  "schemaVersion": "3.3.4",
  "updatedAt": "2021-05-17T19:37:44.142Z",
  "devdoc": {
    "kind": "dev",
    "methods": {},
    "version": 1
  },
  "userdoc": {
    "kind": "user",
    "methods": {},
    "version": 1
  }
}