{
  "contractName": "GasToken1",
  "abi": [
    {
      "anonymous": false,
      "inputs": [
        {
          "indexed": true,
          "internalType": "address",
          "name": "owner",
          "type": "address"
        },
        {
          "indexed": true,
          "internalType": "address",
          "name": "spender",
          "type": "address"
        },
        {
          "indexed": false,
          "internalType": "uint256",
          "name": "value",
          "type": "uint256"
        }
      ],
      "name": "Approval",
      "type": "event"
    },
    {
      "anonymous": false,
      "inputs": [
        {
          "indexed": true,
          "internalType": "address",
          "name": "from",
          "type": "address"
        },
        {
          "indexed": true,
          "internalType": "address",
          "name": "to",
          "type": "address"
        },
        {
          "indexed": false,
          "internalType": "uint256",
          "name": "value",
          "type": "uint256"
        }
      ],
      "name": "Transfer",
      "type": "event"
    },
    {
      "inputs": [],
      "name": "decimals",
      "outputs": [
        {
          "internalType": "uint8",
          "name": "",
          "type": "uint8"
        }
      ],
      "stateMutability": "view",
      "type": "function"
    },
    {
      "inputs": [],
      "name": "name",
      "outputs": [
        {
          "internalType": "string",
          "name": "",
          "type": "string"
        }
      ],
      "stateMutability": "view",
      "type": "function"
    },
    {
      "inputs": [],
      "name": "symbol",
      "outputs": [
        {
          "internalType": "string",
          "name": "",
          "type": "string"
        }
      ],
      "stateMutability": "view",
      "type": "function"
    },
    {
      "inputs": [
        {
          "internalType": "address",
          "name": "owner",
          "type": "address"
        }
      ],
      "name": "balanceOf",
      "outputs": [
        {
          "internalType": "uint256",
          "name": "balance",
          "type": "uint256"
        }
      ],
      "stateMutability": "nonpayable",
      "type": "function"
    },
    {
      "inputs": [
        {
          "internalType": "address",
          "name": "to",
          "type": "address"
        },
        {
          "internalType": "uint256",
          "name": "value",
          "type": "uint256"
        }
      ],
      "name": "transfer",
      "outputs": [
        {
          "internalType": "bool",
          "name": "success",
          "type": "bool"
        }
      ],
      "stateMutability": "nonpayable",
      "type": "function"
    },
    {
      "inputs": [
        {
          "internalType": "address",
          "name": "from",
          "type": "address"
        },
        {
          "internalType": "address",
          "name": "to",
          "type": "address"
        },
        {
          "internalType": "uint256",
          "name": "value",
          "type": "uint256"
        }
      ],
      "name": "transferFrom",
      "outputs": [
        {
          "internalType": "bool",
          "name": "success",
          "type": "bool"
        }
      ],
      "stateMutability": "nonpayable",
      "type": "function"
    },
    {
      "inputs": [
        {
          "internalType": "address",
          "name": "spender",
          "type": "address"
        },
        {
          "internalType": "uint256",
          "name": "value",
          "type": "uint256"
        }
      ],
      "name": "approve",
      "outputs": [
        {
          "internalType": "bool",
          "name": "success",
          "type": "bool"
        }
      ],
      "stateMutability": "nonpayable",
      "type": "function"
    },
    {
      "inputs": [
        {
          "internalType": "address",
          "name": "owner",
          "type": "address"
        },
        {
          "internalType": "address",
          "name": "spender",
          "type": "address"
        }
      ],
      "name": "allowance",
      "outputs": [
        {
          "internalType": "uint256",
          "name": "remaining",
          "type": "uint256"
        }
      ],
      "stateMutability": "nonpayable",
      "type": "function"
    },
    {
      "inputs": [],
      "name": "totalSupply",
      "outputs": [
        {
          "internalType": "uint256",
          "name": "supply",
          "type": "uint256"
        }
      ],
      "stateMutability": "nonpayable",
      "type": "function"
    },
    {
      "inputs": [
        {
          "internalType": "uint256",
          "name": "value",
          "type": "uint256"
        }
      ],
      "name": "mint",
      "outputs": [],
      "stateMutability": "nonpayable",
      "type": "function"
    },
    {
      "inputs": [
        {
          "internalType": "uint256",
          "name": "value",
          "type": "uint256"
        }
      ],
      "name": "free",
      "outputs": [
        {
          "internalType": "bool",
          "name": "success",
          "type": "bool"
        }
      ],
      "stateMutability": "nonpayable",
      "type": "function"
    },
    {
      "inputs": [
        {
          "internalType": "uint256",
          "name": "value",
          "type": "uint256"
        }
      ],
      "name": "freeUpTo",
      "outputs": [
        {
          "internalType": "uint256",
          "name": "freed",
          "type": "uint256"
        }
      ],
      "stateMutability": "nonpayable",
      "type": "function"
    },
    {
      "inputs": [
        {
          "internalType": "address",
          "name": "from",
          "type": "address"
        },
        {
          "internalType": "uint256",
          "name": "value",
          "type": "uint256"
        }
      ],
      "name": "freeFrom",
      "outputs": [
        {
          "internalType": "bool",
          "name": "success",
          "type": "bool"
        }
      ],
      "stateMutability": "nonpayable",
      "type": "function"
    },
    {
      "inputs": [
        {
          "internalType": "address",
          "name": "from",
          "type": "address"
        },
        {
          "internalType": "uint256",
          "name": "value",
          "type": "uint256"
        }
      ],
      "name": "freeFromUpTo",
      "outputs": [
        {
          "internalType": "uint256",
          "name": "freed",
          "type": "uint256"
        }
      ],
      "stateMutability": "nonpayable",
      "type": "function"
    }
  ],
  "bytecode": "0x608060405234801561001057600080fd5b50610a4e806100206000396000f3fe608060405234801561001057600080fd5b50600436106100ea5760003560e01c80636366b9361161008c578063a0712d6811610066578063a0712d6814610248578063a9059cbb1461025d578063d8ccd0f314610270578063dd62ed3e1461028357600080fd5b80636366b936146101d057806370a08231146101e357806395d89b411461020c57600080fd5b806318160ddd116100c857806318160ddd1461018557806323b872dd14610190578063313ce567146101a35780635f2e2b45146101bd57600080fd5b806306fdde03146100ef578063079d229f14610141578063095ea7b314610162575b600080fd5b61012b6040518060400160405280600b81526020017f476173746f6b656e2e696f00000000000000000000000000000000000000000081525081565b6040516101389190610910565b60405180910390f35b61015461014f3660046108cf565b6102bc565b604051908152602001610138565b6101756101703660046108cf565b610377565b6040519015158152602001610138565b63deadbeef54610154565b61017561019e366004610894565b610422565b6101ab600281565b60405160ff9091168152602001610138565b6101756101cb3660046108cf565b6104b4565b6101546101de3660046108f8565b61057f565b6101546101f1366004610848565b6001600160a01b031660009081526020819052604090205490565b61012b6040518060400160405280600481526020017f475354310000000000000000000000000000000000000000000000000000000081525081565b61025b6102563660046108f8565b6105c5565b005b61017561026b3660046108cf565b61068e565b61017561027e3660046108f8565b6106a4565b610154610291366004610862565b6001600160a01b03918216600090815260016020908152604080832093909416825291909152205490565b6001600160a01b0382166000908152602081905260408120543390808411156102e3578093505b6001600160a01b03808616600090815260016020908152604080832093861683529083905290205480861115610317578095505b610320866106f1565b61032a8684610999565b6001600160a01b03881660009081526020819052604090205561034d8682610999565b6001600160a01b039094166000908152602092909252506040902091909155508190505b92915050565b60003382158015906103ad57506001600160a01b0380821660009081526001602090815260408083209388168352929052205415155b156103bc576000915050610371565b6001600160a01b0381811660008181526001602090815260408083209489168084529482529182902087905590518681527f8c5be1e5ebec7d5bd14f71427d1e84f3dd0314c0f7b2291e5b200ac8c7c3b925910160405180910390a35060019392505050565b6001600160a01b0383166000908152600160209081526040808320338085529252822054831180159061045b575061045b858585610754565b156104a7576001600160a01b03808616600090815260016020908152604080832093851683529290529081208054859290610497908490610999565b90915550600192506104ad915050565b60009150505b9392505050565b6001600160a01b0382166000908152602081905260408120543390808411156104e257600092505050610371565b6001600160a01b0380861660009081526001602090815260408083209386168352908390529020548086111561051f576000945050505050610371565b610528866106f1565b6105328684610999565b6001600160a01b0388166000908152602081905260409020556105558682610999565b6001600160a01b039094166000908152602092909252506040902091909155506001905092915050565b336000908152602081905260408120548083111561059b578092505b6105a4836106f1565b6105ae8382610999565b336000908152602081905260409020555090919050565b63deadbeef816105d3575050565b805460006105e18284610981565b6105ec906001610981565b90506000846105fb8486610981565b6106059190610981565b90508181101561063e577f4e487b7100000000000000000000000000000000000000000000000000000000600052600160045260246000fd5b815b81811161065d576001815580610655816109b0565b915050610640565b5082850184553360009081526020819052604081208054879290610682908490610981565b90915550505050505050565b60003361069c818585610754565b949350505050565b33600090815260208190526040812054808311156106c55750600092915050565b6106ce836106f1565b6106d88382610999565b3360009081526020819052604090205550600192915050565b63deadbeef80546000836107058385610981565b61070f9190610999565b61071a906001610981565b905060006107288385610981565b9050815b818111610749576000815580610741816109b0565b91505061072c565b505050919091039055565b6001600160a01b0383166000908152602081905260408120548211610824576001600160a01b0384166000908152602081905260408120805484929061079b908490610999565b90915550506001600160a01b038316600090815260208190526040812080548492906107c8908490610981565b92505081905550826001600160a01b0316846001600160a01b03167fddf252ad1be2c89b69c2b068fc378daa952ba7f163c4a11628f55a4df523b3ef8460405161081491815260200190565b60405180910390a35060016104ad565b5060006104ad565b80356001600160a01b038116811461084357600080fd5b919050565b600060208284031215610859578081fd5b6104ad8261082c565b60008060408385031215610874578081fd5b61087d8361082c565b915061088b6020840161082c565b90509250929050565b6000806000606084860312156108a8578081fd5b6108b18461082c565b92506108bf6020850161082c565b9150604084013590509250925092565b600080604083850312156108e1578182fd5b6108ea8361082c565b946020939093013593505050565b600060208284031215610909578081fd5b5035919050565b6000602080835283518082850152825b8181101561093c57858101830151858201604001528201610920565b8181111561094d5783604083870101525b50601f017fffffffffffffffffffffffffffffffffffffffffffffffffffffffffffffffe016929092016040019392505050565b60008219821115610994576109946109e9565b500190565b6000828210156109ab576109ab6109e9565b500390565b60007fffffffffffffffffffffffffffffffffffffffffffffffffffffffffffffffff8214156109e2576109e26109e9565b5060010190565b7f4e487b7100000000000000000000000000000000000000000000000000000000600052601160045260246000fdfea26469706673582212204c71b57d143c297d0f74625fd6ce8a2045d84bebf2bc62fefdefe9a50c9fa00664736f6c63430008040033",
  "immutableReferences": {},
  "source": "// SPDX-License-Identifier: MIT\r\npragma solidity ^0.8.0;\r\n\r\ncontract GasToken1 {\r\n    //////////////////////////////////////////////////////////////////////////\r\n    // Generic ERC20\r\n    //////////////////////////////////////////////////////////////////////////\r\n\r\n    // owner -> amount\r\n    mapping(address => uint256) s_balances;\r\n    // owner -> spender -> max amount\r\n    mapping(address => mapping(address => uint256)) s_allowances;\r\n\r\n    event Transfer(address indexed from, address indexed to, uint256 value);\r\n\r\n    event Approval(address indexed owner, address indexed spender, uint256 value);\r\n\r\n    // Spec: Get the account balance of another account with address `owner`\r\n    function balanceOf(address owner) public returns (uint256 balance) {\r\n        return s_balances[owner];\r\n    }\r\n\r\n    function internalTransfer(address from, address to, uint256 value) internal returns (bool success) {\r\n        if (value <= s_balances[from]) {\r\n            s_balances[from] -= value;\r\n            s_balances[to] += value;\r\n            emit Transfer(from, to, value);\r\n            return true;\r\n        } else {\r\n            return false;\r\n        }\r\n    }\r\n\r\n    // Spec: Send `value` amount of tokens to address `to`\r\n    function transfer(address to, uint256 value) public returns (bool success) {\r\n        address from = msg.sender;\r\n        return internalTransfer(from, to, value);\r\n    }\r\n\r\n    // Spec: Send `value` amount of tokens from address `from` to address `to`\r\n    function transferFrom(address from, address to, uint256 value) public returns (bool success) {\r\n        address spender = msg.sender;\r\n        if(value <= s_allowances[from][spender] && internalTransfer(from, to, value)) {\r\n            s_allowances[from][spender] -= value;\r\n            return true;\r\n        } else {\r\n            return false;\r\n        }\r\n    }\r\n\r\n    // Spec: Allow `spender` to withdraw from your account, multiple times, up\r\n    // to the `value` amount. If this function is called again it overwrites the\r\n    // current allowance with `value`.\r\n    function approve(address spender, uint256 value) public returns (bool success) {\r\n        address owner = msg.sender;\r\n        if (value != 0 && s_allowances[owner][spender] != 0) {\r\n            return false;\r\n        }\r\n        s_allowances[owner][spender] = value;\r\n        emit Approval(owner, spender, value);\r\n        return true;\r\n    }\r\n\r\n    // Spec: Returns the `amount` which `spender` is still allowed to withdraw\r\n    // from `owner`.\r\n    // What if the allowance is higher than the balance of the `owner`?\r\n    // Callers should be careful to use min(allowance, balanceOf) to make sure\r\n    // that the allowance is actually present in the account!\r\n    function allowance(address owner, address spender) public returns (uint256 remaining) {\r\n        return s_allowances[owner][spender];\r\n    }\r\n\r\n    //////////////////////////////////////////////////////////////////////////\r\n    // GasToken specifics\r\n    //////////////////////////////////////////////////////////////////////////\r\n\r\n    uint8 constant public decimals = 2;\r\n    string constant public name = \"Gastoken.io\";\r\n    string constant public symbol = \"GST1\";\r\n\r\n    // We start our storage at this location. The EVM word at this location\r\n    // contains the number of stored words. The stored words follow at\r\n    // locations (STORAGE_LOCATION_ARRAY+1), (STORAGE_LOCATION_ARRAY+2), ...\r\n    uint256 constant STORAGE_LOCATION_ARRAY = 0xDEADBEEF;\r\n\r\n\r\n    // totalSupply is the number of words we have in storage\r\n    function totalSupply() public returns (uint256 supply) {\r\n        uint256 storage_location_array = STORAGE_LOCATION_ARRAY;\r\n        assembly {\r\n            supply := sload(storage_location_array)\r\n        }\r\n    }\r\n\r\n    // Mints `value` new sub-tokens (e.g. cents, pennies, ...) by filling up\r\n    // `value` words of EVM storage. The minted tokens are owned by the\r\n    // caller of this function.\r\n    function mint(uint256 value) public {\r\n        uint256 storage_location_array = STORAGE_LOCATION_ARRAY;  // can't use constants inside assembly\r\n\r\n        if (value == 0) {\r\n            return;\r\n        }\r\n\r\n        // Read supply\r\n        uint256 supply;\r\n        assembly {\r\n            supply := sload(storage_location_array)\r\n        }\r\n\r\n        // Set memory locations in interval [l, r]\r\n        uint256 l = storage_location_array + supply + 1;\r\n        uint256 r = storage_location_array + supply + value;\r\n        assert(r >= l);\r\n\r\n        for (uint256 i = l; i <= r; i++) {\r\n            assembly {\r\n                sstore(i, 1)\r\n            }\r\n        }\r\n\r\n        // Write updated supply & balance\r\n        assembly {\r\n            sstore(storage_location_array, add(supply, value))\r\n        }\r\n        s_balances[msg.sender] += value;\r\n    }\r\n\r\n    function freeStorage(uint256 value) internal {\r\n        uint256 storage_location_array = STORAGE_LOCATION_ARRAY;  // can't use constants inside assembly\r\n\r\n        // Read supply\r\n        uint256 supply;\r\n        assembly {\r\n            supply := sload(storage_location_array)\r\n        }\r\n\r\n        // Clear memory locations in interval [l, r]\r\n        uint256 l = storage_location_array + supply - value + 1;\r\n        uint256 r = storage_location_array + supply;\r\n        for (uint256 i = l; i <= r; i++) {\r\n            assembly {\r\n                sstore(i, 0)\r\n            }\r\n        }\r\n\r\n        // Write updated supply\r\n        assembly {\r\n            sstore(storage_location_array, sub(supply, value))\r\n        }\r\n    }\r\n\r\n    // Frees `value` sub-tokens (e.g. cents, pennies, ...) belonging to the\r\n    // caller of this function by clearing value words of EVM storage, which\r\n    // will trigger a partial gas refund.\r\n    function free(uint256 value) public returns (bool success) {\r\n        uint256 from_balance = s_balances[msg.sender];\r\n        if (value > from_balance) {\r\n            return false;\r\n        }\r\n\r\n        freeStorage(value);\r\n\r\n        s_balances[msg.sender] = from_balance - value;\r\n\r\n        return true;\r\n    }\r\n\r\n    // Frees up to `value` sub-tokens. Returns how many tokens were freed.\r\n    // Otherwise, identical to free.\r\n    function freeUpTo(uint256 value) public returns (uint256 freed) {\r\n        uint256 from_balance = s_balances[msg.sender];\r\n        if (value > from_balance) {\r\n            value = from_balance;\r\n        }\r\n\r\n        freeStorage(value);\r\n\r\n        s_balances[msg.sender] = from_balance - value;\r\n\r\n        return value;\r\n    }\r\n\r\n    // Frees `value` sub-tokens owned by address `from`. Requires that `msg.sender`\r\n    // has been approved by `from`.\r\n    function freeFrom(address from, uint256 value) public returns (bool success) {\r\n        address spender = msg.sender;\r\n        uint256 from_balance = s_balances[from];\r\n        if (value > from_balance) {\r\n            return false;\r\n        }\r\n\r\n        mapping(address => uint256) storage from_allowances = s_allowances[from];\r\n        uint256 spender_allowance = from_allowances[spender];\r\n        if (value > spender_allowance) {\r\n            return false;\r\n        }\r\n\r\n        freeStorage(value);\r\n\r\n        s_balances[from] = from_balance - value;\r\n        from_allowances[spender] = spender_allowance - value;\r\n\r\n        return true;\r\n    }\r\n\r\n    // Frees up to `value` sub-tokens owned by address `from`. Returns how many tokens were freed.\r\n    // Otherwise, identical to `freeFrom`.\r\n    function freeFromUpTo(address from, uint256 value) public returns (uint256 freed) {\r\n        address spender = msg.sender;\r\n        uint256 from_balance = s_balances[from];\r\n        if (value > from_balance) {\r\n            value = from_balance;\r\n        }\r\n\r\n        mapping(address => uint256) storage from_allowances = s_allowances[from];\r\n        uint256 spender_allowance = from_allowances[spender];\r\n        if (value > spender_allowance) {\r\n            value = spender_allowance;\r\n        }\r\n\r\n        freeStorage(value);\r\n\r\n        s_balances[from] = from_balance - value;\r\n        from_allowances[spender] = spender_allowance - value;\r\n\r\n        return value;\r\n    }\r\n}\r\n",
  "sourcePath": "C:/Users/khera/Documents/GitHub/GasSwapTokens/contracts/existing_gas_tokens/GST/GasToken1.sol",
  "compiler": {
    "name": "solc",
    "version": "0.8.4+commit.c7e474f2.Emscripten.clang"
  },
  "schemaVersion": "3.3.4",
  "updatedAt": "2021-05-14T16:51:06.608Z",
  "devdoc": {
    "kind": "dev",
    "methods": {},
    "version": 1
  },
  "userdoc": {
    "kind": "user",
    "methods": {},
    "version": 1
  }
}