{
  "contractName": "GasToken1",
  "abi": [
    {
      "anonymous": false,
      "inputs": [
        {
          "indexed": true,
          "internalType": "address",
          "name": "owner",
          "type": "address"
        },
        {
          "indexed": true,
          "internalType": "address",
          "name": "spender",
          "type": "address"
        },
        {
          "indexed": false,
          "internalType": "uint256",
          "name": "value",
          "type": "uint256"
        }
      ],
      "name": "Approval",
      "type": "event"
    },
    {
      "anonymous": false,
      "inputs": [
        {
          "indexed": true,
          "internalType": "address",
          "name": "from",
          "type": "address"
        },
        {
          "indexed": true,
          "internalType": "address",
          "name": "to",
          "type": "address"
        },
        {
          "indexed": false,
          "internalType": "uint256",
          "name": "value",
          "type": "uint256"
        }
      ],
      "name": "Transfer",
      "type": "event"
    },
    {
      "inputs": [],
      "name": "decimals",
      "outputs": [
        {
          "internalType": "uint8",
          "name": "",
          "type": "uint8"
        }
      ],
      "stateMutability": "view",
      "type": "function"
    },
    {
      "inputs": [],
      "name": "name",
      "outputs": [
        {
          "internalType": "string",
          "name": "",
          "type": "string"
        }
      ],
      "stateMutability": "view",
      "type": "function"
    },
    {
      "inputs": [],
      "name": "symbol",
      "outputs": [
        {
          "internalType": "string",
          "name": "",
          "type": "string"
        }
      ],
      "stateMutability": "view",
      "type": "function"
    },
    {
      "inputs": [
        {
          "internalType": "address",
          "name": "owner",
          "type": "address"
        }
      ],
      "name": "balanceOf",
      "outputs": [
        {
          "internalType": "uint256",
          "name": "balance",
          "type": "uint256"
        }
      ],
      "stateMutability": "nonpayable",
      "type": "function"
    },
    {
      "inputs": [
        {
          "internalType": "address",
          "name": "to",
          "type": "address"
        },
        {
          "internalType": "uint256",
          "name": "value",
          "type": "uint256"
        }
      ],
      "name": "transfer",
      "outputs": [
        {
          "internalType": "bool",
          "name": "success",
          "type": "bool"
        }
      ],
      "stateMutability": "nonpayable",
      "type": "function"
    },
    {
      "inputs": [
        {
          "internalType": "address",
          "name": "from",
          "type": "address"
        },
        {
          "internalType": "address",
          "name": "to",
          "type": "address"
        },
        {
          "internalType": "uint256",
          "name": "value",
          "type": "uint256"
        }
      ],
      "name": "transferFrom",
      "outputs": [
        {
          "internalType": "bool",
          "name": "success",
          "type": "bool"
        }
      ],
      "stateMutability": "nonpayable",
      "type": "function"
    },
    {
      "inputs": [
        {
          "internalType": "address",
          "name": "spender",
          "type": "address"
        },
        {
          "internalType": "uint256",
          "name": "value",
          "type": "uint256"
        }
      ],
      "name": "approve",
      "outputs": [
        {
          "internalType": "bool",
          "name": "success",
          "type": "bool"
        }
      ],
      "stateMutability": "nonpayable",
      "type": "function"
    },
    {
      "inputs": [
        {
          "internalType": "address",
          "name": "owner",
          "type": "address"
        },
        {
          "internalType": "address",
          "name": "spender",
          "type": "address"
        }
      ],
      "name": "allowance",
      "outputs": [
        {
          "internalType": "uint256",
          "name": "remaining",
          "type": "uint256"
        }
      ],
      "stateMutability": "nonpayable",
      "type": "function"
    },
    {
      "inputs": [],
      "name": "totalSupply",
      "outputs": [
        {
          "internalType": "uint256",
          "name": "supply",
          "type": "uint256"
        }
      ],
      "stateMutability": "nonpayable",
      "type": "function"
    },
    {
      "inputs": [
        {
          "internalType": "uint256",
          "name": "value",
          "type": "uint256"
        }
      ],
      "name": "mint",
      "outputs": [],
      "stateMutability": "nonpayable",
      "type": "function"
    },
    {
      "inputs": [
        {
          "internalType": "uint256",
          "name": "value",
          "type": "uint256"
        }
      ],
      "name": "free",
      "outputs": [
        {
          "internalType": "bool",
          "name": "success",
          "type": "bool"
        }
      ],
      "stateMutability": "nonpayable",
      "type": "function"
    },
    {
      "inputs": [
        {
          "internalType": "uint256",
          "name": "value",
          "type": "uint256"
        }
      ],
      "name": "freeUpTo",
      "outputs": [
        {
          "internalType": "uint256",
          "name": "freed",
          "type": "uint256"
        }
      ],
      "stateMutability": "nonpayable",
      "type": "function"
    },
    {
      "inputs": [
        {
          "internalType": "address",
          "name": "from",
          "type": "address"
        },
        {
          "internalType": "uint256",
          "name": "value",
          "type": "uint256"
        }
      ],
      "name": "freeFrom",
      "outputs": [
        {
          "internalType": "bool",
          "name": "success",
          "type": "bool"
        }
      ],
      "stateMutability": "nonpayable",
      "type": "function"
    },
    {
      "inputs": [
        {
          "internalType": "address",
          "name": "from",
          "type": "address"
        },
        {
          "internalType": "uint256",
          "name": "value",
          "type": "uint256"
        }
      ],
      "name": "freeFromUpTo",
      "outputs": [
        {
          "internalType": "uint256",
          "name": "freed",
          "type": "uint256"
        }
      ],
      "stateMutability": "nonpayable",
      "type": "function"
    }
  ],
  "bytecode": "0x608060405234801561001057600080fd5b506109b5806100206000396000f3fe608060405234801561001057600080fd5b50600436106100ea5760003560e01c80636366b9361161008c578063a0712d6811610066578063a0712d681461021d578063a9059cbb14610232578063d8ccd0f314610245578063dd62ed3e1461025857600080fd5b80636366b936146101be57806370a08231146101d157806395d89b41146101fa57600080fd5b806318160ddd116100c857806318160ddd1461017357806323b872dd1461017e578063313ce567146101915780635f2e2b45146101ab57600080fd5b806306fdde03146100ef578063079d229f1461012f578063095ea7b314610150575b600080fd5b6101196040518060400160405280600b81526020016a476173746f6b656e2e696f60a81b81525081565b60405161012691906108cc565b60405180910390f35b61014261013d36600461088b565b610291565b604051908152602001610126565b61016361015e36600461088b565b61034c565b6040519015158152602001610126565b63deadbeef54610142565b61016361018c366004610850565b6103f7565b610199600281565b60405160ff9091168152602001610126565b6101636101b936600461088b565b610489565b6101426101cc3660046108b4565b610554565b6101426101df366004610804565b6001600160a01b031660009081526020819052604090205490565b610119604051806040016040528060048152602001634753543160e01b81525081565b61023061022b3660046108b4565b61059a565b005b61016361024036600461088b565b61064a565b6101636102533660046108b4565b610660565b61014261026636600461081e565b6001600160a01b03918216600090815260016020908152604080832093909416825291909152205490565b6001600160a01b0382166000908152602081905260408120543390808411156102b8578093505b6001600160a01b038086166000908152600160209081526040808320938616835290839052902054808611156102ec578095505b6102f5866106ad565b6102ff8684610937565b6001600160a01b0388166000908152602081905260409020556103228682610937565b6001600160a01b039094166000908152602092909252506040902091909155508190505b92915050565b600033821580159061038257506001600160a01b0380821660009081526001602090815260408083209388168352929052205415155b15610391576000915050610346565b6001600160a01b0381811660008181526001602090815260408083209489168084529482529182902087905590518681527f8c5be1e5ebec7d5bd14f71427d1e84f3dd0314c0f7b2291e5b200ac8c7c3b925910160405180910390a35060019392505050565b6001600160a01b038316600090815260016020908152604080832033808552925282205483118015906104305750610430858585610710565b1561047c576001600160a01b0380861660009081526001602090815260408083209385168352929052908120805485929061046c908490610937565b9091555060019250610482915050565b60009150505b9392505050565b6001600160a01b0382166000908152602081905260408120543390808411156104b757600092505050610346565b6001600160a01b038086166000908152600160209081526040808320938616835290839052902054808611156104f4576000945050505050610346565b6104fd866106ad565b6105078684610937565b6001600160a01b03881660009081526020819052604090205561052a8682610937565b6001600160a01b039094166000908152602092909252506040902091909155506001905092915050565b3360009081526020819052604081205480831115610570578092505b610579836106ad565b6105838382610937565b336000908152602081905260409020555090919050565b63deadbeef816105a8575050565b805460006105b6828461091f565b6105c190600161091f565b90506000846105d0848661091f565b6105da919061091f565b9050818110156105fa57634e487b7160e01b600052600160045260246000fd5b815b8181116106195760018155806106118161094e565b9150506105fc565b508285018455336000908152602081905260408120805487929061063e90849061091f565b90915550505050505050565b600033610658818585610710565b949350505050565b33600090815260208190526040812054808311156106815750600092915050565b61068a836106ad565b6106948382610937565b3360009081526020819052604090205550600192915050565b63deadbeef80546000836106c1838561091f565b6106cb9190610937565b6106d690600161091f565b905060006106e4838561091f565b9050815b8181116107055760008155806106fd8161094e565b9150506106e8565b505050919091039055565b6001600160a01b03831660009081526020819052604081205482116107e0576001600160a01b03841660009081526020819052604081208054849290610757908490610937565b90915550506001600160a01b0383166000908152602081905260408120805484929061078490849061091f565b92505081905550826001600160a01b0316846001600160a01b03167fddf252ad1be2c89b69c2b068fc378daa952ba7f163c4a11628f55a4df523b3ef846040516107d091815260200190565b60405180910390a3506001610482565b506000610482565b80356001600160a01b03811681146107ff57600080fd5b919050565b600060208284031215610815578081fd5b610482826107e8565b60008060408385031215610830578081fd5b610839836107e8565b9150610847602084016107e8565b90509250929050565b600080600060608486031215610864578081fd5b61086d846107e8565b925061087b602085016107e8565b9150604084013590509250925092565b6000806040838503121561089d578182fd5b6108a6836107e8565b946020939093013593505050565b6000602082840312156108c5578081fd5b5035919050565b6000602080835283518082850152825b818110156108f8578581018301518582016040015282016108dc565b818111156109095783604083870101525b50601f01601f1916929092016040019392505050565b6000821982111561093257610932610969565b500190565b60008282101561094957610949610969565b500390565b600060001982141561096257610962610969565b5060010190565b634e487b7160e01b600052601160045260246000fdfea2646970667358221220068805843b0c0ba4c16b7d6773db8b1cf20ad6f274b462b8feae72ddc9107cc364736f6c63430008040033",
  "immutableReferences": {},
  "source": "// SPDX-License-Identifier: MIT\r\npragma solidity ^0.8.0;\r\n\r\ncontract GasToken1 {\r\n    //////////////////////////////////////////////////////////////////////////\r\n    // Generic ERC20\r\n    //////////////////////////////////////////////////////////////////////////\r\n\r\n    // owner -> amount\r\n    mapping(address => uint256) s_balances;\r\n    // owner -> spender -> max amount\r\n    mapping(address => mapping(address => uint256)) s_allowances;\r\n\r\n    event Transfer(address indexed from, address indexed to, uint256 value);\r\n\r\n    event Approval(address indexed owner, address indexed spender, uint256 value);\r\n\r\n    // Spec: Get the account balance of another account with address `owner`\r\n    function balanceOf(address owner) public returns (uint256 balance) {\r\n        return s_balances[owner];\r\n    }\r\n\r\n    function internalTransfer(address from, address to, uint256 value) internal returns (bool success) {\r\n        if (value <= s_balances[from]) {\r\n            s_balances[from] -= value;\r\n            s_balances[to] += value;\r\n            emit Transfer(from, to, value);\r\n            return true;\r\n        } else {\r\n            return false;\r\n        }\r\n    }\r\n\r\n    // Spec: Send `value` amount of tokens to address `to`\r\n    function transfer(address to, uint256 value) public returns (bool success) {\r\n        address from = msg.sender;\r\n        return internalTransfer(from, to, value);\r\n    }\r\n\r\n    // Spec: Send `value` amount of tokens from address `from` to address `to`\r\n    function transferFrom(address from, address to, uint256 value) public returns (bool success) {\r\n        address spender = msg.sender;\r\n        if(value <= s_allowances[from][spender] && internalTransfer(from, to, value)) {\r\n            s_allowances[from][spender] -= value;\r\n            return true;\r\n        } else {\r\n            return false;\r\n        }\r\n    }\r\n\r\n    // Spec: Allow `spender` to withdraw from your account, multiple times, up\r\n    // to the `value` amount. If this function is called again it overwrites the\r\n    // current allowance with `value`.\r\n    function approve(address spender, uint256 value) public returns (bool success) {\r\n        address owner = msg.sender;\r\n        if (value != 0 && s_allowances[owner][spender] != 0) {\r\n            return false;\r\n        }\r\n        s_allowances[owner][spender] = value;\r\n        emit Approval(owner, spender, value);\r\n        return true;\r\n    }\r\n\r\n    // Spec: Returns the `amount` which `spender` is still allowed to withdraw\r\n    // from `owner`.\r\n    // What if the allowance is higher than the balance of the `owner`?\r\n    // Callers should be careful to use min(allowance, balanceOf) to make sure\r\n    // that the allowance is actually present in the account!\r\n    function allowance(address owner, address spender) public returns (uint256 remaining) {\r\n        return s_allowances[owner][spender];\r\n    }\r\n\r\n    //////////////////////////////////////////////////////////////////////////\r\n    // GasToken specifics\r\n    //////////////////////////////////////////////////////////////////////////\r\n\r\n    uint8 constant public decimals = 2;\r\n    string constant public name = \"Gastoken.io\";\r\n    string constant public symbol = \"GST1\";\r\n\r\n    // We start our storage at this location. The EVM word at this location\r\n    // contains the number of stored words. The stored words follow at\r\n    // locations (STORAGE_LOCATION_ARRAY+1), (STORAGE_LOCATION_ARRAY+2), ...\r\n    uint256 constant STORAGE_LOCATION_ARRAY = 0xDEADBEEF;\r\n\r\n\r\n    // totalSupply is the number of words we have in storage\r\n    function totalSupply() public returns (uint256 supply) {\r\n        uint256 storage_location_array = STORAGE_LOCATION_ARRAY;\r\n        assembly {\r\n            supply := sload(storage_location_array)\r\n        }\r\n    }\r\n\r\n    // Mints `value` new sub-tokens (e.g. cents, pennies, ...) by filling up\r\n    // `value` words of EVM storage. The minted tokens are owned by the\r\n    // caller of this function.\r\n    function mint(uint256 value) public {\r\n        uint256 storage_location_array = STORAGE_LOCATION_ARRAY;  // can't use constants inside assembly\r\n\r\n        if (value == 0) {\r\n            return;\r\n        }\r\n\r\n        // Read supply\r\n        uint256 supply;\r\n        assembly {\r\n            supply := sload(storage_location_array)\r\n        }\r\n\r\n        // Set memory locations in interval [l, r]\r\n        uint256 l = storage_location_array + supply + 1;\r\n        uint256 r = storage_location_array + supply + value;\r\n        assert(r >= l);\r\n\r\n        for (uint256 i = l; i <= r; i++) {\r\n            assembly {\r\n                sstore(i, 1)\r\n            }\r\n        }\r\n\r\n        // Write updated supply & balance\r\n        assembly {\r\n            sstore(storage_location_array, add(supply, value))\r\n        }\r\n        s_balances[msg.sender] += value;\r\n    }\r\n\r\n    function freeStorage(uint256 value) internal {\r\n        uint256 storage_location_array = STORAGE_LOCATION_ARRAY;  // can't use constants inside assembly\r\n\r\n        // Read supply\r\n        uint256 supply;\r\n        assembly {\r\n            supply := sload(storage_location_array)\r\n        }\r\n\r\n        // Clear memory locations in interval [l, r]\r\n        uint256 l = storage_location_array + supply - value + 1;\r\n        uint256 r = storage_location_array + supply;\r\n        for (uint256 i = l; i <= r; i++) {\r\n            assembly {\r\n                sstore(i, 0)\r\n            }\r\n        }\r\n\r\n        // Write updated supply\r\n        assembly {\r\n            sstore(storage_location_array, sub(supply, value))\r\n        }\r\n    }\r\n\r\n    // Frees `value` sub-tokens (e.g. cents, pennies, ...) belonging to the\r\n    // caller of this function by clearing value words of EVM storage, which\r\n    // will trigger a partial gas refund.\r\n    function free(uint256 value) public returns (bool success) {\r\n        uint256 from_balance = s_balances[msg.sender];\r\n        if (value > from_balance) {\r\n            return false;\r\n        }\r\n\r\n        freeStorage(value);\r\n\r\n        s_balances[msg.sender] = from_balance - value;\r\n\r\n        return true;\r\n    }\r\n\r\n    // Frees up to `value` sub-tokens. Returns how many tokens were freed.\r\n    // Otherwise, identical to free.\r\n    function freeUpTo(uint256 value) public returns (uint256 freed) {\r\n        uint256 from_balance = s_balances[msg.sender];\r\n        if (value > from_balance) {\r\n            value = from_balance;\r\n        }\r\n\r\n        freeStorage(value);\r\n\r\n        s_balances[msg.sender] = from_balance - value;\r\n\r\n        return value;\r\n    }\r\n\r\n    // Frees `value` sub-tokens owned by address `from`. Requires that `msg.sender`\r\n    // has been approved by `from`.\r\n    function freeFrom(address from, uint256 value) public returns (bool success) {\r\n        address spender = msg.sender;\r\n        uint256 from_balance = s_balances[from];\r\n        if (value > from_balance) {\r\n            return false;\r\n        }\r\n\r\n        mapping(address => uint256) storage from_allowances = s_allowances[from];\r\n        uint256 spender_allowance = from_allowances[spender];\r\n        if (value > spender_allowance) {\r\n            return false;\r\n        }\r\n\r\n        freeStorage(value);\r\n\r\n        s_balances[from] = from_balance - value;\r\n        from_allowances[spender] = spender_allowance - value;\r\n\r\n        return true;\r\n    }\r\n\r\n    // Frees up to `value` sub-tokens owned by address `from`. Returns how many tokens were freed.\r\n    // Otherwise, identical to `freeFrom`.\r\n    function freeFromUpTo(address from, uint256 value) public returns (uint256 freed) {\r\n        address spender = msg.sender;\r\n        uint256 from_balance = s_balances[from];\r\n        if (value > from_balance) {\r\n            value = from_balance;\r\n        }\r\n\r\n        mapping(address => uint256) storage from_allowances = s_allowances[from];\r\n        uint256 spender_allowance = from_allowances[spender];\r\n        if (value > spender_allowance) {\r\n            value = spender_allowance;\r\n        }\r\n\r\n        freeStorage(value);\r\n\r\n        s_balances[from] = from_balance - value;\r\n        from_allowances[spender] = spender_allowance - value;\r\n\r\n        return value;\r\n    }\r\n}\r\n",
  "sourcePath": "C:/Users/khera/Documents/GitHub/GasSwapTokens/contracts/existing_gas_tokens/GST/GasToken1.sol",
  "compiler": {
    "name": "solc",
    "version": "0.8.4+commit.c7e474f2.Emscripten.clang"
  },
  "schemaVersion": "3.3.4",
  "updatedAt": "2021-05-08T14:10:58.131Z",
  "devdoc": {
    "kind": "dev",
    "methods": {},
    "version": 1
  },
  "userdoc": {
    "kind": "user",
    "methods": {},
    "version": 1
  }
}