{
  "contractName": "GSVECore",
  "abi": [
    {
      "inputs": [
        {
          "internalType": "address",
          "name": "_tokenAddress",
          "type": "address"
        },
        {
          "internalType": "address",
          "name": "_vaultAddress",
          "type": "address"
        },
        {
          "internalType": "address",
          "name": "wchi",
          "type": "address"
        },
        {
          "internalType": "address",
          "name": "wgst2",
          "type": "address"
        },
        {
          "internalType": "address",
          "name": "wgst1",
          "type": "address"
        }
      ],
      "stateMutability": "nonpayable",
      "type": "constructor"
    },
    {
      "anonymous": false,
      "inputs": [
        {
          "indexed": true,
          "internalType": "address",
          "name": "_from",
          "type": "address"
        },
        {
          "indexed": true,
          "internalType": "address",
          "name": "_token",
          "type": "address"
        },
        {
          "indexed": false,
          "internalType": "uint256",
          "name": "_value",
          "type": "uint256"
        }
      ],
      "name": "Claimed",
      "type": "event"
    },
    {
      "anonymous": false,
      "inputs": [
        {
          "indexed": true,
          "internalType": "address",
          "name": "previousOwner",
          "type": "address"
        },
        {
          "indexed": true,
          "internalType": "address",
          "name": "newOwner",
          "type": "address"
        }
      ],
      "name": "OwnershipTransferred",
      "type": "event"
    },
    {
      "anonymous": false,
      "inputs": [
        {
          "indexed": true,
          "internalType": "address",
          "name": "_from",
          "type": "address"
        },
        {
          "indexed": false,
          "internalType": "uint256",
          "name": "_value",
          "type": "uint256"
        }
      ],
      "name": "Reward",
      "type": "event"
    },
    {
      "anonymous": false,
      "inputs": [
        {
          "indexed": true,
          "internalType": "address",
          "name": "_from",
          "type": "address"
        },
        {
          "indexed": false,
          "internalType": "uint256",
          "name": "_value",
          "type": "uint256"
        }
      ],
      "name": "Staked",
      "type": "event"
    },
    {
      "anonymous": false,
      "inputs": [
        {
          "indexed": false,
          "internalType": "uint256",
          "name": "_tier",
          "type": "uint256"
        },
        {
          "indexed": false,
          "internalType": "uint256",
          "name": "_value",
          "type": "uint256"
        }
      ],
      "name": "TierUpdate",
      "type": "event"
    },
    {
      "anonymous": false,
      "inputs": [
        {
          "indexed": true,
          "internalType": "address",
          "name": "_from",
          "type": "address"
        },
        {
          "indexed": false,
          "internalType": "uint256",
          "name": "_value",
          "type": "uint256"
        }
      ],
      "name": "Unstaked",
      "type": "event"
    },
    {
      "anonymous": false,
      "inputs": [
        {
          "indexed": false,
          "internalType": "bytes32",
          "name": "_type",
          "type": "bytes32"
        },
        {
          "indexed": false,
          "internalType": "uint256",
          "name": "_value",
          "type": "uint256"
        }
      ],
      "name": "protocolUpdated",
      "type": "event"
    },
    {
      "inputs": [],
      "name": "owner",
      "outputs": [
        {
          "internalType": "address",
          "name": "",
          "type": "address"
        }
      ],
      "stateMutability": "view",
      "type": "function",
      "constant": true
    },
    {
      "inputs": [],
      "name": "renounceOwnership",
      "outputs": [],
      "stateMutability": "nonpayable",
      "type": "function"
    },
    {
      "inputs": [
        {
          "internalType": "address",
          "name": "newOwner",
          "type": "address"
        }
      ],
      "name": "transferOwnership",
      "outputs": [],
      "stateMutability": "nonpayable",
      "type": "function"
    },
    {
      "inputs": [],
      "name": "enableRewards",
      "outputs": [],
      "stateMutability": "nonpayable",
      "type": "function"
    },
    {
      "inputs": [],
      "name": "disableRewards",
      "outputs": [],
      "stateMutability": "nonpayable",
      "type": "function"
    },
    {
      "inputs": [
        {
          "internalType": "uint256",
          "name": "tier",
          "type": "uint256"
        },
        {
          "internalType": "uint256",
          "name": "value",
          "type": "uint256"
        }
      ],
      "name": "updateTier",
      "outputs": [],
      "stateMutability": "nonpayable",
      "type": "function"
    },
    {
      "inputs": [
        {
          "internalType": "uint256",
          "name": "value",
          "type": "uint256"
        }
      ],
      "name": "updateBurnSaveFee",
      "outputs": [],
      "stateMutability": "nonpayable",
      "type": "function"
    },
    {
      "inputs": [
        {
          "internalType": "uint256",
          "name": "value",
          "type": "uint256"
        }
      ],
      "name": "updateBurnClaimFee",
      "outputs": [],
      "stateMutability": "nonpayable",
      "type": "function"
    },
    {
      "inputs": [
        {
          "internalType": "uint256",
          "name": "value",
          "type": "uint256"
        }
      ],
      "name": "updateMintingReward",
      "outputs": [],
      "stateMutability": "nonpayable",
      "type": "function"
    },
    {
      "inputs": [
        {
          "internalType": "address",
          "name": "ownedContract",
          "type": "address"
        },
        {
          "internalType": "address",
          "name": "newOwner",
          "type": "address"
        }
      ],
      "name": "transferOwnershipOfSubcontract",
      "outputs": [],
      "stateMutability": "nonpayable",
      "type": "function"
    },
    {
      "inputs": [
        {
          "internalType": "uint256",
          "name": "value",
          "type": "uint256"
        }
      ],
      "name": "stake",
      "outputs": [],
      "stateMutability": "nonpayable",
      "type": "function"
    },
    {
      "inputs": [],
      "name": "unstake",
      "outputs": [],
      "stateMutability": "nonpayable",
      "type": "function"
    },
    {
      "inputs": [
        {
          "internalType": "address",
          "name": "rewardedAddress",
          "type": "address"
        }
      ],
      "name": "calculateStakeReward",
      "outputs": [
        {
          "internalType": "uint256",
          "name": "",
          "type": "uint256"
        }
      ],
      "stateMutability": "view",
      "type": "function",
      "constant": true
    },
    {
      "inputs": [],
      "name": "collectReward",
      "outputs": [],
      "stateMutability": "nonpayable",
      "type": "function"
    },
    {
      "inputs": [
        {
          "internalType": "address",
          "name": "gasTokenAddress",
          "type": "address"
        },
        {
          "internalType": "uint256",
          "name": "value",
          "type": "uint256"
        }
      ],
      "name": "burnDiscountedMinting",
      "outputs": [],
      "stateMutability": "nonpayable",
      "type": "function"
    },
    {
      "inputs": [
        {
          "internalType": "address",
          "name": "gasTokenAddress",
          "type": "address"
        },
        {
          "internalType": "uint256",
          "name": "value",
          "type": "uint256"
        }
      ],
      "name": "discountedMinting",
      "outputs": [],
      "stateMutability": "nonpayable",
      "type": "function"
    },
    {
      "inputs": [
        {
          "internalType": "address",
          "name": "gasTokenAddress",
          "type": "address"
        },
        {
          "internalType": "uint256",
          "name": "value",
          "type": "uint256"
        }
      ],
      "name": "rewardedMinting",
      "outputs": [],
      "stateMutability": "nonpayable",
      "type": "function"
    },
    {
      "inputs": [
        {
          "internalType": "address",
          "name": "gasTokenAddress",
          "type": "address"
        },
        {
          "internalType": "uint256",
          "name": "value",
          "type": "uint256"
        }
      ],
      "name": "mintGasToken",
      "outputs": [],
      "stateMutability": "nonpayable",
      "type": "function"
    },
    {
      "inputs": [
        {
          "internalType": "address",
          "name": "gasTokenAddress",
          "type": "address"
        },
        {
          "internalType": "uint256",
          "name": "value",
          "type": "uint256"
        }
      ],
      "name": "claimToken",
      "outputs": [],
      "stateMutability": "nonpayable",
      "type": "function"
    },
    {
      "inputs": [
        {
          "internalType": "address",
          "name": "gasToken",
          "type": "address"
        },
        {
          "internalType": "uint256",
          "name": "mintType",
          "type": "uint256"
        },
        {
          "internalType": "bool",
          "name": "isClaimable",
          "type": "bool"
        }
      ],
      "name": "addGasToken",
      "outputs": [],
      "stateMutability": "nonpayable",
      "type": "function"
    },
    {
      "inputs": [
        {
          "internalType": "address",
          "name": "gasToken",
          "type": "address"
        }
      ],
      "name": "claimable",
      "outputs": [
        {
          "internalType": "bool",
          "name": "",
          "type": "bool"
        }
      ],
      "stateMutability": "view",
      "type": "function",
      "constant": true
    },
    {
      "inputs": [
        {
          "internalType": "address",
          "name": "gasToken",
          "type": "address"
        }
      ],
      "name": "mintingType",
      "outputs": [
        {
          "internalType": "uint256",
          "name": "",
          "type": "uint256"
        }
      ],
      "stateMutability": "view",
      "type": "function",
      "constant": true
    },
    {
      "inputs": [],
      "name": "totalStaked",
      "outputs": [
        {
          "internalType": "uint256",
          "name": "",
          "type": "uint256"
        }
      ],
      "stateMutability": "view",
      "type": "function",
      "constant": true
    },
    {
      "inputs": [
        {
          "internalType": "address",
          "name": "user",
          "type": "address"
        }
      ],
      "name": "userStakeSize",
      "outputs": [
        {
          "internalType": "uint256",
          "name": "",
          "type": "uint256"
        }
      ],
      "stateMutability": "view",
      "type": "function",
      "constant": true
    },
    {
      "inputs": [],
      "name": "totalRewards",
      "outputs": [
        {
          "internalType": "uint256",
          "name": "",
          "type": "uint256"
        }
      ],
      "stateMutability": "view",
      "type": "function",
      "constant": true
    },
    {
      "inputs": [
        {
          "internalType": "address",
          "name": "user",
          "type": "address"
        }
      ],
      "name": "totalRewardUser",
      "outputs": [
        {
          "internalType": "uint256",
          "name": "",
          "type": "uint256"
        }
      ],
      "stateMutability": "view",
      "type": "function",
      "constant": true
    },
    {
      "inputs": [
        {
          "internalType": "uint256",
          "name": "tier",
          "type": "uint256"
        }
      ],
      "name": "getTierThreshold",
      "outputs": [
        {
          "internalType": "uint256",
          "name": "",
          "type": "uint256"
        }
      ],
      "stateMutability": "view",
      "type": "function",
      "constant": true
    },
    {
      "inputs": [],
      "name": "getRewardEnableTime",
      "outputs": [
        {
          "internalType": "uint256",
          "name": "",
          "type": "uint256"
        }
      ],
      "stateMutability": "view",
      "type": "function",
      "constant": true
    },
    {
      "inputs": [],
      "name": "getRewardEnabled",
      "outputs": [
        {
          "internalType": "bool",
          "name": "",
          "type": "bool"
        }
      ],
      "stateMutability": "view",
      "type": "function",
      "constant": true
    },
    {
      "inputs": [],
      "name": "getBurnToSaveFee",
      "outputs": [
        {
          "internalType": "uint256",
          "name": "",
          "type": "uint256"
        }
      ],
      "stateMutability": "view",
      "type": "function",
      "constant": true
    },
    {
      "inputs": [],
      "name": "getBurnToClaimGasTokens",
      "outputs": [
        {
          "internalType": "uint256",
          "name": "",
          "type": "uint256"
        }
      ],
      "stateMutability": "view",
      "type": "function",
      "constant": true
    },
    {
      "inputs": [],
      "name": "getMintingReward",
      "outputs": [
        {
          "internalType": "uint256",
          "name": "",
          "type": "uint256"
        }
      ],
      "stateMutability": "view",
      "type": "function",
      "constant": true
    },
    {
      "inputs": [
        {
          "internalType": "address",
          "name": "staker",
          "type": "address"
        }
      ],
      "name": "getStakeTimes",
      "outputs": [
        {
          "internalType": "uint256",
          "name": "",
          "type": "uint256"
        }
      ],
      "stateMutability": "view",
      "type": "function",
      "constant": true
    },
    {
      "inputs": [
        {
          "internalType": "address",
          "name": "staker",
          "type": "address"
        }
      ],
      "name": "getClaimTimes",
      "outputs": [
        {
          "internalType": "uint256",
          "name": "",
          "type": "uint256"
        }
      ],
      "stateMutability": "view",
      "type": "function",
      "constant": true
    }
  ],
  "bytecode": "0x6080604052600d805460ff191690556703782dace9d90000600e5567016345785d8a0000600f556706f05b59d3b200006010553480156200003f57600080fd5b50604051620021c4380380620021c48339810160408190526200006291620002a9565b600080546001600160a01b031916339081178255604051909182917f8be0079c531659141344cd1fd0a4f28419497f9722a3daafe3b4186f6b6457e0908290a3506001808055600280546001600160a01b03199081166001600160a01b03988916908117835560038054909216978916979097179055680d8d726b7177a800007f72c6bfb7988af3a1efa6568f02a999bc52252641c659d85961ca3d372b57d5cf55683635c9adc5dea000007fa50eece07c7db1631545c0069bd8f5f54d5935e215d59097edf258a44ba91634556000958652600560208181526040808920805460ff199081169091557f4aa4906c31c69f8af62a09032b118a9fa7562fb5799b0be1eb866f829618e86b80548216871790557f5b0c76935bfcc5310ff4a90dbcd68d58ae40065683e7c0fb55827a8027e7fa778690557f54404bbc9d7f7caf89e37f70ab7f54253d69fdd4a3b4b2b38e016fb38ed0a08780548216871790557fd04f65de646a87860229342cfac2a634cd1b1b9306644e0cd7a0e6c8aa42c61b8690557fdc052f54f450c193e668efdb58a6bdf481c3ec59effdc01fdc7a399a8365ff7d80548216871790557fce70f6b13d8723ab6b83eecebd5deeaedecae2df0b8ade9982bceb57ecf818f8869055978a16895280892080548916861790556004808352818a20859055968a16895282825280892080548916861790558682528089208490559490981687528752828620805490951690911790935593529190205562000318565b80516001600160a01b0381168114620002a457600080fd5b919050565b600080600080600060a08688031215620002c1578081fd5b620002cc866200028c565b9450620002dc602087016200028c565b9350620002ec604087016200028c565b9250620002fc606087016200028c565b91506200030c608087016200028c565b90509295509295909350565b611e9c80620003286000396000f3fe608060405234801561001057600080fd5b50600436106102065760003560e01c8063817b1cd21161011a578063bc178628116100ad578063def6a7f21161007c578063def6a7f214610488578063eb0c71f61461049b578063eb37f094146104ae578063f2fde38b146104b6578063f4426766146104c957600080fd5b8063bc17862814610424578063ca459eb51461042c578063d59684ab14610455578063de8f4c491461046857600080fd5b8063a694fc3a116100e9578063a694fc3a146103c2578063a99ba2b5146103d5578063addc5db0146103e8578063b986faff1461041157600080fd5b8063817b1cd214610384578063829f08741461038c5780638da5cb5b1461039f5780639d23ed6a146103ba57600080fd5b80634d259f4e1161019d5780636c7bdfea1161016c5780636c7bdfea14610322578063715018a61461032d57806372ed601e146103355780637ca435a01461035e5780637ef5c1851461037157600080fd5b80634d259f4e146102ec57806350fde25d146102ff57806354c5aee114610307578063684594931461030f57600080fd5b806329e7a696116101d957806329e7a6961461026c5780632def66201461027f578063402914f51461028757806349bf7a10146102c357600080fd5b80630851482f1461020b5780630e15561a146102475780630f1c1c641461024f5780631698755f14610257575b600080fd5b610234610219366004611b45565b6001600160a01b031660009081526009602052604090205490565b6040519081526020015b60405180910390f35b6102346104d1565b601054610234565b61026a610265366004611b91565b61055a565b005b61026a61027a366004611b91565b610920565b61026a610a7b565b6102b3610295366004611b45565b6001600160a01b031660009081526005602052604090205460ff1690565b604051901515815260200161023e565b6102346102d1366004611b45565b6001600160a01b03166000908152600a602052604090205490565b61026a6102fa366004611bba565b610bc0565b600f54610234565b61026a610c21565b61026a61031d366004611c15565b610dcf565b600d5460ff166102b3565b61026a610e58565b610234610343366004611b45565b6001600160a01b031660009081526007602052604090205490565b61026a61036c366004611c15565b610ecc565b61026a61037f366004611b91565b610f50565b600654610234565b61026a61039a366004611b91565b61109b565b6000546040516001600160a01b03909116815260200161023e565b600e54610234565b61026a6103d0366004611c15565b611237565b61026a6103e3366004611c15565b611386565b6102346103f6366004611b45565b6001600160a01b031660009081526008602052604090205490565b61026a61041f366004611b5f565b611407565b61026a611490565b61023461043a366004611b45565b6001600160a01b031660009081526004602052604090205490565b610234610463366004611b45565b611561565b610234610476366004611c15565b6000908152600b602052604090205490565b61026a610496366004611c45565b61161e565b61026a6104a9366004611b91565b6116f8565b600c54610234565b61026a6104c4366004611b45565b611708565b61026a6117f2565b6002546003546040516370a0823160e01b81526001600160a01b03918216600482015260009291909116906370a082319060240160206040518083038186803b15801561051d57600080fd5b505afa158015610531573d6000803e3d6000fd5b505050506040513d601f19601f820116820180604052508101906105559190611c2d565b905090565b600260015414156105865760405162461bcd60e51b815260040161057d90611d7a565b60405180910390fd5b60026001556001600160a01b03821660009081526005602052604090205460ff16806105f45760405162461bcd60e51b815260206004820152601960248201527f475356453a20546f6b656e206e6f7420636c61696d61626c6500000000000000604482015260640161057d565b7fa50eece07c7db1631545c0069bd8f5f54d5935e215d59097edf258a44ba916345433600090815260076020526040902054101561069a5760405162461bcd60e51b815260206004820152603760248201527f475356453a205573657220686173206e6f74207374616b656420656e6f75676860448201527f20746f20636c61696d2066726f6d2074686520706f6f6c000000000000000000606482015260840161057d565b336000908152600a6020526040902054615460906106b99042906118b7565b1161072c5760405162461bcd60e51b815260206004820152603760248201527f475356453a20557365722063616e6e6f7420636c61696d20746865206761732060448201527f746f6b656e7320747769636520696e203620686f757273000000000000000000606482015260840161057d565b6003546040516370a0823160e01b81526001600160a01b0391821660048201528391600091908616906370a082319060240160206040518083038186803b15801561077657600080fd5b505afa15801561078a573d6000803e3d6000fd5b505050506040513d601f19601f820116820180604052508101906107ae9190611c2d565b90506107c46107be6005836118ca565b836118ca565b9150816107d357505050610918565b600254600f546001600160a01b03909116906379cc67909033906107f79086611de9565b6040516001600160e01b031960e085901b1681526001600160a01b0390921660048301526024820152604401600060405180830381600087803b15801561083d57600080fd5b505af1158015610851573d6000803e3d6000fd5b5050600354604051637aa9bf6f60e11b81526001600160a01b03909116925063f5537ede915061088990889033908790600401611c66565b600060405180830381600087803b1580156108a357600080fd5b505af11580156108b7573d6000803e3d6000fd5b5050336000818152600a602052604090819020429055516001600160a01b03891693509091507ff7a40077ff7a04c7e61f6f26fb13774259ddf1b6bce9ecf26a8276cdd39926839061090c9086815260200190565b60405180910390a35050505b505060018055565b600260015414156109435760405162461bcd60e51b815260040161057d90611d7a565b60026001556001600160a01b0382166000908152600460205260409020548061097e5760405162461bcd60e51b815260040161057d90611d0e565b600254600e5460405163079cc67960e41b815233600482015260248101919091526001600160a01b03909116906379cc679090604401600060405180830381600087803b1580156109ce57600080fd5b505af11580156109e2573d6000803e3d6000fd5b505050508060011415610a00576109fb838360006118e0565b610a72565b8060021415610a7257604051633f3900a560e11b815260048101839052600060248201523360448201526001600160a01b03841690637e72014a906064015b600060405180830381600087803b158015610a5957600080fd5b505af1158015610a6d573d6000803e3d6000fd5b505050505b50506001805550565b60026001541415610a9e5760405162461bcd60e51b815260040161057d90611d7a565b60026001553360009081526007602052604090205480610abe5750610bba565b33600090815260076020908152604080832083905560088252808320839055600a909152812055600654610af290826118b7565b60065560025460405163a9059cbb60e01b8152336004820152602481018390526001600160a01b039091169063a9059cbb90604401602060405180830381600087803b158015610b4157600080fd5b505af1158015610b55573d6000803e3d6000fd5b505050506040513d601f19601f82011682018060405250810190610b799190611bf9565b610b8257600080fd5b60405181815233907f0f5bb82176feb1b5e747e28471aa92156a04d9f3ab9f45f28e2d704232b93f75906020015b60405180910390a2505b60018055565b6000546001600160a01b03163314610bea5760405162461bcd60e51b815260040161057d90611d45565b6001600160a01b03929092166000908152600460209081526040808320939093556005905220805460ff1916911515919091179055565b60026001541415610c445760405162461bcd60e51b815260040161057d90611d7a565b60026001556000610c536104d1565b905060008111610c755760405162461bcd60e51b815260040161057d90611c8a565b600d5460ff16610cc75760405162461bcd60e51b815260206004820152601d60248201527f475356453a205265776172647320617265206e6f7420656e61626c6564000000604482015260640161057d565b6000610cd233611561565b905080610ce0575050610bba565b610cea82826118ca565b3360009081526008602090815260408083204290556009909152902054909150610d15908290611db1565b3360008181526009602052604090819020929092556003546002549251637aa9bf6f60e11b81526001600160a01b039182169363f5537ede93610d6093909116918690600401611c66565b600060405180830381600087803b158015610d7a57600080fd5b505af1158015610d8e573d6000803e3d6000fd5b50506040518381523392507f619caafabdd75649b302ba8419e48cccf64f37f1983ac4727cfb38b57703ffc9915060200160405180910390a2505060018055565b6000546001600160a01b03163314610df95760405162461bcd60e51b815260040161057d90611d45565b67016345785d8a00008111610e205760405162461bcd60e51b815260040161057d90611cd7565b600f8190556040805164636c61696d60d81b815260208101839052600080516020611e4783398151915291015b60405180910390a150565b6000546001600160a01b03163314610e825760405162461bcd60e51b815260040161057d90611d45565b600080546040516001600160a01b03909116907f8be0079c531659141344cd1fd0a4f28419497f9722a3daafe3b4186f6b6457e0908390a3600080546001600160a01b0319169055565b6000546001600160a01b03163314610ef65760405162461bcd60e51b815260040161057d90611d45565b67016345785d8a00008111610f1d5760405162461bcd60e51b815260040161057d90611cd7565b601081905560408051666d696e74696e6760c81b815260208101839052600080516020611e478339815191529101610e4d565b60026001541415610f735760405162461bcd60e51b815260040161057d90611d7a565b60026001556001600160a01b03821660009081526004602052604090205480610fae5760405162461bcd60e51b815260040161057d90611d0e565b7f72c6bfb7988af3a1efa6568f02a999bc52252641c659d85961ca3d372b57d5cf543360009081526007602052604090205410156110435760405162461bcd60e51b815260206004820152602c60248201527f475356453a205573657220686173206e6f74207374616b656420656e6f75676860448201526b081d1bc8191a5cd8dbdd5b9d60a21b606482015260840161057d565b8060011415611058576109fb838360016118e0565b8060021415610a7257604051633f3900a560e11b815260048101839052600160248201523360448201526001600160a01b03841690637e72014a90606401610a3f565b600260015414156110be5760405162461bcd60e51b815260040161057d90611d7a565b60026001556001600160a01b038216600090815260046020526040902054806110f95760405162461bcd60e51b815260040161057d90611d0e565b60006111036104d1565b116111205760405162461bcd60e51b815260040161057d90611c8a565b600d5460ff166111725760405162461bcd60e51b815260206004820152601d60248201527f475356453a205265776172647320617265206e6f7420656e61626c6564000000604482015260640161057d565b806001141561118c57611187838360026118e0565b6111fd565b80600214156111fd57604051633f3900a560e11b815260048101839052600260248201523360448201526001600160a01b03841690637e72014a90606401600060405180830381600087803b1580156111e457600080fd5b505af11580156111f8573d6000803e3d6000fd5b505050505b600354600254601054604051637aa9bf6f60e11b81526001600160a01b039384169363f5537ede93610a3f93911691339190600401611c66565b6002600154141561125a5760405162461bcd60e51b815260040161057d90611d7a565b6002600155806112695761137f565b6002546040516323b872dd60e01b81526001600160a01b03909116906323b872dd9061129d90339030908690600401611c66565b602060405180830381600087803b1580156112b757600080fd5b505af11580156112cb573d6000803e3d6000fd5b505050506040513d601f19601f820116820180604052508101906112ef9190611bf9565b6112f857600080fd5b336000908152600760205260409020546113129082611af5565b33600090815260076020908152604080832093909355600881528282204290819055600a9091529190205560065461134a9082611af5565b60065560405181815233907f9e71bc8eea02a63969f509818f2dafb9254532904319f9dbda79b67bd34a5f3d90602001610bb0565b5060018055565b6000546001600160a01b031633146113b05760405162461bcd60e51b815260040161057d90611d45565b67016345785d8a000081116113d75760405162461bcd60e51b815260040161057d90611cd7565b600e8190556040805163313ab93760e11b815260208101839052600080516020611e478339815191529101610e4d565b6000546001600160a01b031633146114315760405162461bcd60e51b815260040161057d90611d45565b60405163f2fde38b60e01b81526001600160a01b03828116600483015283169063f2fde38b90602401600060405180830381600087803b15801561147457600080fd5b505af1158015611488573d6000803e3d6000fd5b505050505050565b6000546001600160a01b031633146114ba5760405162461bcd60e51b815260040161057d90611d45565b600d5460ff166115165760405162461bcd60e51b815260206004820152602160248201527f475356453a2052657761726473206e6f7420616c726561647920656e61626c656044820152601960fa1b606482015260840161057d565b600d805460ff191690556000600c819055604080516b656e61626c6555706461746560a01b81526020810192909252600080516020611e4783398151915291015b60405180910390a1565b6001600160a01b03811660009081526008602052604081205461158657506000919050565b600d5460ff1661159857506000919050565b6001600160a01b038216600090815260086020526040812054600c546115be9190611b01565b905060006115cc42836118b7565b905060006115dc82615460611b11565b6001600160a01b0386166000908152600760205260408120549192509061160590610fa0611b11565b905060006116138383611b1d565b979650505050505050565b6000546001600160a01b031633146116485760405162461bcd60e51b815260040161057d90611d45565b670de0b6b3a764000081116116a95760405162461bcd60e51b815260206004820152602160248201527f475356453a20546965722076616c7565207365656d7320746f206265206c6f776044820152601760f91b606482015260840161057d565b6000828152600b602090815260409182902083905581518481529081018390527ff3ad0462ccee7d6cad90ff6ced5b48c54732d70f9352c1003fbc77e76512e79c910160405180910390a15050565b611704828260026118e0565b5050565b6000546001600160a01b031633146117325760405162461bcd60e51b815260040161057d90611d45565b6001600160a01b0381166117975760405162461bcd60e51b815260206004820152602660248201527f4f776e61626c653a206e6577206f776e657220697320746865207a65726f206160448201526564647265737360d01b606482015260840161057d565b600080546040516001600160a01b03808516939216917f8be0079c531659141344cd1fd0a4f28419497f9722a3daafe3b4186f6b6457e091a3600080546001600160a01b0319166001600160a01b0392909216919091179055565b6000546001600160a01b0316331461181c5760405162461bcd60e51b815260040161057d90611d45565b600d5460ff161561186f5760405162461bcd60e51b815260206004820152601d60248201527f475356453a205265776172647320616c726561647920656e61626c6564000000604482015260640161057d565b600d805460ff1916600190811790915542600c55604080516b656e61626c6555706461746560a01b81526020810192909252600080516020611e478339815191529101611557565b60006118c38284611e08565b9392505050565b60008183106118d957816118c3565b5090919050565b6001600160a01b038316600090815260046020526040902054600181146119195760405162461bcd60e51b815260040161057d90611d0e565b600061192584846118b7565b9050600081116119875760405162461bcd60e51b815260206004820152602760248201527f475356453a205573657220617474656d7074656420746f206d696e7420746f6f604482015266206c6974746c6560c81b606482015260840161057d565b60405163140e25ad60e31b8152600481018590526001600160a01b0386169063a0712d6890602401600060405180830381600087803b1580156119c957600080fd5b505af11580156119dd573d6000803e3d6000fd5b505060405163a9059cbb60e01b8152336004820152602481018490526001600160a01b038816925063a9059cbb9150604401602060405180830381600087803b158015611a2957600080fd5b505af1158015611a3d573d6000803e3d6000fd5b505050506040513d601f19601f82011682018060405250810190611a619190611bf9565b508215611aee5760035460405163a9059cbb60e01b81526001600160a01b039182166004820152602481018590529086169063a9059cbb90604401602060405180830381600087803b158015611ab657600080fd5b505af1158015611aca573d6000803e3d6000fd5b505050506040513d601f19601f820116820180604052508101906114889190611bf9565b5050505050565b60006118c38284611db1565b6000818310156118d957816118c3565b60006118c38284611dc9565b60006118c38284611de9565b80356001600160a01b0381168114611b4057600080fd5b919050565b600060208284031215611b56578081fd5b6118c382611b29565b60008060408385031215611b71578081fd5b611b7a83611b29565b9150611b8860208401611b29565b90509250929050565b60008060408385031215611ba3578182fd5b611bac83611b29565b946020939093013593505050565b600080600060608486031215611bce578081fd5b611bd784611b29565b9250602084013591506040840135611bee81611e35565b809150509250925092565b600060208284031215611c0a578081fd5b81516118c381611e35565b600060208284031215611c26578081fd5b5035919050565b600060208284031215611c3e578081fd5b5051919050565b60008060408385031215611c57578182fd5b50508035926020909101359150565b6001600160a01b039384168152919092166020820152604081019190915260600190565b6020808252602d908201527f475356453a20636f6e7472616374206861732072616e206f7574206f6620726560408201526c776172647320746f206769766560981b606082015260800190565b6020808252601c908201527f475356453a2056616c7565207365656d7320746f206265206c6f772e00000000604082015260600190565b60208082526017908201527f475356453a20556e737570706f7274656420546f6b656e000000000000000000604082015260600190565b6020808252818101527f4f776e61626c653a2063616c6c6572206973206e6f7420746865206f776e6572604082015260600190565b6020808252601f908201527f5265656e7472616e637947756172643a207265656e7472616e742063616c6c00604082015260600190565b60008219821115611dc457611dc4611e1f565b500190565b600082611de457634e487b7160e01b81526012600452602481fd5b500490565b6000816000190483118215151615611e0357611e03611e1f565b500290565b600082821015611e1a57611e1a611e1f565b500390565b634e487b7160e01b600052601160045260246000fd5b8015158114611e4357600080fd5b5056fe381876cbb6b6d7657fa424d2f35cf9e32fa292f5f4597477bf57edac1ba0f867a2646970667358221220e2df99bb788a8fd5e3339fa21258ed2a02bac4ef3c2447b9b069cb36037f38e764736f6c63430008040033",
  "immutableReferences": {},
  "source": "// SPDX-License-Identifier: MIT\r\npragma solidity ^0.8.0;\r\n\r\nimport \"@openzeppelin/contracts/utils/math/Math.sol\";\r\nimport \"@openzeppelin/contracts/utils/math/SafeMath.sol\";\r\nimport \"@openzeppelin/contracts/token/ERC20/IERC20.sol\";\r\nimport \"@openzeppelin/contracts/access/Ownable.sol\";\r\nimport \"@openzeppelin/contracts/security/ReentrancyGuard.sol\";\r\n\r\n/**\r\n * @dev Interface of the wrapped Gas Token Type\r\n */\r\ninterface IGasTokenMint {\r\n    function mint(uint256 value) external; \r\n    function discountedMint(uint256 value, uint256 discountedFee, address recipient) external; \r\n}\r\n\r\n\r\n/**\r\n* @dev Interface for interacting with protocol token\r\n*/\r\ninterface IGSVEProtocolToken {\r\n    function burn(uint256 amount) external ;\r\n    function burnFrom(address account, uint256 amount) external;\r\n}\r\n\r\n/**\r\n* @dev Interface for interacting with the gas vault\r\n*/\r\ninterface IGSVEVault {\r\n    function transferToken(address token, address recipient, uint256 amount) external;\r\n}\r\n\r\ncontract GSVECore is Ownable, ReentrancyGuard{\r\n    using SafeMath for uint256;\r\n    \r\n    //address of our protocol utility token\r\n    address private GSVEToken;\r\n    address private GSVEVault;\r\n\r\n    //system is in place to prevent reentrancy from untrusted tokens\r\n    mapping(address => uint256) private _mintingType;\r\n    mapping(address => bool) private _claimable;\r\n\r\n    uint256 private _totalStaked;\r\n\r\n    //staking  \r\n    mapping(address => uint256) private userStakes;\r\n    mapping(address => uint256) private userStakeTimes;\r\n    mapping(address => uint256) private userTotalRewards;\r\n    mapping(address => uint256) private userClaimTimes;\r\n\r\n    //protocol values\r\n    mapping(uint256=>uint256) private tierThreshholds;\r\n    uint256 rewardEnableTime;\r\n\r\n    bool rewardsEnabled = false;\r\n    uint256 burnToSaveFee = 25*10**16;\r\n    uint256 burnToClaimGasTokens = 1*10**17;\r\n    uint256 mintingReward = 5*10**17;\r\n\r\n\r\n    /**\r\n     * @dev A function that enables protocol rewards\r\n     */\r\n    function enableRewards() public onlyOwner {\r\n        require(rewardsEnabled == false, \"GSVE: Rewards already enabled\");\r\n        rewardsEnabled = true;\r\n        rewardEnableTime = block.timestamp;\r\n        emit protocolUpdated(0x656e61626c655570646174650000000000000000000000000000000000000000, 1);\r\n    }\r\n\r\n    /**\r\n    * @dev A function that disables rewards\r\n    */\r\n    function disableRewards() public onlyOwner {\r\n        require(rewardsEnabled, \"GSVE: Rewards not already enabled\");\r\n        rewardsEnabled = false;\r\n        rewardEnableTime = 0;\r\n        emit protocolUpdated(0x656e61626c655570646174650000000000000000000000000000000000000000, 0);\r\n    }\r\n\r\n    /**\r\n     * @dev A function that allows us to update the tier threshold\r\n     */\r\n    function updateTier(uint256 tier, uint256 value) public onlyOwner {\r\n        require(value > 10**18, \"GSVE: Tier value seems to be low.\");\r\n        tierThreshholds[tier] = value;\r\n        emit TierUpdate(tier, value);\r\n    }\r\n\r\n    /**\r\n     * @dev A function that allows us to update the burn gsve:save fee ratio\r\n     */\r\n    function updateBurnSaveFee(uint256 value) public onlyOwner{\r\n        require(value > 10**17, \"GSVE: Value seems to be low.\");\r\n        burnToSaveFee = value;\r\n        emit protocolUpdated(0x6275726e00000000000000000000000000000000000000000000000000000000, value);\r\n    }\r\n\r\n    /**\r\n     * @dev A function that allows us to update the burn gsve:claim gastoken ratio\r\n     */\r\n    function updateBurnClaimFee(uint256 value) public onlyOwner{\r\n        require(value > 10**17, \"GSVE: Value seems to be low.\");\r\n        burnToClaimGasTokens= value;\r\n        emit protocolUpdated(0x636c61696d000000000000000000000000000000000000000000000000000000, value);\r\n    }\r\n\r\n    /**\r\n     * @dev A function that allows us to update the burn gsve:claim gastoken ratio\r\n     */\r\n    function updateMintingReward(uint256 value) public onlyOwner{\r\n        require(value > 10**17, \"GSVE: Value seems to be low.\");\r\n        mintingReward = value;\r\n        emit protocolUpdated(0x6d696e74696e6700000000000000000000000000000000000000000000000000, value);\r\n    }\r\n\r\n    /**\r\n     * @dev A function that allows us to reassign ownership of the contracts that this contract owns. \r\n     /* Enabling future smartcontract upgrades without the complexity of proxy/proxy upgrades.\r\n     */\r\n    function transferOwnershipOfSubcontract(address ownedContract, address newOwner) public onlyOwner{\r\n        Ownable(ownedContract).transferOwnership(newOwner);\r\n    }\r\n\r\n    /**\r\n     * @dev the constructor allows us to set the gsve token\r\n     * as the token we are using for staking and other protocol features\r\n     * also lets us set the vault address.\r\n     */\r\n    constructor(address _tokenAddress, address _vaultAddress, address wchi, address wgst2, address wgst1) {\r\n        GSVEToken = _tokenAddress;\r\n        GSVEVault = _vaultAddress;\r\n        tierThreshholds[1] = 250*(10**18);\r\n        tierThreshholds[2] = 1000*(10**18);\r\n        _claimable[_tokenAddress] = false;\r\n\r\n        _claimable[0x0000000000004946c0e9F43F4Dee607b0eF1fA1c] = true;\r\n        _mintingType[0x0000000000004946c0e9F43F4Dee607b0eF1fA1c] = 1;\r\n\r\n        _claimable[0x0000000000b3F879cb30FE243b4Dfee438691c04] = true;\r\n        _mintingType[0x0000000000b3F879cb30FE243b4Dfee438691c04] = 1;\r\n\r\n        _claimable[0x88d60255F917e3eb94eaE199d827DAd837fac4cB] = true;\r\n        _mintingType[0x88d60255F917e3eb94eaE199d827DAd837fac4cB] = 1;\r\n        \r\n\r\n        _claimable[wchi] = true;\r\n        _mintingType[wchi] = 2;\r\n\r\n        _claimable[wgst2] = true;\r\n        _mintingType[wgst2] = 2;\r\n\r\n        _claimable[wgst1] = true;\r\n        _mintingType[wgst1] = 2;\r\n    }\r\n\r\n    /**\r\n     * @dev A function that allows a user to stake tokens. \r\n     * If they have a rewards from a stake already, they must claim this first.\r\n     */\r\n    function stake(uint256 value) public nonReentrant() {\r\n\r\n        if (value == 0){\r\n            return;\r\n        }\r\n        require(IERC20(GSVEToken).transferFrom(msg.sender, address(this), value));\r\n        userStakes[msg.sender] = userStakes[msg.sender].add(value);\r\n        userStakeTimes[msg.sender] = block.timestamp;\r\n        userClaimTimes[msg.sender] = block.timestamp;\r\n        _totalStaked = _totalStaked.add(value);\r\n        emit Staked(msg.sender, value);\r\n    }\r\n\r\n    /**\r\n     * @dev A function that allows a user to fully unstake.\r\n     */\r\n    function unstake() public nonReentrant() {\r\n        uint256 stakeSize = userStakes[msg.sender];\r\n        if (stakeSize == 0){\r\n            return;\r\n        }\r\n        userStakes[msg.sender] = 0;\r\n        userStakeTimes[msg.sender] = 0;\r\n        userClaimTimes[msg.sender] = 0;\r\n        _totalStaked = _totalStaked.sub(stakeSize);\r\n        require(IERC20(GSVEToken).transfer(msg.sender, stakeSize));\r\n        emit Unstaked(msg.sender, stakeSize);\r\n    }\r\n\r\n    /**\r\n     * @dev A function that allows us to calculate the total rewards a user has not claimed yet.\r\n     */\r\n    function calculateStakeReward(address rewardedAddress) public view returns(uint256){\r\n        if(userStakeTimes[rewardedAddress] == 0){\r\n            return 0;\r\n        }\r\n\r\n        if(rewardsEnabled == false){\r\n            return 0;\r\n        }\r\n\r\n        uint256 initialTime = Math.max(userStakeTimes[rewardedAddress], rewardEnableTime);\r\n        uint256 timeDifference = block.timestamp.sub(initialTime);\r\n        uint256 rewardPeriod = timeDifference.div((60*60*6));\r\n        uint256 rewardPerPeriod = userStakes[rewardedAddress].div(4000);\r\n        uint256 reward = rewardPeriod.mul(rewardPerPeriod);\r\n\r\n        return reward;\r\n    }\r\n\r\n    /**\r\n     * @dev A function that allows a user to collect the stake reward entitled to them\r\n     * in the situation where the rewards pool does not have enough tokens\r\n     * then the user is given as much as they can be given.\r\n     */\r\n    function collectReward() public nonReentrant() {\r\n        uint256 remainingRewards = totalRewards();\r\n        require(remainingRewards > 0, \"GSVE: contract has ran out of rewards to give\");\r\n        require(rewardsEnabled, \"GSVE: Rewards are not enabled\");\r\n\r\n        uint256 reward = calculateStakeReward(msg.sender);\r\n        if(reward == 0){\r\n            return;\r\n        }\r\n\r\n        reward = Math.min(remainingRewards, reward);\r\n        userStakeTimes[msg.sender] = block.timestamp;\r\n        userTotalRewards[msg.sender] = userTotalRewards[msg.sender] + reward;\r\n        IGSVEVault(GSVEVault).transferToken(GSVEToken, msg.sender, reward);\r\n        emit Reward(msg.sender, reward);\r\n    }\r\n\r\n    /**\r\n     * @dev A function that allows a user to burn some GSVE to avoid paying the protocol mint/wrap fee.\r\n     */\r\n    function burnDiscountedMinting(address gasTokenAddress, uint256 value) public nonReentrant() {\r\n        uint256 mintType = _mintingType[gasTokenAddress];\r\n        require(mintType != 0, \"GSVE: Unsupported Token\");\r\n        IGSVEProtocolToken(GSVEToken).burnFrom(msg.sender, burnToSaveFee);\r\n\r\n        if(mintType == 1){\r\n            convenientMinting(gasTokenAddress, value, 0);\r\n        }\r\n        else if (mintType == 2){\r\n            IGasTokenMint(gasTokenAddress).discountedMint(value, 0, msg.sender);\r\n        }\r\n    }\r\n\r\n    /**\r\n     * @dev A function that allows a user to benefit from a lower protocol fee, based on the stake that they have.\r\n     */\r\n    function discountedMinting(address gasTokenAddress, uint256 value) public nonReentrant(){\r\n        uint256 mintType = _mintingType[gasTokenAddress];\r\n        require(mintType != 0, \"GSVE: Unsupported Token\");\r\n        require(userStakes[msg.sender] >= tierThreshholds[1] , \"GSVE: User has not staked enough to discount\");\r\n\r\n        if(mintType == 1){\r\n            convenientMinting(gasTokenAddress, value, 1);\r\n        }\r\n        else if (mintType == 2){\r\n            IGasTokenMint(gasTokenAddress).discountedMint(value, 1, msg.sender);\r\n        }\r\n    }\r\n    \r\n    /**\r\n     * @dev A function that allows a user to be rewarded tokens by minting or wrapping\r\n     * they pay full fees for this operation.\r\n     */\r\n    function rewardedMinting(address gasTokenAddress, uint256 value) public nonReentrant(){\r\n        uint256 mintType = _mintingType[gasTokenAddress];\r\n        require(mintType != 0, \"GSVE: Unsupported Token\");\r\n        require(totalRewards() > 0, \"GSVE: contract has ran out of rewards to give\");\r\n        require(rewardsEnabled, \"GSVE: Rewards are not enabled\");\r\n        if(mintType == 1){\r\n            convenientMinting(gasTokenAddress, value, 2);\r\n        }\r\n        else if (mintType == 2){\r\n            IGasTokenMint(gasTokenAddress).discountedMint(value, 2, msg.sender);\r\n        }\r\n\r\n        IGSVEVault(GSVEVault).transferToken(GSVEToken, msg.sender, mintingReward);\r\n    }\r\n\r\n    /**\r\n     * @dev A function that allows us to mint non-wrapped tokens from the convenience of this smart contract.\r\n     * taking a portion of portion of the minted tokens as payment for this convenience.\r\n     */\r\n    function convenientMinting(address gasTokenAddress, uint256 value, uint256 fee) internal {\r\n        uint256 mintType = _mintingType[gasTokenAddress];\r\n        require(mintType == 1, \"GSVE: Unsupported Token\");\r\n\r\n        uint256 userTokens = value.sub(fee);\r\n        require(userTokens > 0, \"GSVE: User attempted to mint too little\");\r\n        IGasTokenMint(gasTokenAddress).mint(value);\r\n        IERC20(gasTokenAddress).transfer(msg.sender, userTokens);\r\n        if(fee > 0){\r\n            IERC20(gasTokenAddress).transfer(GSVEVault, fee);\r\n        }\r\n    }\r\n\r\n    \r\n    /**\r\n     * @dev public entry to the convenient minting function\r\n     */\r\n    function mintGasToken(address gasTokenAddress, uint256 value) public {\r\n        convenientMinting(gasTokenAddress, value, 2);\r\n    }\r\n\r\n\r\n    /**\r\n     * @dev A function that allows a user to claim tokens from the pool\r\n     * The user burns 1 GSVE for each token they take.\r\n     * They are limited to one claim action every 6 hours, and can claim up to 5 tokens per claim.\r\n     */\r\n    function claimToken(address gasTokenAddress, uint256 value) public nonReentrant() {\r\n\r\n        bool isClaimable = _claimable[gasTokenAddress];\r\n        require(isClaimable, \"GSVE: Token not claimable\");\r\n        require(userStakes[msg.sender] >= tierThreshholds[2] , \"GSVE: User has not staked enough to claim from the pool\");\r\n        require(block.timestamp.sub(userClaimTimes[msg.sender]) > 60 * 60 * 6, \"GSVE: User cannot claim the gas tokens twice in 6 hours\");\r\n\r\n        uint256 tokensGiven = value;\r\n\r\n        uint256 tokensAvailableToClaim = IERC20(gasTokenAddress).balanceOf(GSVEVault);\r\n        tokensGiven = Math.min(Math.min(5, tokensAvailableToClaim), tokensGiven);\r\n\r\n        if(tokensGiven == 0){\r\n            return;\r\n        }\r\n\r\n        IGSVEProtocolToken(GSVEToken).burnFrom(msg.sender, tokensGiven * burnToClaimGasTokens);\r\n        IGSVEVault(GSVEVault).transferToken(gasTokenAddress, msg.sender, tokensGiven);\r\n        userClaimTimes[msg.sender] = block.timestamp;\r\n        emit Claimed(msg.sender, gasTokenAddress, tokensGiven);\r\n    }\r\n\r\n    /**\r\n     * @dev A function that allows us to enable gas tokens for use with this contract.\r\n     */\r\n    function addGasToken(address gasToken, uint256 mintType, bool isClaimable) public onlyOwner{\r\n        _mintingType[gasToken] = mintType;\r\n        _claimable[gasToken] = isClaimable;\r\n    }\r\n\r\n    /**\r\n     * @dev A function that allows us to easily check claim type of the token.\r\n     */\r\n    function claimable(address gasToken) public view returns (bool){\r\n        return _claimable[gasToken];\r\n    }\r\n\r\n    /**\r\n     * @dev A function that allows us to check the mint type of the token.\r\n     */\r\n    function mintingType(address gasToken) public view returns (uint256){\r\n        return _mintingType[gasToken];\r\n    }\r\n\r\n    /**\r\n     * @dev A function that allows us to see the total stake of everyone in the protocol.\r\n     */\r\n    function totalStaked() public view returns (uint256){\r\n        return _totalStaked;\r\n    }\r\n\r\n    /**\r\n     * @dev A function that allows us to see the stake size of a specific staker.\r\n     */\r\n    function userStakeSize(address user)  public view returns (uint256){\r\n        return userStakes[user]; \r\n    }\r\n\r\n    /**\r\n     * @dev A function that allows us to see how much rewards the vault has available right now.\r\n     */    \r\n     function totalRewards()  public view returns (uint256){\r\n        return IERC20(GSVEToken).balanceOf(GSVEVault); \r\n    }\r\n\r\n    /**\r\n     * @dev A function that allows us to see how much rewards a user has claimed\r\n     */\r\n    function totalRewardUser(address user)  public view returns (uint256){\r\n        return userTotalRewards[user]; \r\n    }\r\n\r\n    /**\r\n    * @dev A function that allows us to get a tier threshold\r\n    */\r\n    function getTierThreshold(uint256 tier)  public view returns (uint256){\r\n        return tierThreshholds[tier];\r\n    }\r\n\r\n    /**\r\n    * @dev A function that allows us to get the time rewards where enabled\r\n    */\r\n    function getRewardEnableTime()  public view returns (uint256){\r\n        return rewardEnableTime;\r\n    }\r\n\r\n    /**\r\n    * @dev A function that allows us to get the time rewards where enabled\r\n    */\r\n    function getRewardEnabled()  public view returns (bool){\r\n        return rewardsEnabled;\r\n    }\r\n\r\n    /**\r\n    * @dev A function that allows us to get the burnToSaveFee \r\n    */\r\n    function getBurnToSaveFee()  public view returns (uint256){\r\n        return burnToSaveFee;\r\n    }\r\n\r\n    /**\r\n    * @dev A function that allows us to get the burnToClaimGasTokens \r\n    */\r\n    function getBurnToClaimGasTokens()  public view returns (uint256){\r\n        return burnToClaimGasTokens;\r\n    }\r\n\r\n    /**\r\n    * @dev A function that allows us to get the burnToClaimGasTokens \r\n    */\r\n    function getMintingReward()  public view returns (uint256){\r\n        return mintingReward;\r\n    }\r\n\r\n    /**\r\n    * @dev A function that allows us to get the stake times\r\n    */\r\n    function getStakeTimes(address staker)  public view returns (uint256){\r\n        return userStakeTimes[staker];\r\n    }\r\n\r\n    /**\r\n    * @dev A function that allows us to get the claim times\r\n    */\r\n    function getClaimTimes(address staker)  public view returns (uint256){\r\n        return userClaimTimes[staker];\r\n    }\r\n    \r\n    event Claimed(address indexed _from, address indexed _token, uint256 _value);\r\n\r\n    event Reward(address indexed _from, uint256 _value);\r\n\r\n    event Staked(address indexed _from, uint256 _value);\r\n\r\n    event Unstaked(address indexed _from, uint256 _value);\r\n\r\n    event TierUpdate(uint256 _tier, uint256 _value);\r\n\r\n    event protocolUpdated(bytes32 _type, uint256 _value);\r\n}\r\n",
  "sourcePath": "C:/Users/khera/Documents/GitHub/GasSwapTokens/contracts/GSVECore.sol",
  "compiler": {
    "name": "solc",
    "version": "0.8.4+commit.c7e474f2.Emscripten.clang"
  },
  "schemaVersion": "3.3.4",
  "updatedAt": "2021-05-17T20:29:40.952Z",
  "networkType": "ethereum",
  "devdoc": {
    "kind": "dev",
    "methods": {
      "addGasToken(address,uint256,bool)": {
        "details": "A function that allows us to enable gas tokens for use with this contract."
      },
      "burnDiscountedMinting(address,uint256)": {
        "details": "A function that allows a user to burn some GSVE to avoid paying the protocol mint/wrap fee."
      },
      "calculateStakeReward(address)": {
        "details": "A function that allows us to calculate the total rewards a user has not claimed yet."
      },
      "claimToken(address,uint256)": {
        "details": "A function that allows a user to claim tokens from the pool The user burns 1 GSVE for each token they take. They are limited to one claim action every 6 hours, and can claim up to 5 tokens per claim."
      },
      "claimable(address)": {
        "details": "A function that allows us to easily check claim type of the token."
      },
      "collectReward()": {
        "details": "A function that allows a user to collect the stake reward entitled to them in the situation where the rewards pool does not have enough tokens then the user is given as much as they can be given."
      },
      "constructor": {
        "details": "the constructor allows us to set the gsve token as the token we are using for staking and other protocol features also lets us set the vault address."
      },
      "disableRewards()": {
        "details": "A function that disables rewards"
      },
      "discountedMinting(address,uint256)": {
        "details": "A function that allows a user to benefit from a lower protocol fee, based on the stake that they have."
      },
      "enableRewards()": {
        "details": "A function that enables protocol rewards"
      },
      "getBurnToClaimGasTokens()": {
        "details": "A function that allows us to get the burnToClaimGasTokens "
      },
      "getBurnToSaveFee()": {
        "details": "A function that allows us to get the burnToSaveFee "
      },
      "getClaimTimes(address)": {
        "details": "A function that allows us to get the claim times"
      },
      "getMintingReward()": {
        "details": "A function that allows us to get the burnToClaimGasTokens "
      },
      "getRewardEnableTime()": {
        "details": "A function that allows us to get the time rewards where enabled"
      },
      "getRewardEnabled()": {
        "details": "A function that allows us to get the time rewards where enabled"
      },
      "getStakeTimes(address)": {
        "details": "A function that allows us to get the stake times"
      },
      "getTierThreshold(uint256)": {
        "details": "A function that allows us to get a tier threshold"
      },
      "mintGasToken(address,uint256)": {
        "details": "public entry to the convenient minting function"
      },
      "mintingType(address)": {
        "details": "A function that allows us to check the mint type of the token."
      },
      "owner()": {
        "details": "Returns the address of the current owner."
      },
      "renounceOwnership()": {
        "details": "Leaves the contract without owner. It will not be possible to call `onlyOwner` functions anymore. Can only be called by the current owner. NOTE: Renouncing ownership will leave the contract without an owner, thereby removing any functionality that is only available to the owner."
      },
      "rewardedMinting(address,uint256)": {
        "details": "A function that allows a user to be rewarded tokens by minting or wrapping they pay full fees for this operation."
      },
      "stake(uint256)": {
        "details": "A function that allows a user to stake tokens.  If they have a rewards from a stake already, they must claim this first."
      },
      "totalRewardUser(address)": {
        "details": "A function that allows us to see how much rewards a user has claimed"
      },
      "totalRewards()": {
        "details": "A function that allows us to see how much rewards the vault has available right now."
      },
      "totalStaked()": {
        "details": "A function that allows us to see the total stake of everyone in the protocol."
      },
      "transferOwnership(address)": {
        "details": "Transfers ownership of the contract to a new account (`newOwner`). Can only be called by the current owner."
      },
      "transferOwnershipOfSubcontract(address,address)": {
        "details": "A function that allows us to reassign ownership of the contracts that this contract owns.  /* Enabling future smartcontract upgrades without the complexity of proxy/proxy upgrades."
      },
      "unstake()": {
        "details": "A function that allows a user to fully unstake."
      },
      "updateBurnClaimFee(uint256)": {
        "details": "A function that allows us to update the burn gsve:claim gastoken ratio"
      },
      "updateBurnSaveFee(uint256)": {
        "details": "A function that allows us to update the burn gsve:save fee ratio"
      },
      "updateMintingReward(uint256)": {
        "details": "A function that allows us to update the burn gsve:claim gastoken ratio"
      },
      "updateTier(uint256,uint256)": {
        "details": "A function that allows us to update the tier threshold"
      },
      "userStakeSize(address)": {
        "details": "A function that allows us to see the stake size of a specific staker."
      }
    },
    "version": 1
  },
  "userdoc": {
    "kind": "user",
    "methods": {},
    "version": 1
  }
}