{
  "contractName": "GSVE_helper",
  "abi": [
    {
      "inputs": [],
      "name": "dummy",
      "outputs": [],
      "stateMutability": "nonpayable",
      "type": "function"
    },
    {
      "inputs": [
        {
          "internalType": "uint256",
          "name": "burn",
          "type": "uint256"
        }
      ],
      "name": "burnGas",
      "outputs": [],
      "stateMutability": "nonpayable",
      "type": "function"
    },
    {
      "inputs": [
        {
          "internalType": "uint256",
          "name": "burn",
          "type": "uint256"
        }
      ],
      "name": "burnGasAndAcceptPayment",
      "outputs": [],
      "stateMutability": "payable",
      "type": "function"
    },
    {
      "inputs": [
        {
          "internalType": "address",
          "name": "gas_token",
          "type": "address"
        },
        {
          "internalType": "uint256",
          "name": "burn",
          "type": "uint256"
        },
        {
          "internalType": "uint256",
          "name": "free",
          "type": "uint256"
        }
      ],
      "name": "burnGasAndFree",
      "outputs": [],
      "stateMutability": "nonpayable",
      "type": "function"
    },
    {
      "inputs": [
        {
          "internalType": "address",
          "name": "gas_token",
          "type": "address"
        },
        {
          "internalType": "uint256",
          "name": "burn",
          "type": "uint256"
        },
        {
          "internalType": "uint256",
          "name": "free",
          "type": "uint256"
        }
      ],
      "name": "burnGasAndFreeUpTo",
      "outputs": [],
      "stateMutability": "nonpayable",
      "type": "function"
    },
    {
      "inputs": [
        {
          "internalType": "address",
          "name": "gas_token",
          "type": "address"
        },
        {
          "internalType": "uint256",
          "name": "burn",
          "type": "uint256"
        },
        {
          "internalType": "uint256",
          "name": "free",
          "type": "uint256"
        }
      ],
      "name": "burnGasAndFreeFrom",
      "outputs": [],
      "stateMutability": "nonpayable",
      "type": "function"
    },
    {
      "inputs": [
        {
          "internalType": "address",
          "name": "gas_token",
          "type": "address"
        },
        {
          "internalType": "uint256",
          "name": "burn",
          "type": "uint256"
        },
        {
          "internalType": "uint256",
          "name": "free",
          "type": "uint256"
        }
      ],
      "name": "burnGasAndFreeFromUpTo",
      "outputs": [],
      "stateMutability": "nonpayable",
      "type": "function"
    }
  ],
  "bytecode": "0x608060405234801561001057600080fd5b50610612806100206000396000f3fe6080604052600436106100705760003560e01c80634ad5d16f1161004e5780634ad5d16f146100c95780636318d58c146100e9578063a2063679146100f7578063f3389f621461011757600080fd5b806301e569a91461007557806316edf3e31461009757806332e43a11146100b7575b600080fd5b34801561008157600080fd5b50610095610090366004610560565b610137565b005b3480156100a357600080fd5b506100956100b2366004610560565b61023a565b3480156100c357600080fd5b50610095fe5b3480156100d557600080fd5b506100956100e43660046105ac565b610331565b6100956100e43660046105ac565b34801561010357600080fd5b50610095610112366004610560565b610364565b34801561012357600080fd5b50610095610132366004610560565b610461565b61014082610331565b6040517fd8ccd0f30000000000000000000000000000000000000000000000000000000081526004810182905260009073ffffffffffffffffffffffffffffffffffffffff85169063d8ccd0f390602401602060405180830381600087803b1580156101ab57600080fd5b505af11580156101bf573d6000803e3d6000fd5b505050506040513d601f19601f820116820180604052508101906101e391906105c4565b116102355760405162461bcd60e51b815260206004820152600e60248201527f6275726e476173416e644672656500000000000000000000000000000000000060448201526064015b60405180910390fd5b505050565b61024382610331565b6040517f6366b9360000000000000000000000000000000000000000000000000000000081526004810182905273ffffffffffffffffffffffffffffffffffffffff841690636366b93690602401602060405180830381600087803b1580156102ab57600080fd5b505af11580156102bf573d6000803e3d6000fd5b505050506040513d601f19601f820116820180604052508101906102e391906105c4565b81146102355760405162461bcd60e51b815260206004820152601260248201527f6275726e476173416e64467265655570546f0000000000000000000000000000604482015260640161022c565b7f32e43a110000000000000000000000000000000000000000000000000000000060005260008060046000803086f15050565b61036d82610331565b6040517f079d229f0000000000000000000000000000000000000000000000000000000081523260048201526024810182905273ffffffffffffffffffffffffffffffffffffffff84169063079d229f90604401602060405180830381600087803b1580156103db57600080fd5b505af11580156103ef573d6000803e3d6000fd5b505050506040513d601f19601f8201168201806040525081019061041391906105c4565b81146102355760405162461bcd60e51b815260206004820152601660248201527f6275726e476173416e644672656546726f6d5570546f00000000000000000000604482015260640161022c565b61046a82610331565b6040517f5f2e2b450000000000000000000000000000000000000000000000000000000081523260048201526024810182905260009073ffffffffffffffffffffffffffffffffffffffff851690635f2e2b4590604401602060405180830381600087803b1580156104db57600080fd5b505af11580156104ef573d6000803e3d6000fd5b505050506040513d601f19601f8201168201806040525081019061051391906105c4565b116102355760405162461bcd60e51b815260206004820152601260248201527f6275726e476173416e644672656546726f6d0000000000000000000000000000604482015260640161022c565b600080600060608486031215610574578283fd5b833573ffffffffffffffffffffffffffffffffffffffff81168114610597578384fd5b95602085013595506040909401359392505050565b6000602082840312156105bd578081fd5b5035919050565b6000602082840312156105d5578081fd5b505191905056fea2646970667358221220eede0e39a06f1b43cdd4e90d825cb8c6c97db5a775780092282414247227a6ed64736f6c63430008040033",
  "immutableReferences": {},
  "source": "// SPDX-License-Identifier: MIT\r\npragma solidity ^0.8.0;\r\n\r\nimport \"../IGasToken.sol\";\r\n\r\ncontract GSVE_helper {\r\n\r\n    function dummy() public {\r\n        assembly{\r\n            invalid()\r\n        }\r\n    }\r\n\r\n    // Burns at least burn gas by calling itself and throwing\r\n    function burnGas(uint256 burn) public {\r\n        // call self.dummy() to burn a bunch of gas\r\n        assembly {\r\n            mstore(0x0, 0x32e43a1100000000000000000000000000000000000000000000000000000000)\r\n            let ret := call(burn, address(), 0, 0x0, 0x04, 0x0, 0)\r\n        }\r\n    }\r\n\r\n    function burnGasAndAcceptPayment(uint256 burn) public payable{\r\n        // call self.dummy() to burn a bunch of gas\r\n        assembly {\r\n            mstore(0x0, 0x32e43a1100000000000000000000000000000000000000000000000000000000)\r\n            let ret := call(burn, address(), 0, 0x0, 0x04, 0x0, 0)\r\n        }\r\n    }\r\n\r\n    function burnGasAndFree(address gas_token, uint256 burn, uint256 free) public {\r\n        burnGas(burn);\r\n        require(IGasToken(gas_token).free(free) > 0, \"burnGasAndFree\");\r\n    }\r\n\r\n    function burnGasAndFreeUpTo(address gas_token, uint256 burn, uint256 free) public {\r\n        burnGas(burn);\r\n        require(free == IGasToken(gas_token).freeUpTo(free), \"burnGasAndFreeUpTo\");\r\n    }\r\n\r\n    function burnGasAndFreeFrom(address gas_token, uint256 burn, uint256 free) public {\r\n        burnGas(burn);\r\n        require(IGasToken(gas_token).freeFrom(tx.origin, free) > 0, \"burnGasAndFreeFrom\");\r\n    }\r\n\r\n    function burnGasAndFreeFromUpTo(address gas_token, uint256 burn, uint256 free) public {\r\n        burnGas(burn);\r\n        require(free == IGasToken(gas_token).freeFromUpTo(tx.origin, free), \"burnGasAndFreeFromUpTo\");\r\n    }\r\n}\r\n",
  "sourcePath": "C:/Users/khera/Documents/GitHub/GasSwapTokens/contracts/test_helpers/GSVE_helper.sol",
  "compiler": {
    "name": "solc",
    "version": "0.8.4+commit.c7e474f2.Emscripten.clang"
  },
  "schemaVersion": "3.3.4",
  "updatedAt": "2021-05-14T16:51:06.631Z",
  "devdoc": {
    "kind": "dev",
    "methods": {},
    "version": 1
  },
  "userdoc": {
    "kind": "user",
    "methods": {},
    "version": 1
  }
}