{
  "contractName": "GSVEDeployer",
  "abi": [
    {
      "anonymous": false,
      "inputs": [
        {
          "indexed": true,
          "internalType": "address",
          "name": "creator",
          "type": "address"
        },
        {
          "indexed": false,
          "internalType": "address",
          "name": "deploymentAddress",
          "type": "address"
        }
      ],
      "name": "ContractDeployed",
      "type": "event"
    },
    {
      "anonymous": false,
      "inputs": [
        {
          "indexed": true,
          "internalType": "address",
          "name": "previousOwner",
          "type": "address"
        },
        {
          "indexed": true,
          "internalType": "address",
          "name": "newOwner",
          "type": "address"
        }
      ],
      "name": "OwnershipTransferred",
      "type": "event"
    },
    {
      "inputs": [],
      "name": "owner",
      "outputs": [
        {
          "internalType": "address",
          "name": "",
          "type": "address"
        }
      ],
      "stateMutability": "view",
      "type": "function",
      "constant": true
    },
    {
      "inputs": [],
      "name": "renounceOwnership",
      "outputs": [],
      "stateMutability": "nonpayable",
      "type": "function"
    },
    {
      "inputs": [
        {
          "internalType": "address",
          "name": "newOwner",
          "type": "address"
        }
      ],
      "name": "transferOwnership",
      "outputs": [],
      "stateMutability": "nonpayable",
      "type": "function"
    },
    {
      "inputs": [
        {
          "internalType": "address",
          "name": "gasToken",
          "type": "address"
        },
        {
          "internalType": "uint256",
          "name": "freeUpValue",
          "type": "uint256"
        }
      ],
      "name": "addGasToken",
      "outputs": [],
      "stateMutability": "nonpayable",
      "type": "function"
    },
    {
      "inputs": [
        {
          "internalType": "address",
          "name": "gasToken",
          "type": "address"
        }
      ],
      "name": "compatibleGasToken",
      "outputs": [
        {
          "internalType": "uint256",
          "name": "",
          "type": "uint256"
        }
      ],
      "stateMutability": "view",
      "type": "function",
      "constant": true
    },
    {
      "inputs": [
        {
          "internalType": "bytes",
          "name": "data",
          "type": "bytes"
        },
        {
          "internalType": "address",
          "name": "gasToken",
          "type": "address"
        }
      ],
      "name": "GsveDeploy",
      "outputs": [
        {
          "internalType": "address",
          "name": "contractAddress",
          "type": "address"
        }
      ],
      "stateMutability": "nonpayable",
      "type": "function"
    },
    {
      "inputs": [
        {
          "internalType": "uint256",
          "name": "salt",
          "type": "uint256"
        },
        {
          "internalType": "bytes",
          "name": "data",
          "type": "bytes"
        },
        {
          "internalType": "address",
          "name": "gasToken",
          "type": "address"
        }
      ],
      "name": "GsveDeploy2",
      "outputs": [
        {
          "internalType": "address",
          "name": "contractAddress",
          "type": "address"
        }
      ],
      "stateMutability": "nonpayable",
      "type": "function"
    }
  ],
  "bytecode": "0x6080604052600060035534801561001557600080fd5b50600080546001600160a01b031916339081178255604051909182917f8be0079c531659141344cd1fd0a4f28419497f9722a3daafe3b4186f6b6457e0908290a350610ba6806100666000396000f3fe608060405234801561001057600080fd5b506004361061007c5760003560e01c80638da5cb5b1161005b5780638da5cb5b146100ce5780638e13fd78146100df578063d1aa693d14610116578063f2fde38b1461012957600080fd5b8062e3560214610081578063488f746314610096578063715018a6146100c6575b600080fd5b61009461008f36600461099f565b61013c565b005b6100a96100a43660046109c8565b610198565b6040516001600160a01b0390911681526020015b60405180910390f35b610094610489565b6000546001600160a01b03166100a9565b6101086100ed36600461097e565b6001600160a01b031660009081526001602052604090205490565b6040519081526020016100bd565b6100a9610124366004610a2c565b6104fd565b61009461013736600461097e565b6107f1565b6000546001600160a01b0316331461016f5760405162461bcd60e51b815260040161016690610a81565b60405180910390fd5b6001600160a01b0390911660009081526001602081815260408084209290925560029052902055565b6000816001600160a01b038116156103c2576001600160a01b0381166000908152600160208190526040909120541461020e5760405162461bcd60e51b815260206004820152601860248201527723a9ab229d1034b731b7b6b830ba34b13632903a37b5b2b760411b6044820152606401610166565b60005a90508451602086016000f060405163f2fde38b60e01b81523360048201529093506001600160a01b0384169063f2fde38b90602401600060405180830381600087803b15801561026057600080fd5b505af1925050508015610271575060015b6102a6576040516001600160a01b03841681523390600080516020610b518339815191529060200160405180910390a26102d3565b6040516001600160a01b03841681523390600080516020610b518339815191529060200160405180910390a25b60006102e0366010610aee565b5a6102ed84615208610ab6565b6102f79190610b0d565b6103019190610ab6565b6001600160a01b0384166000818152600260205260409020549192509063079d229f90339061033285613e80610ab6565b61033c9190610ace565b6040516001600160e01b031960e085901b1681526001600160a01b0390921660048301526024820152604401602060405180830381600087803b15801561038257600080fd5b505af1158015610396573d6000803e3d6000fd5b505050506040513d601f19601f820116820180604052508101906103ba9190610a14565b505050610482565b8351602085016000f060405163f2fde38b60e01b81523360048201529092506001600160a01b0383169063f2fde38b90602401600060405180830381600087803b15801561040f57600080fd5b505af1925050508015610420575060015b610455576040516001600160a01b03831681523390600080516020610b518339815191529060200160405180910390a2610482565b6040516001600160a01b03831681523390600080516020610b518339815191529060200160405180910390a25b5092915050565b6000546001600160a01b031633146104b35760405162461bcd60e51b815260040161016690610a81565b600080546040516001600160a01b03909116907f8be0079c531659141344cd1fd0a4f28419497f9722a3daafe3b4186f6b6457e0908390a3600080546001600160a01b0319169055565b6000816001600160a01b03811615610728576001600160a01b038116600090815260016020819052604090912054146105735760405162461bcd60e51b815260206004820152601860248201527723a9ab229d1034b731b7b6b830ba34b13632903a37b5b2b760411b6044820152606401610166565b60005a9050858551602087016000f560405163f2fde38b60e01b81523360048201529093506001600160a01b0384169063f2fde38b90602401600060405180830381600087803b1580156105c657600080fd5b505af19250505080156105d7575060015b61060c576040516001600160a01b03841681523390600080516020610b518339815191529060200160405180910390a2610639565b6040516001600160a01b03841681523390600080516020610b518339815191529060200160405180910390a25b6000610646366010610aee565b5a61065384615208610ab6565b61065d9190610b0d565b6106679190610ab6565b6001600160a01b0384166000818152600260205260409020549192509063079d229f90339061069885613e80610ab6565b6106a29190610ace565b6040516001600160e01b031960e085901b1681526001600160a01b0390921660048301526024820152604401602060405180830381600087803b1580156106e857600080fd5b505af11580156106fc573d6000803e3d6000fd5b505050506040513d601f19601f820116820180604052508101906107209190610a14565b5050506107e9565b848451602086016000f560405163f2fde38b60e01b81523360048201529092506001600160a01b0383169063f2fde38b90602401600060405180830381600087803b15801561077657600080fd5b505af1925050508015610787575060015b6107bc576040516001600160a01b03831681523390600080516020610b518339815191529060200160405180910390a26107e9565b6040516001600160a01b03831681523390600080516020610b518339815191529060200160405180910390a25b509392505050565b6000546001600160a01b0316331461081b5760405162461bcd60e51b815260040161016690610a81565b6001600160a01b0381166108805760405162461bcd60e51b815260206004820152602660248201527f4f776e61626c653a206e6577206f776e657220697320746865207a65726f206160448201526564647265737360d01b6064820152608401610166565b600080546040516001600160a01b03808516939216917f8be0079c531659141344cd1fd0a4f28419497f9722a3daafe3b4186f6b6457e091a3600080546001600160a01b0319166001600160a01b0392909216919091179055565b80356001600160a01b03811681146108f257600080fd5b919050565b600082601f830112610907578081fd5b813567ffffffffffffffff8082111561092257610922610b3a565b604051601f8301601f19908116603f0116810190828211818310171561094a5761094a610b3a565b81604052838152866020858801011115610962578485fd5b8360208701602083013792830160200193909352509392505050565b60006020828403121561098f578081fd5b610998826108db565b9392505050565b600080604083850312156109b1578081fd5b6109ba836108db565b946020939093013593505050565b600080604083850312156109da578182fd5b823567ffffffffffffffff8111156109f0578283fd5b6109fc858286016108f7565b925050610a0b602084016108db565b90509250929050565b600060208284031215610a25578081fd5b5051919050565b600080600060608486031215610a40578081fd5b83359250602084013567ffffffffffffffff811115610a5d578182fd5b610a69868287016108f7565b925050610a78604085016108db565b90509250925092565b6020808252818101527f4f776e61626c653a2063616c6c6572206973206e6f7420746865206f776e6572604082015260600190565b60008219821115610ac957610ac9610b24565b500190565b600082610ae957634e487b7160e01b81526012600452602481fd5b500490565b6000816000190483118215151615610b0857610b08610b24565b500290565b600082821015610b1f57610b1f610b24565b500390565b634e487b7160e01b600052601160045260246000fd5b634e487b7160e01b600052604160045260246000fdfe33c981baba081f8fd2c52ac6ad1ea95b6814b4376640f55689051f6584729688a264697066735822122048d0f23ae1911486938d24b00c8ada67ff30426f06d74a63c78e7c48d89aa50e64736f6c63430008040033",
  "immutableReferences": {},
  "source": "// SPDX-License-Identifier: MIT\r\npragma solidity ^0.8.0;\r\n\r\nimport \"@openzeppelin/contracts/access/Ownable.sol\";\r\n\r\n/**\r\n* @dev interface to allow the burning of gas tokens from an address\r\n*/\r\ninterface IFreeFromUpTo {\r\n    function freeFromUpTo(address from, uint256 value) external returns (uint256 freed);\r\n}\r\n\r\n/**\r\n* @dev the gsve deployer has two purposes\r\n* it deploys gsve smart wrappers, keeping track of the owners\r\n* it allows users to deploy smart contracts using create and create2\r\n*/\r\ncontract GSVEDeployer is Ownable{\r\n    mapping(address => uint256) private _compatibleGasTokens;\r\n    mapping(address => uint256) private _freeUpValue;\r\n    uint256 private _totalSupportedTokens = 0;\r\n\r\n    /**\r\n    * @dev add support for trusted gas tokens - those we wrapped\r\n    */\r\n    function addGasToken(address gasToken, uint256 freeUpValue) public onlyOwner{\r\n        _compatibleGasTokens[gasToken] = 1;\r\n        _freeUpValue[gasToken] = freeUpValue;\r\n    }\r\n    \r\n    /**\r\n    * @dev function to check if a gas token is supported by the deployer\r\n    */\r\n    function compatibleGasToken(address gasToken) public view returns(uint256){\r\n        return _compatibleGasTokens[gasToken];\r\n    }\r\n\r\n    /**\r\n    * @dev GSVE moddifier that burns supported gas tokens around a function that uses gas\r\n    * the function calculates the optimal number of tokens to burn, based on the token specified\r\n    */\r\n    modifier discountGas(address gasToken) {\r\n        if(gasToken != address(0)){\r\n            require(_compatibleGasTokens[gasToken] == 1, \"GSVE: incompatible token\");\r\n            uint256 gasStart = gasleft();\r\n            _;\r\n            uint256 gasSpent = 21000 + gasStart - gasleft() + 16 * msg.data.length;\r\n            IFreeFromUpTo(gasToken).freeFromUpTo(msg.sender,  (gasSpent + 16000) / _freeUpValue[gasToken]);\r\n        }\r\n        else{\r\n            _;\r\n        }\r\n    }\r\n\r\n    /**\r\n    * @dev deploys a smart contract using the create function\r\n    * if the contract is ownable, the contract ownership is passed to the message sender\r\n    * the gas token passed in as argument is burned by the moddifier\r\n    */\r\n    function GsveDeploy(bytes memory data, address gasToken) public discountGas(gasToken) returns(address contractAddress) {\r\n        assembly {\r\n            contractAddress := create(0, add(data, 32), mload(data))\r\n        }\r\n        try Ownable(contractAddress).transferOwnership(msg.sender){\r\n            emit ContractDeployed(msg.sender, contractAddress);\r\n        }\r\n        catch{\r\n            emit ContractDeployed(msg.sender, contractAddress);\r\n        }\r\n    }\r\n\r\n    /**\r\n    * @dev deploys a smart contract using the create2 function and a user provided salt\r\n    * if the contract is ownable, the contract ownership is passed to the message sender\r\n    * the gas token passed in as argument is burned by the moddifier\r\n    */\r\n    function GsveDeploy2(uint256 salt, bytes memory data, address gasToken) public discountGas(gasToken) returns(address contractAddress) {\r\n        assembly {\r\n            contractAddress := create2(0, add(data, 32), mload(data), salt)\r\n        }\r\n\r\n        try Ownable(contractAddress).transferOwnership(msg.sender){\r\n            emit ContractDeployed(msg.sender, contractAddress);\r\n        }\r\n        catch{\r\n            emit ContractDeployed(msg.sender, contractAddress);\r\n        }\r\n    }\r\n    \r\n    event ContractDeployed(address indexed creator, address deploymentAddress);\r\n}",
  "sourcePath": "C:/Users/khera/Documents/GitHub/GasSwapTokens/contracts/GSVEDeployer.sol",
  "compiler": {
    "name": "solc",
    "version": "0.8.4+commit.c7e474f2.Emscripten.clang"
  },
  "schemaVersion": "3.3.4",
  "updatedAt": "2021-05-10T13:36:57.158Z",
  "networkType": "ethereum",
  "devdoc": {
    "details": "the gsve deployer has two purposes it deploys gsve smart wrappers, keeping track of the owners it allows users to deploy smart contracts using create and create2",
    "kind": "dev",
    "methods": {
      "GsveDeploy(bytes,address)": {
        "details": "deploys a smart contract using the create function if the contract is ownable, the contract ownership is passed to the message sender the gas token passed in as argument is burned by the moddifier"
      },
      "GsveDeploy2(uint256,bytes,address)": {
        "details": "deploys a smart contract using the create2 function and a user provided salt if the contract is ownable, the contract ownership is passed to the message sender the gas token passed in as argument is burned by the moddifier"
      },
      "addGasToken(address,uint256)": {
        "details": "add support for trusted gas tokens - those we wrapped"
      },
      "compatibleGasToken(address)": {
        "details": "function to check if a gas token is supported by the deployer"
      },
      "owner()": {
        "details": "Returns the address of the current owner."
      },
      "renounceOwnership()": {
        "details": "Leaves the contract without owner. It will not be possible to call `onlyOwner` functions anymore. Can only be called by the current owner. NOTE: Renouncing ownership will leave the contract without an owner, thereby removing any functionality that is only available to the owner."
      },
      "transferOwnership(address)": {
        "details": "Transfers ownership of the contract to a new account (`newOwner`). Can only be called by the current owner."
      }
    },
    "version": 1
  },
  "userdoc": {
    "kind": "user",
    "methods": {},
    "version": 1
  }
}