{
  "contractName": "GSVE_helper",
  "abi": [
    {
      "constant": false,
      "inputs": [],
      "name": "dummy",
      "outputs": [],
      "payable": false,
      "stateMutability": "nonpayable",
      "type": "function"
    },
    {
      "constant": false,
      "inputs": [
        {
          "name": "burn",
          "type": "uint256"
        }
      ],
      "name": "burnGas",
      "outputs": [],
      "payable": false,
      "stateMutability": "nonpayable",
      "type": "function"
    }
  ],
  "bytecode": "0x608060405234801561001057600080fd5b506102d8806100206000396000f3fe608060405234801561001057600080fd5b50600436106100365760003560e01c806332e43a111461003b5780634ad5d16f14610045575b600080fd5b610043610073565b005b6100716004803603602081101561005b57600080fd5b8101908080359060200190929190505050610075565b005bfe5b600160005a90507f32e43a110000000000000000000000000000000000000000000000000000000060005260008060046000803088f1506000807398dea83628a522af9f70c5201ddd60df78b2fd9373ffffffffffffffffffffffffffffffffffffffff1663ff145c87306040518263ffffffff1660e01b8152600401808273ffffffffffffffffffffffffffffffffffffffff1673ffffffffffffffffffffffffffffffffffffffff168152602001915050604080518083038186803b15801561013f57600080fd5b505afa158015610153573d6000803e3d6000fd5b505050506040513d604081101561016957600080fd5b8101908080519060200190929190805190602001909291905050508092508193505050600073ffffffffffffffffffffffffffffffffffffffff168273ffffffffffffffffffffffffffffffffffffffff16146102a5576000803690506010025a8561520801030190508273ffffffffffffffffffffffffffffffffffffffff1663079d229f3384613e808501816101fd57fe5b046040518363ffffffff1660e01b8152600401808373ffffffffffffffffffffffffffffffffffffffff1673ffffffffffffffffffffffffffffffffffffffff16815260200182815260200192505050602060405180830381600087803b15801561026757600080fd5b505af115801561027b573d6000803e3d6000fd5b505050506040513d602081101561029157600080fd5b810190808051906020019092919050505050505b505050505056fea165627a7a7230582085a81f13a5f89c684dc6eeec2df0cb5281b64219c67a1a37347fbf6d342c989f0029",
  "source": "// SPDX-License-Identifier: MIT\r\npragma solidity ^0.5.3;\r\n\r\nimport \"../GSVESaver.sol\";\r\n\r\ncontract GSVE_helper is GSVESaver {\r\n\r\n    function dummy() public {\r\n        assembly{\r\n            invalid()\r\n        }\r\n    }\r\n\r\n    // Burns at least burn gas by calling itself and throwing\r\n    function burnGas(uint256 burn) public discountGas(true) {\r\n        // call self.dummy() to burn a bunch of gas\r\n        assembly {\r\n            mstore(0x0, 0x32e43a1100000000000000000000000000000000000000000000000000000000)\r\n            let ret := call(burn, address(), 0, 0x0, 0x04, 0x0, 0)\r\n        }\r\n    }\r\n}\r\n",
  "sourcePath": "C:/Users/khera/Documents/GitHub/Gnosis/contracts/test_helpers/GSVE_helper.sol",
  "compiler": {
    "name": "solc",
    "version": "0.5.7+commit.6da8b019.Emscripten.clang"
  },
  "schemaVersion": "3.3.4",
  "updatedAt": "2021-05-12T21:13:15.410Z",
  "devdoc": {
    "methods": {}
  },
  "userdoc": {
    "methods": {}
  }
}