{
  "contractName": "GSVE_helper",
  "abi": [
    {
      "inputs": [],
      "name": "dummy",
      "outputs": [],
      "stateMutability": "nonpayable",
      "type": "function"
    },
    {
      "inputs": [
        {
          "internalType": "uint256",
          "name": "burn",
          "type": "uint256"
        }
      ],
      "name": "burnGas",
      "outputs": [],
      "stateMutability": "nonpayable",
      "type": "function"
    },
    {
      "inputs": [
        {
          "internalType": "uint256",
          "name": "burn",
          "type": "uint256"
        }
      ],
      "name": "burnGasAndAcceptPayment",
      "outputs": [],
      "stateMutability": "payable",
      "type": "function"
    },
    {
      "inputs": [
        {
          "internalType": "address",
          "name": "gas_token",
          "type": "address"
        },
        {
          "internalType": "uint256",
          "name": "burn",
          "type": "uint256"
        },
        {
          "internalType": "uint256",
          "name": "free",
          "type": "uint256"
        }
      ],
      "name": "burnGasAndFree",
      "outputs": [],
      "stateMutability": "nonpayable",
      "type": "function"
    },
    {
      "inputs": [
        {
          "internalType": "address",
          "name": "gas_token",
          "type": "address"
        },
        {
          "internalType": "uint256",
          "name": "burn",
          "type": "uint256"
        },
        {
          "internalType": "uint256",
          "name": "free",
          "type": "uint256"
        }
      ],
      "name": "burnGasAndFreeUpTo",
      "outputs": [],
      "stateMutability": "nonpayable",
      "type": "function"
    },
    {
      "inputs": [
        {
          "internalType": "address",
          "name": "gas_token",
          "type": "address"
        },
        {
          "internalType": "uint256",
          "name": "burn",
          "type": "uint256"
        },
        {
          "internalType": "uint256",
          "name": "free",
          "type": "uint256"
        }
      ],
      "name": "burnGasAndFreeFrom",
      "outputs": [],
      "stateMutability": "nonpayable",
      "type": "function"
    },
    {
      "inputs": [
        {
          "internalType": "address",
          "name": "gas_token",
          "type": "address"
        },
        {
          "internalType": "uint256",
          "name": "burn",
          "type": "uint256"
        },
        {
          "internalType": "uint256",
          "name": "free",
          "type": "uint256"
        }
      ],
      "name": "burnGasAndFreeFromUpTo",
      "outputs": [],
      "stateMutability": "nonpayable",
      "type": "function"
    }
  ],
  "bytecode": "0x608060405234801561001057600080fd5b50610528806100206000396000f3fe6080604052600436106100705760003560e01c80634ad5d16f1161004e5780634ad5d16f146100c95780636318d58c146100e9578063a2063679146100f7578063f3389f621461011757600080fd5b806301e569a91461007557806316edf3e31461009757806332e43a11146100b7575b600080fd5b34801561008157600080fd5b50610095610090366004610483565b610137565b005b3480156100a357600080fd5b506100956100b2366004610483565b610205565b3480156100c357600080fd5b50610095fe5b3480156100d557600080fd5b506100956100e43660046104c2565b6102cb565b6100956100e43660046104c2565b34801561010357600080fd5b50610095610112366004610483565b6102e5565b34801561012357600080fd5b50610095610132366004610483565b6103b5565b610140826102cb565b60405163d8ccd0f360e01b8152600481018290526000906001600160a01b0385169063d8ccd0f390602401602060405180830381600087803b15801561018557600080fd5b505af1158015610199573d6000803e3d6000fd5b505050506040513d601f19601f820116820180604052508101906101bd91906104da565b116102005760405162461bcd60e51b815260206004820152600e60248201526d6275726e476173416e644672656560901b60448201526064015b60405180910390fd5b505050565b61020e826102cb565b6040516331b35c9b60e11b8152600481018290526001600160a01b03841690636366b93690602401602060405180830381600087803b15801561025057600080fd5b505af1158015610264573d6000803e3d6000fd5b505050506040513d601f19601f8201168201806040525081019061028891906104da565b81146102005760405162461bcd60e51b81526020600482015260126024820152716275726e476173416e64467265655570546f60701b60448201526064016101f7565b6332e43a1160e01b60005260008060046000803086f15050565b6102ee826102cb565b60405163079d229f60e01b8152326004820152602481018290526001600160a01b0384169063079d229f90604401602060405180830381600087803b15801561033657600080fd5b505af115801561034a573d6000803e3d6000fd5b505050506040513d601f19601f8201168201806040525081019061036e91906104da565b81146102005760405162461bcd60e51b81526020600482015260166024820152756275726e476173416e644672656546726f6d5570546f60501b60448201526064016101f7565b6103be826102cb565b604051635f2e2b4560e01b8152326004820152602481018290526000906001600160a01b03851690635f2e2b4590604401602060405180830381600087803b15801561040957600080fd5b505af115801561041d573d6000803e3d6000fd5b505050506040513d601f19601f8201168201806040525081019061044191906104da565b116102005760405162461bcd60e51b81526020600482015260126024820152716275726e476173416e644672656546726f6d60701b60448201526064016101f7565b600080600060608486031215610497578283fd5b83356001600160a01b03811681146104ad578384fd5b95602085013595506040909401359392505050565b6000602082840312156104d3578081fd5b5035919050565b6000602082840312156104eb578081fd5b505191905056fea26469706673582212201b65868d50ebadb0dcafa0a0c0b576fdecbe1dd42794851516140aafcd2096ef64736f6c63430008040033",
  "immutableReferences": {},
  "source": "// SPDX-License-Identifier: MIT\r\npragma solidity ^0.8.0;\r\n\r\nimport \"../IGasToken.sol\";\r\n\r\ncontract GSVE_helper {\r\n\r\n    function dummy() public {\r\n        assembly{\r\n            invalid()\r\n        }\r\n    }\r\n\r\n    // Burns at least burn gas by calling itself and throwing\r\n    function burnGas(uint256 burn) public {\r\n        // call self.dummy() to burn a bunch of gas\r\n        assembly {\r\n            mstore(0x0, 0x32e43a1100000000000000000000000000000000000000000000000000000000)\r\n            let ret := call(burn, address(), 0, 0x0, 0x04, 0x0, 0)\r\n        }\r\n    }\r\n\r\n    function burnGasAndAcceptPayment(uint256 burn) public payable{\r\n        // call self.dummy() to burn a bunch of gas\r\n        assembly {\r\n            mstore(0x0, 0x32e43a1100000000000000000000000000000000000000000000000000000000)\r\n            let ret := call(burn, address(), 0, 0x0, 0x04, 0x0, 0)\r\n        }\r\n    }\r\n\r\n    function burnGasAndFree(address gas_token, uint256 burn, uint256 free) public {\r\n        burnGas(burn);\r\n        require(IGasToken(gas_token).free(free) > 0, \"burnGasAndFree\");\r\n    }\r\n\r\n    function burnGasAndFreeUpTo(address gas_token, uint256 burn, uint256 free) public {\r\n        burnGas(burn);\r\n        require(free == IGasToken(gas_token).freeUpTo(free), \"burnGasAndFreeUpTo\");\r\n    }\r\n\r\n    function burnGasAndFreeFrom(address gas_token, uint256 burn, uint256 free) public {\r\n        burnGas(burn);\r\n        require(IGasToken(gas_token).freeFrom(tx.origin, free) > 0, \"burnGasAndFreeFrom\");\r\n    }\r\n\r\n    function burnGasAndFreeFromUpTo(address gas_token, uint256 burn, uint256 free) public {\r\n        burnGas(burn);\r\n        require(free == IGasToken(gas_token).freeFromUpTo(tx.origin, free), \"burnGasAndFreeFromUpTo\");\r\n    }\r\n}\r\n",
  "sourcePath": "C:/Users/khera/Documents/GitHub/GasSwapTokens/contracts/test_helpers/GSVE_helper.sol",
  "compiler": {
    "name": "solc",
    "version": "0.8.4+commit.c7e474f2.Emscripten.clang"
  },
  "schemaVersion": "3.3.4",
  "updatedAt": "2021-05-17T19:37:44.152Z",
  "devdoc": {
    "kind": "dev",
    "methods": {},
    "version": 1
  },
  "userdoc": {
    "kind": "user",
    "methods": {},
    "version": 1
  }
}