{
  "contractName": "GSVEBeacon",
  "abi": [
    {
      "inputs": [
        {
          "internalType": "address",
          "name": "_wchi",
          "type": "address"
        },
        {
          "internalType": "address",
          "name": "_wgst2",
          "type": "address"
        },
        {
          "internalType": "address",
          "name": "_wgst1",
          "type": "address"
        }
      ],
      "stateMutability": "nonpayable",
      "type": "constructor"
    },
    {
      "anonymous": false,
      "inputs": [
        {
          "indexed": true,
          "internalType": "address",
          "name": "previousOwner",
          "type": "address"
        },
        {
          "indexed": true,
          "internalType": "address",
          "name": "newOwner",
          "type": "address"
        }
      ],
      "name": "OwnershipTransferred",
      "type": "event"
    },
    {
      "anonymous": false,
      "inputs": [
        {
          "indexed": false,
          "internalType": "address",
          "name": "safe",
          "type": "address"
        },
        {
          "indexed": false,
          "internalType": "address",
          "name": "gasToken",
          "type": "address"
        }
      ],
      "name": "UpdatedGasToken",
      "type": "event"
    },
    {
      "inputs": [],
      "name": "owner",
      "outputs": [
        {
          "internalType": "address",
          "name": "",
          "type": "address"
        }
      ],
      "stateMutability": "view",
      "type": "function",
      "constant": true
    },
    {
      "inputs": [],
      "name": "renounceOwnership",
      "outputs": [],
      "stateMutability": "nonpayable",
      "type": "function"
    },
    {
      "inputs": [
        {
          "internalType": "address",
          "name": "newOwner",
          "type": "address"
        }
      ],
      "name": "transferOwnership",
      "outputs": [],
      "stateMutability": "nonpayable",
      "type": "function"
    },
    {
      "inputs": [
        {
          "internalType": "address",
          "name": "creator",
          "type": "address"
        }
      ],
      "name": "getDeployedAddress",
      "outputs": [
        {
          "internalType": "address",
          "name": "",
          "type": "address"
        }
      ],
      "stateMutability": "view",
      "type": "function",
      "constant": true
    },
    {
      "inputs": [
        {
          "internalType": "address",
          "name": "safe",
          "type": "address"
        }
      ],
      "name": "getAddressGastoken",
      "outputs": [
        {
          "internalType": "address",
          "name": "",
          "type": "address"
        }
      ],
      "stateMutability": "view",
      "type": "function",
      "constant": true
    },
    {
      "inputs": [
        {
          "internalType": "address",
          "name": "safe",
          "type": "address"
        }
      ],
      "name": "getAddressGasTokenSaving",
      "outputs": [
        {
          "internalType": "uint256",
          "name": "",
          "type": "uint256"
        }
      ],
      "stateMutability": "view",
      "type": "function",
      "constant": true
    },
    {
      "inputs": [
        {
          "internalType": "address",
          "name": "safe",
          "type": "address"
        }
      ],
      "name": "getGasTokenAndSaving",
      "outputs": [
        {
          "internalType": "address",
          "name": "",
          "type": "address"
        },
        {
          "internalType": "uint256",
          "name": "",
          "type": "uint256"
        }
      ],
      "stateMutability": "view",
      "type": "function",
      "constant": true
    },
    {
      "inputs": [
        {
          "internalType": "address",
          "name": "safe",
          "type": "address"
        },
        {
          "internalType": "address",
          "name": "gasToken",
          "type": "address"
        }
      ],
      "name": "setAddressGasToken",
      "outputs": [],
      "stateMutability": "nonpayable",
      "type": "function"
    },
    {
      "inputs": [
        {
          "internalType": "address",
          "name": "owner",
          "type": "address"
        },
        {
          "internalType": "address",
          "name": "safe",
          "type": "address"
        }
      ],
      "name": "initSafe",
      "outputs": [],
      "stateMutability": "nonpayable",
      "type": "function"
    }
  ],
  "bytecode": "0x60806040523480156200001157600080fd5b50604051620012a8380380620012a88339818101604052810190620000379190620002e4565b600062000049620002c560201b60201c565b9050806000806101000a81548173ffffffffffffffffffffffffffffffffffffffff021916908373ffffffffffffffffffffffffffffffffffffffff1602179055508073ffffffffffffffffffffffffffffffffffffffff16600073ffffffffffffffffffffffffffffffffffffffff167f8be0079c531659141344cd1fd0a4f28419497f9722a3daafe3b4186f6b6457e060405160405180910390a35061a0aa600360006d4946c0e9f43f4dee607b0ef1fa1c73ffffffffffffffffffffffffffffffffffffffff1673ffffffffffffffffffffffffffffffffffffffff1681526020019081526020016000208190555061a0aa600360006eb3f879cb30fe243b4dfee438691c0473ffffffffffffffffffffffffffffffffffffffff1673ffffffffffffffffffffffffffffffffffffffff16815260200190815260200160002081905550614ea2600360007388d60255f917e3eb94eae199d827dad837fac4cb73ffffffffffffffffffffffffffffffffffffffff1673ffffffffffffffffffffffffffffffffffffffff1681526020019081526020016000208190555061a0aa600360008573ffffffffffffffffffffffffffffffffffffffff1673ffffffffffffffffffffffffffffffffffffffff1681526020019081526020016000208190555061a0aa600360008473ffffffffffffffffffffffffffffffffffffffff1673ffffffffffffffffffffffffffffffffffffffff16815260200190815260200160002081905550614ea2600360008373ffffffffffffffffffffffffffffffffffffffff1673ffffffffffffffffffffffffffffffffffffffff1681526020019081526020016000208190555050505062000388565b600033905090565b600081519050620002de816200036e565b92915050565b600080600060608486031215620002fa57600080fd5b60006200030a86828701620002cd565b93505060206200031d86828701620002cd565b92505060406200033086828701620002cd565b9150509250925092565b600062000347826200034e565b9050919050565b600073ffffffffffffffffffffffffffffffffffffffff82169050919050565b62000379816200033a565b81146200038557600080fd5b50565b610f1080620003986000396000f3fe608060405234801561001057600080fd5b50600436106100935760003560e01c80639669bd53116100665780639669bd531461012057806398a804671461013c578063a49985711461016c578063f2fde38b14610188578063ff145c87146101a457610093565b80632970973f14610098578063715018a6146100c85780637f3258ce146100d25780638da5cb5b14610102575b600080fd5b6100b260048036038101906100ad9190610b03565b6101d5565b6040516100bf9190610c35565b60405180910390f35b6100d061023e565b005b6100ec60048036038101906100e79190610b03565b610378565b6040516100f99190610d42565b60405180910390f35b61010a6103c9565b6040516101179190610c35565b60405180910390f35b61013a60048036038101906101359190610b2c565b6103f2565b005b61015660048036038101906101519190610b03565b610631565b6040516101639190610c35565b60405180910390f35b61018660048036038101906101819190610b2c565b61069a565b005b6101a2600480360381019061019d9190610b03565b61091f565b005b6101be60048036038101906101b99190610b03565b610ac8565b6040516101cc929190610c79565b60405180910390f35b6000600260008373ffffffffffffffffffffffffffffffffffffffff1673ffffffffffffffffffffffffffffffffffffffff16815260200190815260200160002060009054906101000a900473ffffffffffffffffffffffffffffffffffffffff169050919050565b610246610ae6565b73ffffffffffffffffffffffffffffffffffffffff166102646103c9565b73ffffffffffffffffffffffffffffffffffffffff16146102ba576040517f08c379a00000000000000000000000000000000000000000000000000000000081526004016102b190610d22565b60405180910390fd5b600073ffffffffffffffffffffffffffffffffffffffff1660008054906101000a900473ffffffffffffffffffffffffffffffffffffffff1673ffffffffffffffffffffffffffffffffffffffff167f8be0079c531659141344cd1fd0a4f28419497f9722a3daafe3b4186f6b6457e060405160405180910390a360008060006101000a81548173ffffffffffffffffffffffffffffffffffffffff021916908373ffffffffffffffffffffffffffffffffffffffff160217905550565b600060036000610387846101d5565b73ffffffffffffffffffffffffffffffffffffffff1673ffffffffffffffffffffffffffffffffffffffff168152602001908152602001600020549050919050565b60008060009054906101000a900473ffffffffffffffffffffffffffffffffffffffff16905090565b8173ffffffffffffffffffffffffffffffffffffffff16600160003373ffffffffffffffffffffffffffffffffffffffff1673ffffffffffffffffffffffffffffffffffffffff16815260200190815260200160002060009054906101000a900473ffffffffffffffffffffffffffffffffffffffff1673ffffffffffffffffffffffffffffffffffffffff16146104bf576040517f08c379a00000000000000000000000000000000000000000000000000000000081526004016104b690610d02565b60405180910390fd5b600073ffffffffffffffffffffffffffffffffffffffff168173ffffffffffffffffffffffffffffffffffffffff1614610576576000600360008373ffffffffffffffffffffffffffffffffffffffff1673ffffffffffffffffffffffffffffffffffffffff1681526020019081526020016000205411610575576040517f08c379a000000000000000000000000000000000000000000000000000000000815260040161056c90610ca2565b60405180910390fd5b5b80600260008473ffffffffffffffffffffffffffffffffffffffff1673ffffffffffffffffffffffffffffffffffffffff16815260200190815260200160002060006101000a81548173ffffffffffffffffffffffffffffffffffffffff021916908373ffffffffffffffffffffffffffffffffffffffff1602179055507ff457100720fb97ccb67a26d8f3ce110d2c414903bb49b87f5c8bbb6f0649ac698282604051610625929190610c50565b60405180910390a15050565b6000600160008373ffffffffffffffffffffffffffffffffffffffff1673ffffffffffffffffffffffffffffffffffffffff16815260200190815260200160002060009054906101000a900473ffffffffffffffffffffffffffffffffffffffff169050919050565b6106a2610ae6565b73ffffffffffffffffffffffffffffffffffffffff166106c06103c9565b73ffffffffffffffffffffffffffffffffffffffff1614610716576040517f08c379a000000000000000000000000000000000000000000000000000000000815260040161070d90610d22565b60405180910390fd5b600073ffffffffffffffffffffffffffffffffffffffff16600160008473ffffffffffffffffffffffffffffffffffffffff1673ffffffffffffffffffffffffffffffffffffffff16815260200190815260200160002060009054906101000a900473ffffffffffffffffffffffffffffffffffffffff1673ffffffffffffffffffffffffffffffffffffffff16146107e4576040517f08c379a00000000000000000000000000000000000000000000000000000000081526004016107db90610ce2565b60405180910390fd5b80600160008473ffffffffffffffffffffffffffffffffffffffff1673ffffffffffffffffffffffffffffffffffffffff16815260200190815260200160002060006101000a81548173ffffffffffffffffffffffffffffffffffffffff021916908373ffffffffffffffffffffffffffffffffffffffff1602179055506000600260008373ffffffffffffffffffffffffffffffffffffffff1673ffffffffffffffffffffffffffffffffffffffff16815260200190815260200160002060006101000a81548173ffffffffffffffffffffffffffffffffffffffff021916908373ffffffffffffffffffffffffffffffffffffffff1602179055507ff457100720fb97ccb67a26d8f3ce110d2c414903bb49b87f5c8bbb6f0649ac69816000604051610913929190610c50565b60405180910390a15050565b610927610ae6565b73ffffffffffffffffffffffffffffffffffffffff166109456103c9565b73ffffffffffffffffffffffffffffffffffffffff161461099b576040517f08c379a000000000000000000000000000000000000000000000000000000000815260040161099290610d22565b60405180910390fd5b600073ffffffffffffffffffffffffffffffffffffffff168173ffffffffffffffffffffffffffffffffffffffff161415610a0b576040517f08c379a0000000000000000000000000000000000000000000000000000000008152600401610a0290610cc2565b60405180910390fd5b8073ffffffffffffffffffffffffffffffffffffffff1660008054906101000a900473ffffffffffffffffffffffffffffffffffffffff1673ffffffffffffffffffffffffffffffffffffffff167f8be0079c531659141344cd1fd0a4f28419497f9722a3daafe3b4186f6b6457e060405160405180910390a3806000806101000a81548173ffffffffffffffffffffffffffffffffffffffff021916908373ffffffffffffffffffffffffffffffffffffffff16021790555050565b600080610ad4836101d5565b610add84610378565b91509150915091565b600033905090565b600081359050610afd81610ec3565b92915050565b600060208284031215610b1557600080fd5b6000610b2384828501610aee565b91505092915050565b60008060408385031215610b3f57600080fd5b6000610b4d85828601610aee565b9250506020610b5e85828601610aee565b9150509250929050565b610b7181610d6e565b82525050565b6000610b84601783610d5d565b9150610b8f82610daa565b602082019050919050565b6000610ba7602683610d5d565b9150610bb282610dd3565b604082019050919050565b6000610bca601c83610d5d565b9150610bd582610e22565b602082019050919050565b6000610bed602483610d5d565b9150610bf882610e4b565b604082019050919050565b6000610c10602083610d5d565b9150610c1b82610e9a565b602082019050919050565b610c2f81610da0565b82525050565b6000602082019050610c4a6000830184610b68565b92915050565b6000604082019050610c656000830185610b68565b610c726020830184610b68565b9392505050565b6000604082019050610c8e6000830185610b68565b610c9b6020830184610c26565b9392505050565b60006020820190508181036000830152610cbb81610b77565b9050919050565b60006020820190508181036000830152610cdb81610b9a565b9050919050565b60006020820190508181036000830152610cfb81610bbd565b9050919050565b60006020820190508181036000830152610d1b81610be0565b9050919050565b60006020820190508181036000830152610d3b81610c03565b9050919050565b6000602082019050610d576000830184610c26565b92915050565b600082825260208201905092915050565b6000610d7982610d80565b9050919050565b600073ffffffffffffffffffffffffffffffffffffffff82169050919050565b6000819050919050565b7f475356453a20496e76616c69642047617320546f6b656e000000000000000000600082015250565b7f4f776e61626c653a206e6577206f776e657220697320746865207a65726f206160008201527f6464726573730000000000000000000000000000000000000000000000000000602082015250565b7f475356453a206164647265737320616c726561647920696e6974276400000000600082015250565b7f475356453a2053656e646572206973206e6f742074686520736166652063726560008201527f61746f7200000000000000000000000000000000000000000000000000000000602082015250565b7f4f776e61626c653a2063616c6c6572206973206e6f7420746865206f776e6572600082015250565b610ecc81610d6e565b8114610ed757600080fd5b5056fea26469706673582212209eb74fa60cbfd5f3bb94d72092bce386cd1230828fae9bbcc572626e0134a0b064736f6c63430008040033",
  "immutableReferences": {},
  "source": "// SPDX-License-Identifier: MIT\r\npragma solidity ^0.8.0;\r\n\r\nimport \"@openzeppelin/contracts/access/Ownable.sol\";\r\n\r\ncontract GSVEBeacon is Ownable{\r\n    \r\n    mapping(address => address) private _deployedAddress;\r\n    mapping(address => address) private _addressGasToken;\r\n    mapping(address => uint256) private _supportedGasTokens;\r\n    \r\n    constructor (address _wchi, address _wgst2, address _wgst1) public {\r\n        //chi, gst2 and gst1\r\n        _supportedGasTokens[0x0000000000004946c0e9F43F4Dee607b0eF1fA1c] = 41130;\r\n        _supportedGasTokens[0x0000000000b3F879cb30FE243b4Dfee438691c04] = 41130;\r\n        _supportedGasTokens[0x88d60255F917e3eb94eaE199d827DAd837fac4cB] = 20130;\r\n\r\n        //wchi, wgst2 and wgst1\r\n        _supportedGasTokens[_wchi] = 41130;\r\n        _supportedGasTokens[_wgst2] = 41130;\r\n        _supportedGasTokens[_wgst1] = 20130;\r\n    }\r\n    \r\n    /**\r\n    * @dev return the location of a users deployed wrapper\r\n    */\r\n    function getDeployedAddress(address creator) public view returns(address){\r\n        return _deployedAddress[creator];\r\n    }\r\n\r\n    /**\r\n    * @dev return the gas token used by a safe\r\n    */\r\n    function getAddressGastoken(address safe) public view returns(address){\r\n        return _addressGasToken[safe];\r\n    }\r\n\r\n    /**\r\n    * @dev return the savings a gas token gives\r\n    */\r\n    function getAddressGasTokenSaving(address safe) public view returns(uint256){\r\n        return _supportedGasTokens[getAddressGastoken(safe)];\r\n    }\r\n    \r\n    /**\r\n    * @dev return the address and savings for a given safe proxy\r\n    */\r\n    function getGasTokenAndSaving(address safe) public view returns(address, uint256){\r\n        return (getAddressGastoken(safe), getAddressGasTokenSaving(safe));\r\n    }\r\n\r\n    /**\r\n    * @dev allows the creator of a safe to change the gas token used by the safe\r\n    */\r\n    function setAddressGasToken(address safe, address gasToken) public{\r\n        require(_deployedAddress[msg.sender] == safe, \"GSVE: Sender is not the safe creator\");\r\n        if (gasToken != address(0)){\r\n            require(_supportedGasTokens[gasToken] > 0, \"GSVE: Invalid Gas Token\");\r\n        }\r\n        _addressGasToken[safe] = gasToken;\r\n        emit UpdatedGasToken(safe, gasToken);\r\n    }\r\n\r\n    /**\r\n    * @dev sets the initial gas token of a given safe proxy\r\n    */\r\n    function initSafe(address owner, address safe) public onlyOwner{\r\n        require(_deployedAddress[owner] == address(0), \"GSVE: address already init'd\");\r\n        _deployedAddress[owner] = safe;\r\n        _addressGasToken[safe] = address(0);\r\n        emit UpdatedGasToken(safe, address(0));\r\n    }\r\n\r\n    event UpdatedGasToken(address safe, address gasToken);\r\n\r\n}",
  "sourcePath": "C:/Users/khera/Documents/GitHub/GasSwapTokens/contracts/GSVEBeacon.sol",
  "compiler": {
    "name": "solc",
    "version": "0.8.4+commit.c7e474f2.Emscripten.clang"
  },
  "schemaVersion": "3.3.4",
  "updatedAt": "2021-05-14T08:01:05.693Z",
  "networkType": "ethereum",
  "devdoc": {
    "kind": "dev",
    "methods": {
      "getAddressGasTokenSaving(address)": {
        "details": "return the savings a gas token gives"
      },
      "getAddressGastoken(address)": {
        "details": "return the gas token used by a safe"
      },
      "getDeployedAddress(address)": {
        "details": "return the location of a users deployed wrapper"
      },
      "getGasTokenAndSaving(address)": {
        "details": "return the address and savings for a given safe proxy"
      },
      "initSafe(address,address)": {
        "details": "sets the initial gas token of a given safe proxy"
      },
      "owner()": {
        "details": "Returns the address of the current owner."
      },
      "renounceOwnership()": {
        "details": "Leaves the contract without owner. It will not be possible to call `onlyOwner` functions anymore. Can only be called by the current owner. NOTE: Renouncing ownership will leave the contract without an owner, thereby removing any functionality that is only available to the owner."
      },
      "setAddressGasToken(address,address)": {
        "details": "allows the creator of a safe to change the gas token used by the safe"
      },
      "transferOwnership(address)": {
        "details": "Transfers ownership of the contract to a new account (`newOwner`). Can only be called by the current owner."
      }
    },
    "version": 1
  },
  "userdoc": {
    "kind": "user",
    "methods": {},
    "version": 1
  }
}