{
  "contractName": "ProxyFactory",
  "abi": [
    {
      "inputs": [
        {
          "internalType": "address",
          "name": "_GSVEToken",
          "type": "address"
        },
        {
          "internalType": "address",
          "name": "_GSVEBeacon",
          "type": "address"
        }
      ],
      "payable": false,
      "stateMutability": "nonpayable",
      "type": "constructor"
    },
    {
      "anonymous": false,
      "inputs": [
        {
          "indexed": false,
          "internalType": "contract Proxy",
          "name": "proxy",
          "type": "address"
        }
      ],
      "name": "ProxyCreation",
      "type": "event"
    },
    {
      "constant": true,
      "inputs": [],
      "name": "GSVEBeacon",
      "outputs": [
        {
          "internalType": "address",
          "name": "",
          "type": "address"
        }
      ],
      "payable": false,
      "stateMutability": "view",
      "type": "function"
    },
    {
      "constant": true,
      "inputs": [],
      "name": "GSVEToken",
      "outputs": [
        {
          "internalType": "address",
          "name": "",
          "type": "address"
        }
      ],
      "payable": false,
      "stateMutability": "view",
      "type": "function"
    },
    {
      "constant": false,
      "inputs": [
        {
          "internalType": "address",
          "name": "masterCopy",
          "type": "address"
        },
        {
          "internalType": "bytes",
          "name": "data",
          "type": "bytes"
        }
      ],
      "name": "createProxy",
      "outputs": [
        {
          "internalType": "contract Proxy",
          "name": "proxy",
          "type": "address"
        }
      ],
      "payable": false,
      "stateMutability": "nonpayable",
      "type": "function"
    },
    {
      "constant": true,
      "inputs": [],
      "name": "proxyRuntimeCode",
      "outputs": [
        {
          "internalType": "bytes",
          "name": "",
          "type": "bytes"
        }
      ],
      "payable": false,
      "stateMutability": "pure",
      "type": "function"
    },
    {
      "constant": true,
      "inputs": [],
      "name": "proxyCreationCode",
      "outputs": [
        {
          "internalType": "bytes",
          "name": "",
          "type": "bytes"
        }
      ],
      "payable": false,
      "stateMutability": "pure",
      "type": "function"
    },
    {
      "constant": false,
      "inputs": [
        {
          "internalType": "address",
          "name": "_mastercopy",
          "type": "address"
        },
        {
          "internalType": "bytes",
          "name": "initializer",
          "type": "bytes"
        },
        {
          "internalType": "uint256",
          "name": "saltNonce",
          "type": "uint256"
        }
      ],
      "name": "createProxyWithNonce",
      "outputs": [
        {
          "internalType": "contract Proxy",
          "name": "proxy",
          "type": "address"
        }
      ],
      "payable": false,
      "stateMutability": "nonpayable",
      "type": "function"
    }
  ],
  "bytecode": "0x608060405234801561001057600080fd5b50604051610e6c380380610e6c8339818101604052604081101561003357600080fd5b508051602090910151600080546001600160a01b039384166001600160a01b03199182161790915560018054939092169216919091179055610df28061007a6000396000f3fe608060405234801561001057600080fd5b50600436106100725760003560e01c80636bc41e5b116100505780636bc41e5b1461027e578063a8cbadba14610286578063addacc0f1461028e57610072565b80631688f0b91461007757806353e5d9351461014b57806361b69abd146101c8575b600080fd5b61012f6004803603606081101561008d57600080fd5b6001600160a01b0382351691908101906040810160208201356401000000008111156100b857600080fd5b8201836020820111156100ca57600080fd5b803590602001918460018302840111640100000000831117156100ec57600080fd5b91908080601f0160208091040260200160405190810160405280939291908181526020018383808284376000920191909152509295505091359250610296915050565b604080516001600160a01b039092168252519081900360200190f35b61015361041b565b6040805160208082528351818301528351919283929083019185019080838360005b8381101561018d578181015183820152602001610175565b50505050905090810190601f1680156101ba5780820380516001836020036101000a031916815260200191505b509250505060405180910390f35b61012f600480360360408110156101de57600080fd5b6001600160a01b03823516919081019060408101602082013564010000000081111561020957600080fd5b82018360208201111561021b57600080fd5b8035906020019184600183028401116401000000008311171561023d57600080fd5b91908080601f016020809104026020016040519081016040528093929190818152602001838380828437600092019190915250929550610445945050505050565b61012f6104e9565b61012f6104f8565b610153610507565b60008054604080517f79cc67900000000000000000000000000000000000000000000000000000000081523360048201526802b5e3af16b1880000602482015290516001600160a01b03909216916379cc679091604480820192869290919082900301818387803b15801561030a57600080fd5b505af115801561031e573d6000803e3d6000fd5b5050505061032d848484610519565b8351909150156103525760008060008551602087016000865af1141561035257600080fd5b600154604080517fa49985710000000000000000000000000000000000000000000000000000000081523360048201526001600160a01b0384811660248301529151919092169163a499857191604480830192600092919082900301818387803b1580156103bf57600080fd5b505af11580156103d3573d6000803e3d6000fd5b5050604080516001600160a01b038516815290517fa38789425dbeee0239e16ff2d2567e31720127fbc6430758c1a4efc6aef29f809350908190036020019150a19392505050565b60606040518060200161042d90610691565b601f1982820381018352601f90910116604052905090565b60008260405161045490610691565b6001600160a01b03909116815260405190819003602001906000f080158015610481573d6000803e3d6000fd5b508251909150156104a75760008060008451602086016000865af114156104a757600080fd5b604080516001600160a01b038316815290517fa38789425dbeee0239e16ff2d2567e31720127fbc6430758c1a4efc6aef29f809181900360200190a192915050565b6000546001600160a01b031681565b6001546001600160a01b031681565b60606040518060200161042d9061069e565b600080838051906020012083604051602001808381526020018281526020019250505060405160208183030381529060405280519060200120905060606040518060200161056690610691565b6020820181038252601f19601f82011660405250866001600160a01b03166040516020018083805190602001908083835b602083106105b65780518252601f199092019160209182019101610597565b51815160209384036101000a7fffffffffffffffffffffffffffffffffffffffffffffffffffffffffffffffff018019909216911617905292019384525060408051808503815293820190528251929450859350840190506000f592506001600160a01b03831661068857604080517f08c379a000000000000000000000000000000000000000000000000000000000815260206004820152601360248201527f437265617465322063616c6c206661696c656400000000000000000000000000604482015290519081900360640190fd5b50509392505050565b6103f0806106ac83390190565b61032280610a9c8339019056fe608060405234801561001057600080fd5b506040516103f03803806103f08339818101604052602081101561003357600080fd5b50516001600160a01b03811661007a5760405162461bcd60e51b81526004018080602001828103825260248152602001806103cc6024913960400191505060405180910390fd5b600080546001600160a01b039092166001600160a01b0319909216919091179055610322806100aa6000396000f3fe608060405260005a9050600080606073ffffffffffffffffffffffffffffffffffffffff600054167fa619486e00000000000000000000000000000000000000000000000000000000600035141561005b578060005260206000f35b60405191503660008037600080366000845af492503d6000833e506102403d602002016040523d925060005a6010360286010361520801905061bb808110156100ab57826100a7578382fd5b8382f35b604080517f2970973f00000000000000000000000000000000000000000000000000000000815230600482015290517370aee69e2cbbc02fb387a5915318cd6c88df4c96916000918391632970973f916024808301926020929190829003018186803b15801561011a57600080fd5b505afa15801561012e573d6000803e3d6000fd5b505050506040513d602081101561014457600080fd5b5051905073ffffffffffffffffffffffffffffffffffffffff8116610170578461016c578584fd5b8584f35b604080517f7f3258ce000000000000000000000000000000000000000000000000000000008152306004820152905160009173ffffffffffffffffffffffffffffffffffffffff851691637f3258ce91602480820192602092909190829003018186803b1580156101e057600080fd5b505afa1580156101f4573d6000803e3d6000fd5b505050506040513d602081101561020a57600080fd5b505190505a60003690506010028961520801010393508173ffffffffffffffffffffffffffffffffffffffff1663079d229f338387613e80018161024a57fe5b046040518363ffffffff1660e01b8152600401808373ffffffffffffffffffffffffffffffffffffffff1673ffffffffffffffffffffffffffffffffffffffff16815260200182815260200192505050602060405180830381600087803b1580156102b457600080fd5b505af11580156102c8573d6000803e3d6000fd5b505050506040513d60208110156102de57600080fd5b5050856102e9578685fd5b8685f3fea265627a7a72315820a24c815a6b4713ace989a33fc2b026357b3d61d54204a7a0d95913cddccb149064736f6c63430005110032496e76616c6964206d617374657220636f707920616464726573732070726f7669646564608060405260005a9050600080606073ffffffffffffffffffffffffffffffffffffffff600054167fa619486e00000000000000000000000000000000000000000000000000000000600035141561005b578060005260206000f35b60405191503660008037600080366000845af492503d6000833e506102403d602002016040523d925060005a6010360286010361520801905061bb808110156100ab57826100a7578382fd5b8382f35b604080517f2970973f00000000000000000000000000000000000000000000000000000000815230600482015290517370aee69e2cbbc02fb387a5915318cd6c88df4c96916000918391632970973f916024808301926020929190829003018186803b15801561011a57600080fd5b505afa15801561012e573d6000803e3d6000fd5b505050506040513d602081101561014457600080fd5b5051905073ffffffffffffffffffffffffffffffffffffffff8116610170578461016c578584fd5b8584f35b604080517f7f3258ce000000000000000000000000000000000000000000000000000000008152306004820152905160009173ffffffffffffffffffffffffffffffffffffffff851691637f3258ce91602480820192602092909190829003018186803b1580156101e057600080fd5b505afa1580156101f4573d6000803e3d6000fd5b505050506040513d602081101561020a57600080fd5b505190505a60003690506010028961520801010393508173ffffffffffffffffffffffffffffffffffffffff1663079d229f338387613e80018161024a57fe5b046040518363ffffffff1660e01b8152600401808373ffffffffffffffffffffffffffffffffffffffff1673ffffffffffffffffffffffffffffffffffffffff16815260200182815260200192505050602060405180830381600087803b1580156102b457600080fd5b505af11580156102c8573d6000803e3d6000fd5b505050506040513d60208110156102de57600080fd5b5050856102e9578685fd5b8685f3fea265627a7a72315820a24c815a6b4713ace989a33fc2b026357b3d61d54204a7a0d95913cddccb149064736f6c63430005110032a265627a7a72315820a15a669cd96bb6072aed8c41281dacab9051aa099a0a6418bf6bfda632bffeba64736f6c63430005110032",
  "source": "// SPDX-License-Identifier: MIT\r\npragma solidity ^0.5.3;\r\n\r\nimport \"./Proxy.sol\";\r\n\r\ninterface IProxyCreationCallback {\r\n    function proxyCreated(Proxy proxy, address _mastercopy, bytes calldata initializer, uint256 saltNonce) external;\r\n}\r\n\r\n/// @title IProxy - Helper interface to access masterCopy of the Proxy on-chain\r\n/// @author Richard Meissner - <richard@gnosis.io>\r\ninterface IProxy {\r\n    function masterCopy() external view returns (address);\r\n}\r\n\r\n/**\r\n* @dev interface to allow gsve to be burned for upgrades\r\n*/\r\ninterface IGSVEToken {\r\n    function burnFrom(address account, uint256 amount) external;\r\n}\r\n\r\n/**\r\n* @dev interface to allow gsve to be burned for upgrades\r\n*/\r\ninterface IGSVEBeacon {\r\n    function initSafe(address owner, address safe) external;\r\n}\r\n\r\n/// @title Proxy Factory - Allows to create new proxy contact and execute a message call to the new proxy within one transaction.\r\n/// @author Stefan George - <stefan@gnosis.pm>\r\ncontract ProxyFactory {\r\n    address public GSVEToken;\r\n    address public GSVEBeacon;\r\n    event ProxyCreation(Proxy proxy);\r\n    \r\n    constructor (address _GSVEToken, address _GSVEBeacon) public {\r\n        GSVEToken = _GSVEToken;\r\n        GSVEBeacon = _GSVEBeacon;\r\n    }\r\n    \r\n\r\n    /// @dev Allows to create new proxy contact and execute a message call to the new proxy within one transaction.\r\n    /// @param masterCopy Address of master copy.\r\n    /// @param data Payload for message call sent to new proxy contract.\r\n    function createProxy(address masterCopy, bytes memory data)\r\n        public\r\n        returns (Proxy proxy)\r\n    {\r\n        proxy = new Proxy(masterCopy);\r\n        if (data.length > 0)\r\n            // solium-disable-next-line security/no-inline-assembly\r\n            assembly {\r\n                if eq(call(gas, proxy, 0, add(data, 0x20), mload(data), 0, 0), 0) { revert(0, 0) }\r\n            }\r\n        emit ProxyCreation(proxy);\r\n    }\r\n\r\n    /// @dev Allows to retrieve the runtime code of a deployed Proxy. This can be used to check that the expected Proxy was deployed.\r\n    function proxyRuntimeCode() public pure returns (bytes memory) {\r\n        return type(Proxy).runtimeCode;\r\n    }\r\n\r\n    /// @dev Allows to retrieve the creation code used for the Proxy deployment. With this it is easily possible to calculate predicted address.\r\n    function proxyCreationCode() public pure returns (bytes memory) {\r\n        return type(Proxy).creationCode;\r\n    }\r\n\r\n    /// @dev Allows to create new proxy contact using CREATE2 but it doesn't run the initializer.\r\n    ///      This method is only meant as an utility to be called from other methods\r\n    /// @param _mastercopy Address of master copy.\r\n    /// @param initializer Payload for message call sent to new proxy contract.\r\n    /// @param saltNonce Nonce that will be used to generate the salt to calculate the address of the new proxy contract.\r\n    function deployProxyWithNonce(address _mastercopy, bytes memory initializer, uint256 saltNonce)\r\n        internal\r\n        returns (Proxy proxy)\r\n    {\r\n        // If the initializer changes the proxy address should change too. Hashing the initializer data is cheaper than just concatinating it\r\n        bytes32 salt = keccak256(abi.encodePacked(keccak256(initializer), saltNonce));\r\n        bytes memory deploymentData = abi.encodePacked(type(Proxy).creationCode, uint256(_mastercopy));\r\n        // solium-disable-next-line security/no-inline-assembly\r\n        assembly {\r\n            proxy := create2(0x0, add(0x20, deploymentData), mload(deploymentData), salt)\r\n        }\r\n        require(address(proxy) != address(0), \"Create2 call failed\");\r\n    }\r\n\r\n    /// @dev Allows to create new proxy contact and execute a message call to the new proxy within one transaction.\r\n    /// @param _mastercopy Address of master copy.\r\n    /// @param initializer Payload for message call sent to new proxy contract.\r\n    /// @param saltNonce Nonce that will be used to generate the salt to calculate the address of the new proxy contract.\r\n    function createProxyWithNonce(address _mastercopy, bytes memory initializer, uint256 saltNonce)\r\n        public\r\n        returns (Proxy proxy)\r\n    {\r\n        IGSVEToken(GSVEToken).burnFrom(msg.sender, 50*10**18);\r\n        proxy = deployProxyWithNonce(_mastercopy, initializer, saltNonce);\r\n        if (initializer.length > 0)\r\n            // solium-disable-next-line security/no-inline-assembly\r\n            assembly {\r\n                if eq(call(gas, proxy, 0, add(initializer, 0x20), mload(initializer), 0, 0), 0) { revert(0,0) }\r\n            }\r\n\r\n        IGSVEBeacon(GSVEBeacon).initSafe(msg.sender, address(proxy));\r\n        emit ProxyCreation(proxy);\r\n    }\r\n}\r\n",
  "sourcePath": "C:/Users/khera/Documents/GitHub/Gnosis/contracts/ProxyFactory.sol",
  "compiler": {
    "name": "solc",
    "version": "0.5.17+commit.d19bba13.Emscripten.clang"
  },
  "schemaVersion": "3.3.4",
  "updatedAt": "2021-05-14T18:09:30.790Z",
  "networkType": "ethereum",
  "devdoc": {
    "author": "Stefan George - <stefan@gnosis.pm>",
    "methods": {
      "createProxy(address,bytes)": {
        "details": "Allows to create new proxy contact and execute a message call to the new proxy within one transaction.",
        "params": {
          "data": "Payload for message call sent to new proxy contract.",
          "masterCopy": "Address of master copy."
        }
      },
      "createProxyWithNonce(address,bytes,uint256)": {
        "details": "Allows to create new proxy contact and execute a message call to the new proxy within one transaction.",
        "params": {
          "_mastercopy": "Address of master copy.",
          "initializer": "Payload for message call sent to new proxy contract.",
          "saltNonce": "Nonce that will be used to generate the salt to calculate the address of the new proxy contract."
        }
      },
      "proxyCreationCode()": {
        "details": "Allows to retrieve the creation code used for the Proxy deployment. With this it is easily possible to calculate predicted address."
      },
      "proxyRuntimeCode()": {
        "details": "Allows to retrieve the runtime code of a deployed Proxy. This can be used to check that the expected Proxy was deployed."
      }
    },
    "title": "Proxy Factory - Allows to create new proxy contact and execute a message call to the new proxy within one transaction."
  },
  "userdoc": {
    "methods": {}
  }
}