{
  "contractName": "ProxyFactory",
  "abi": [
    {
      "constant": true,
      "inputs": [],
      "name": "GSVEToken",
      "outputs": [
        {
          "name": "",
          "type": "address"
        }
      ],
      "payable": false,
      "stateMutability": "view",
      "type": "function"
    },
    {
      "constant": true,
      "inputs": [],
      "name": "GSVEBeacon",
      "outputs": [
        {
          "name": "",
          "type": "address"
        }
      ],
      "payable": false,
      "stateMutability": "view",
      "type": "function"
    },
    {
      "inputs": [
        {
          "name": "_GSVEToken",
          "type": "address"
        },
        {
          "name": "_GSVEBeacon",
          "type": "address"
        }
      ],
      "payable": false,
      "stateMutability": "nonpayable",
      "type": "constructor"
    },
    {
      "anonymous": false,
      "inputs": [
        {
          "indexed": false,
          "name": "proxy",
          "type": "address"
        }
      ],
      "name": "ProxyCreation",
      "type": "event"
    },
    {
      "constant": false,
      "inputs": [
        {
          "name": "masterCopy",
          "type": "address"
        },
        {
          "name": "data",
          "type": "bytes"
        }
      ],
      "name": "createProxy",
      "outputs": [
        {
          "name": "proxy",
          "type": "address"
        }
      ],
      "payable": false,
      "stateMutability": "nonpayable",
      "type": "function"
    },
    {
      "constant": true,
      "inputs": [],
      "name": "proxyRuntimeCode",
      "outputs": [
        {
          "name": "",
          "type": "bytes"
        }
      ],
      "payable": false,
      "stateMutability": "pure",
      "type": "function"
    },
    {
      "constant": true,
      "inputs": [],
      "name": "proxyCreationCode",
      "outputs": [
        {
          "name": "",
          "type": "bytes"
        }
      ],
      "payable": false,
      "stateMutability": "pure",
      "type": "function"
    },
    {
      "constant": false,
      "inputs": [
        {
          "name": "_mastercopy",
          "type": "address"
        },
        {
          "name": "initializer",
          "type": "bytes"
        },
        {
          "name": "saltNonce",
          "type": "uint256"
        }
      ],
      "name": "createProxyWithNonce",
      "outputs": [
        {
          "name": "proxy",
          "type": "address"
        }
      ],
      "payable": false,
      "stateMutability": "nonpayable",
      "type": "function"
    }
  ],
  "bytecode": "0x608060405234801561001057600080fd5b50604051604080610d798339810180604052604081101561003057600080fd5b810190808051906020019092919080519060200190929190505050816000806101000a81548173ffffffffffffffffffffffffffffffffffffffff021916908373ffffffffffffffffffffffffffffffffffffffff16021790555080600160006101000a81548173ffffffffffffffffffffffffffffffffffffffff021916908373ffffffffffffffffffffffffffffffffffffffff1602179055505050610c9c806100dd6000396000f3fe608060405234801561001057600080fd5b50600436106100625760003560e01c80631688f0b91461006757806353e5d9351461018c57806361b69abd1461020f5780636bc41e5b1461032a578063a8cbadba14610374578063addacc0f146103be575b600080fd5b61014a6004803603606081101561007d57600080fd5b81019080803573ffffffffffffffffffffffffffffffffffffffff169060200190929190803590602001906401000000008111156100ba57600080fd5b8201836020820111156100cc57600080fd5b803590602001918460018302840111640100000000831117156100ee57600080fd5b91908080601f016020809104026020016040519081016040528093929190818152602001838380828437600081840152601f19601f82011690508083019250505050505050919291929080359060200190929190505050610441565b604051808273ffffffffffffffffffffffffffffffffffffffff1673ffffffffffffffffffffffffffffffffffffffff16815260200191505060405180910390f35b610194610696565b6040518080602001828103825283818151815260200191508051906020019080838360005b838110156101d45780820151818401526020810190506101b9565b50505050905090810190601f1680156102015780820380516001836020036101000a031916815260200191505b509250505060405180910390f35b6102e86004803603604081101561022557600080fd5b81019080803573ffffffffffffffffffffffffffffffffffffffff1690602001909291908035906020019064010000000081111561026257600080fd5b82018360208201111561027457600080fd5b8035906020019184600183028401116401000000008311171561029657600080fd5b91908080601f016020809104026020016040519081016040528093929190818152602001838380828437600081840152601f19601f8201169050808301925050505050505091929192905050506106c1565b604051808273ffffffffffffffffffffffffffffffffffffffff1673ffffffffffffffffffffffffffffffffffffffff16815260200191505060405180910390f35b6103326107b4565b604051808273ffffffffffffffffffffffffffffffffffffffff1673ffffffffffffffffffffffffffffffffffffffff16815260200191505060405180910390f35b61037c6107d9565b604051808273ffffffffffffffffffffffffffffffffffffffff1673ffffffffffffffffffffffffffffffffffffffff16815260200191505060405180910390f35b6103c66107ff565b6040518080602001828103825283818151815260200191508051906020019080838360005b838110156104065780820151818401526020810190506103eb565b50505050905090810190601f1680156104335780820380516001836020036101000a031916815260200191505b509250505060405180910390f35b60008060009054906101000a900473ffffffffffffffffffffffffffffffffffffffff1673ffffffffffffffffffffffffffffffffffffffff166379cc6790336802b5e3af16b18800006040518363ffffffff1660e01b8152600401808373ffffffffffffffffffffffffffffffffffffffff1673ffffffffffffffffffffffffffffffffffffffff16815260200182815260200192505050600060405180830381600087803b1580156104f457600080fd5b505af1158015610508573d6000803e3d6000fd5b5050505061051784848461082a565b905060008351111561053f5760008060008551602087016000865af1141561053e57600080fd5b5b600160009054906101000a900473ffffffffffffffffffffffffffffffffffffffff1673ffffffffffffffffffffffffffffffffffffffff1663a499857133836040518363ffffffff1660e01b8152600401808373ffffffffffffffffffffffffffffffffffffffff1673ffffffffffffffffffffffffffffffffffffffff1681526020018273ffffffffffffffffffffffffffffffffffffffff1673ffffffffffffffffffffffffffffffffffffffff16815260200192505050600060405180830381600087803b15801561061457600080fd5b505af1158015610628573d6000803e3d6000fd5b505050507fa38789425dbeee0239e16ff2d2567e31720127fbc6430758c1a4efc6aef29f8081604051808273ffffffffffffffffffffffffffffffffffffffff1673ffffffffffffffffffffffffffffffffffffffff16815260200191505060405180910390a19392505050565b6060604051806020016106a8906109cd565b6020820181038252601f19601f82011660405250905090565b6000826040516106d0906109cd565b808273ffffffffffffffffffffffffffffffffffffffff1673ffffffffffffffffffffffffffffffffffffffff168152602001915050604051809103906000f080158015610722573d6000803e3d6000fd5b50905060008251111561074b5760008060008451602086016000865af1141561074a57600080fd5b5b7fa38789425dbeee0239e16ff2d2567e31720127fbc6430758c1a4efc6aef29f8081604051808273ffffffffffffffffffffffffffffffffffffffff1673ffffffffffffffffffffffffffffffffffffffff16815260200191505060405180910390a192915050565b6000809054906101000a900473ffffffffffffffffffffffffffffffffffffffff1681565b600160009054906101000a900473ffffffffffffffffffffffffffffffffffffffff1681565b606060405180602001610811906109da565b6020820181038252601f19601f82011660405250905090565b6000808380519060200120836040516020018083815260200182815260200192505050604051602081830303815290604052805190602001209050606060405180602001610877906109cd565b6020820181038252601f19601f820116604052508673ffffffffffffffffffffffffffffffffffffffff166040516020018083805190602001908083835b602083106108d857805182526020820191506020810190506020830392506108b5565b6001836020036101000a038019825116818451168082178552505050505050905001828152602001925050506040516020818303038152906040529050818151826020016000f59250600073ffffffffffffffffffffffffffffffffffffffff168373ffffffffffffffffffffffffffffffffffffffff1614156109c4576040517f08c379a00000000000000000000000000000000000000000000000000000000081526004018080602001828103825260138152602001807f437265617465322063616c6c206661696c65640000000000000000000000000081525060200191505060405180910390fd5b50509392505050565b6101e2806109e783390190565b60a880610bc98339019056fe608060405234801561001057600080fd5b506040516020806101e28339810180604052602081101561003057600080fd5b8101908080519060200190929190505050600073ffffffffffffffffffffffffffffffffffffffff168173ffffffffffffffffffffffffffffffffffffffff1614156100c7576040517f08c379a00000000000000000000000000000000000000000000000000000000081526004018080602001828103825260248152602001806101be6024913960400191505060405180910390fd5b806000806101000a81548173ffffffffffffffffffffffffffffffffffffffff021916908373ffffffffffffffffffffffffffffffffffffffff1602179055505060a8806101166000396000f3fe6080604052600160005a905073ffffffffffffffffffffffffffffffffffffffff600054167fa619486e0000000000000000000000000000000000000000000000000000000060003514156057578060005260206000f35b3660008037600080366000845af43d6000803e60008114156077573d6000fd5b3d6000f3fea165627a7a72305820e058d111e6013961dd3a93b8efe2b096f53aaba14560be3a921652b98626e5cf0029496e76616c6964206d617374657220636f707920616464726573732070726f76696465646080604052600160005a905073ffffffffffffffffffffffffffffffffffffffff600054167fa619486e0000000000000000000000000000000000000000000000000000000060003514156057578060005260206000f35b3660008037600080366000845af43d6000803e60008114156077573d6000fd5b3d6000f3fea165627a7a72305820e058d111e6013961dd3a93b8efe2b096f53aaba14560be3a921652b98626e5cf0029a165627a7a723058209f44e0c84286aa941f8af9e3c8ab741e1632624294a2c4456920c54db5f218580029",
  "source": "// SPDX-License-Identifier: MIT\r\npragma solidity ^0.5.3;\r\n\r\nimport \"./IGSVEBeacon.sol\";\r\nimport \"./Proxy.sol\";\r\n\r\ninterface IProxyCreationCallback {\r\n    function proxyCreated(Proxy proxy, address _mastercopy, bytes calldata initializer, uint256 saltNonce) external;\r\n}\r\n\r\n/// @title IProxy - Helper interface to access masterCopy of the Proxy on-chain\r\n/// @author Richard Meissner - <richard@gnosis.io>\r\ninterface IProxy {\r\n    function masterCopy() external view returns (address);\r\n}\r\n\r\n/**\r\n* @dev interface to allow gsve to be burned for upgrades\r\n*/\r\ninterface IGSVEToken {\r\n    function burnFrom(address account, uint256 amount) external;\r\n}\r\n\r\n/// @title Proxy Factory - Allows to create new proxy contact and execute a message call to the new proxy within one transaction.\r\n/// @author Stefan George - <stefan@gnosis.pm>\r\ncontract ProxyFactory {\r\n    address public GSVEToken;\r\n    address public GSVEBeacon;\r\n    event ProxyCreation(Proxy proxy);\r\n    \r\n    constructor (address _GSVEToken, address _GSVEBeacon) public {\r\n        GSVEToken = _GSVEToken;\r\n        GSVEBeacon = _GSVEBeacon;\r\n    }\r\n    \r\n\r\n    /// @dev Allows to create new proxy contact and execute a message call to the new proxy within one transaction.\r\n    /// @param masterCopy Address of master copy.\r\n    /// @param data Payload for message call sent to new proxy contract.\r\n    function createProxy(address masterCopy, bytes memory data)\r\n        public\r\n        returns (Proxy proxy)\r\n    {\r\n        proxy = new Proxy(masterCopy);\r\n        if (data.length > 0)\r\n            // solium-disable-next-line security/no-inline-assembly\r\n            assembly {\r\n                if eq(call(gas, proxy, 0, add(data, 0x20), mload(data), 0, 0), 0) { revert(0, 0) }\r\n            }\r\n        emit ProxyCreation(proxy);\r\n    }\r\n\r\n    /// @dev Allows to retrieve the runtime code of a deployed Proxy. This can be used to check that the expected Proxy was deployed.\r\n    function proxyRuntimeCode() public pure returns (bytes memory) {\r\n        return type(Proxy).runtimeCode;\r\n    }\r\n\r\n    /// @dev Allows to retrieve the creation code used for the Proxy deployment. With this it is easily possible to calculate predicted address.\r\n    function proxyCreationCode() public pure returns (bytes memory) {\r\n        return type(Proxy).creationCode;\r\n    }\r\n\r\n    /// @dev Allows to create new proxy contact using CREATE2 but it doesn't run the initializer.\r\n    ///      This method is only meant as an utility to be called from other methods\r\n    /// @param _mastercopy Address of master copy.\r\n    /// @param initializer Payload for message call sent to new proxy contract.\r\n    /// @param saltNonce Nonce that will be used to generate the salt to calculate the address of the new proxy contract.\r\n    function deployProxyWithNonce(address _mastercopy, bytes memory initializer, uint256 saltNonce)\r\n        internal\r\n        returns (Proxy proxy)\r\n    {\r\n        // If the initializer changes the proxy address should change too. Hashing the initializer data is cheaper than just concatinating it\r\n        bytes32 salt = keccak256(abi.encodePacked(keccak256(initializer), saltNonce));\r\n        bytes memory deploymentData = abi.encodePacked(type(Proxy).creationCode, uint256(_mastercopy));\r\n        // solium-disable-next-line security/no-inline-assembly\r\n        assembly {\r\n            proxy := create2(0x0, add(0x20, deploymentData), mload(deploymentData), salt)\r\n        }\r\n        require(address(proxy) != address(0), \"Create2 call failed\");\r\n    }\r\n\r\n    /// @dev Allows to create new proxy contact and execute a message call to the new proxy within one transaction.\r\n    /// @param _mastercopy Address of master copy.\r\n    /// @param initializer Payload for message call sent to new proxy contract.\r\n    /// @param saltNonce Nonce that will be used to generate the salt to calculate the address of the new proxy contract.\r\n    function createProxyWithNonce(address _mastercopy, bytes memory initializer, uint256 saltNonce)\r\n        public\r\n        returns (Proxy proxy)\r\n    {\r\n        IGSVEToken(GSVEToken).burnFrom(msg.sender, 50*10**18);\r\n        proxy = deployProxyWithNonce(_mastercopy, initializer, saltNonce);\r\n        if (initializer.length > 0)\r\n            // solium-disable-next-line security/no-inline-assembly\r\n            assembly {\r\n                if eq(call(gas, proxy, 0, add(initializer, 0x20), mload(initializer), 0, 0), 0) { revert(0,0) }\r\n            }\r\n\r\n        IGSVEBeacon(GSVEBeacon).initSafe(msg.sender, address(proxy));\r\n        emit ProxyCreation(proxy);\r\n    }\r\n}\r\n",
  "sourcePath": "C:/Users/khera/Documents/GitHub/Gnosis/contracts/ProxyFactory.sol",
  "compiler": {
    "name": "solc",
    "version": "0.5.7+commit.6da8b019.Emscripten.clang"
  },
  "schemaVersion": "3.3.4",
  "updatedAt": "2021-05-12T21:24:32.885Z",
  "networkType": "ethereum",
  "devdoc": {
    "author": "Stefan George - <stefan@gnosis.pm>",
    "methods": {
      "createProxy(address,bytes)": {
        "params": {
          "data": "Payload for message call sent to new proxy contract."
        }
      },
      "createProxyWithNonce(address,bytes,uint256)": {
        "params": {
          "saltNonce": "Nonce that will be used to generate the salt to calculate the address of the new proxy contract."
        }
      },
      "proxyCreationCode()": {
        "details": "Allows to retrieve the creation code used for the Proxy deployment. With this it is easily possible to calculate predicted address."
      },
      "proxyRuntimeCode()": {
        "details": "Allows to retrieve the runtime code of a deployed Proxy. This can be used to check that the expected Proxy was deployed."
      }
    }
  },
  "userdoc": {
    "methods": {}
  }
}