{
  "contractName": "WrappedGasToken",
  "abi": [
    {
      "inputs": [
        {
          "internalType": "address",
          "name": "_tokenAddress",
          "type": "address"
        },
        {
          "internalType": "address",
          "name": "_feeAddress",
          "type": "address"
        },
        {
          "internalType": "string",
          "name": "_name",
          "type": "string"
        },
        {
          "internalType": "string",
          "name": "_symbol",
          "type": "string"
        }
      ],
      "stateMutability": "nonpayable",
      "type": "constructor"
    },
    {
      "anonymous": false,
      "inputs": [
        {
          "indexed": true,
          "internalType": "address",
          "name": "owner",
          "type": "address"
        },
        {
          "indexed": true,
          "internalType": "address",
          "name": "spender",
          "type": "address"
        },
        {
          "indexed": false,
          "internalType": "uint256",
          "name": "value",
          "type": "uint256"
        }
      ],
      "name": "Approval",
      "type": "event"
    },
    {
      "anonymous": false,
      "inputs": [
        {
          "indexed": true,
          "internalType": "address",
          "name": "previousOwner",
          "type": "address"
        },
        {
          "indexed": true,
          "internalType": "address",
          "name": "newOwner",
          "type": "address"
        }
      ],
      "name": "OwnershipTransferred",
      "type": "event"
    },
    {
      "anonymous": false,
      "inputs": [
        {
          "indexed": true,
          "internalType": "address",
          "name": "from",
          "type": "address"
        },
        {
          "indexed": true,
          "internalType": "address",
          "name": "to",
          "type": "address"
        },
        {
          "indexed": false,
          "internalType": "uint256",
          "name": "value",
          "type": "uint256"
        }
      ],
      "name": "Transfer",
      "type": "event"
    },
    {
      "inputs": [
        {
          "internalType": "address",
          "name": "owner",
          "type": "address"
        },
        {
          "internalType": "address",
          "name": "spender",
          "type": "address"
        }
      ],
      "name": "allowance",
      "outputs": [
        {
          "internalType": "uint256",
          "name": "",
          "type": "uint256"
        }
      ],
      "stateMutability": "view",
      "type": "function",
      "constant": true
    },
    {
      "inputs": [
        {
          "internalType": "address",
          "name": "spender",
          "type": "address"
        },
        {
          "internalType": "uint256",
          "name": "amount",
          "type": "uint256"
        }
      ],
      "name": "approve",
      "outputs": [
        {
          "internalType": "bool",
          "name": "",
          "type": "bool"
        }
      ],
      "stateMutability": "nonpayable",
      "type": "function"
    },
    {
      "inputs": [
        {
          "internalType": "address",
          "name": "account",
          "type": "address"
        }
      ],
      "name": "balanceOf",
      "outputs": [
        {
          "internalType": "uint256",
          "name": "",
          "type": "uint256"
        }
      ],
      "stateMutability": "view",
      "type": "function",
      "constant": true
    },
    {
      "inputs": [],
      "name": "decimals",
      "outputs": [
        {
          "internalType": "uint8",
          "name": "",
          "type": "uint8"
        }
      ],
      "stateMutability": "view",
      "type": "function",
      "constant": true
    },
    {
      "inputs": [],
      "name": "feeAddress",
      "outputs": [
        {
          "internalType": "address",
          "name": "",
          "type": "address"
        }
      ],
      "stateMutability": "view",
      "type": "function",
      "constant": true
    },
    {
      "inputs": [],
      "name": "name",
      "outputs": [
        {
          "internalType": "string",
          "name": "",
          "type": "string"
        }
      ],
      "stateMutability": "view",
      "type": "function",
      "constant": true
    },
    {
      "inputs": [],
      "name": "owner",
      "outputs": [
        {
          "internalType": "address",
          "name": "",
          "type": "address"
        }
      ],
      "stateMutability": "view",
      "type": "function",
      "constant": true
    },
    {
      "inputs": [],
      "name": "protocolFee",
      "outputs": [
        {
          "internalType": "uint256",
          "name": "",
          "type": "uint256"
        }
      ],
      "stateMutability": "view",
      "type": "function",
      "constant": true
    },
    {
      "inputs": [],
      "name": "renounceOwnership",
      "outputs": [],
      "stateMutability": "nonpayable",
      "type": "function"
    },
    {
      "inputs": [],
      "name": "symbol",
      "outputs": [
        {
          "internalType": "string",
          "name": "",
          "type": "string"
        }
      ],
      "stateMutability": "view",
      "type": "function",
      "constant": true
    },
    {
      "inputs": [],
      "name": "totalBurned",
      "outputs": [
        {
          "internalType": "uint256",
          "name": "",
          "type": "uint256"
        }
      ],
      "stateMutability": "view",
      "type": "function",
      "constant": true
    },
    {
      "inputs": [],
      "name": "totalMinted",
      "outputs": [
        {
          "internalType": "uint256",
          "name": "",
          "type": "uint256"
        }
      ],
      "stateMutability": "view",
      "type": "function",
      "constant": true
    },
    {
      "inputs": [
        {
          "internalType": "address",
          "name": "recipient",
          "type": "address"
        },
        {
          "internalType": "uint256",
          "name": "amount",
          "type": "uint256"
        }
      ],
      "name": "transfer",
      "outputs": [
        {
          "internalType": "bool",
          "name": "",
          "type": "bool"
        }
      ],
      "stateMutability": "nonpayable",
      "type": "function"
    },
    {
      "inputs": [
        {
          "internalType": "address",
          "name": "sender",
          "type": "address"
        },
        {
          "internalType": "address",
          "name": "recipient",
          "type": "address"
        },
        {
          "internalType": "uint256",
          "name": "amount",
          "type": "uint256"
        }
      ],
      "name": "transferFrom",
      "outputs": [
        {
          "internalType": "bool",
          "name": "",
          "type": "bool"
        }
      ],
      "stateMutability": "nonpayable",
      "type": "function"
    },
    {
      "inputs": [
        {
          "internalType": "address",
          "name": "newOwner",
          "type": "address"
        }
      ],
      "name": "transferOwnership",
      "outputs": [],
      "stateMutability": "nonpayable",
      "type": "function"
    },
    {
      "inputs": [],
      "name": "wrappedTokenAddress",
      "outputs": [
        {
          "internalType": "address",
          "name": "",
          "type": "address"
        }
      ],
      "stateMutability": "view",
      "type": "function",
      "constant": true
    },
    {
      "inputs": [],
      "name": "totalSupply",
      "outputs": [
        {
          "internalType": "uint256",
          "name": "",
          "type": "uint256"
        }
      ],
      "stateMutability": "view",
      "type": "function",
      "constant": true
    },
    {
      "inputs": [
        {
          "internalType": "uint256",
          "name": "value",
          "type": "uint256"
        },
        {
          "internalType": "uint256",
          "name": "feeValue",
          "type": "uint256"
        }
      ],
      "name": "calculateFee",
      "outputs": [
        {
          "internalType": "uint256",
          "name": "",
          "type": "uint256"
        }
      ],
      "stateMutability": "pure",
      "type": "function",
      "constant": true
    },
    {
      "inputs": [
        {
          "internalType": "uint256",
          "name": "value",
          "type": "uint256"
        }
      ],
      "name": "mint",
      "outputs": [],
      "stateMutability": "nonpayable",
      "type": "function"
    },
    {
      "inputs": [
        {
          "internalType": "uint256",
          "name": "value",
          "type": "uint256"
        },
        {
          "internalType": "uint256",
          "name": "discountedFee",
          "type": "uint256"
        },
        {
          "internalType": "address",
          "name": "recipient",
          "type": "address"
        }
      ],
      "name": "discountedMint",
      "outputs": [],
      "stateMutability": "nonpayable",
      "type": "function"
    },
    {
      "inputs": [
        {
          "internalType": "uint256",
          "name": "value",
          "type": "uint256"
        }
      ],
      "name": "unwrap",
      "outputs": [],
      "stateMutability": "nonpayable",
      "type": "function"
    },
    {
      "inputs": [
        {
          "internalType": "uint256",
          "name": "value",
          "type": "uint256"
        }
      ],
      "name": "free",
      "outputs": [
        {
          "internalType": "uint256",
          "name": "",
          "type": "uint256"
        }
      ],
      "stateMutability": "nonpayable",
      "type": "function"
    },
    {
      "inputs": [
        {
          "internalType": "uint256",
          "name": "value",
          "type": "uint256"
        }
      ],
      "name": "freeUpTo",
      "outputs": [
        {
          "internalType": "uint256",
          "name": "",
          "type": "uint256"
        }
      ],
      "stateMutability": "nonpayable",
      "type": "function"
    },
    {
      "inputs": [
        {
          "internalType": "address",
          "name": "from",
          "type": "address"
        },
        {
          "internalType": "uint256",
          "name": "value",
          "type": "uint256"
        }
      ],
      "name": "freeFrom",
      "outputs": [
        {
          "internalType": "uint256",
          "name": "",
          "type": "uint256"
        }
      ],
      "stateMutability": "nonpayable",
      "type": "function"
    },
    {
      "inputs": [
        {
          "internalType": "address",
          "name": "from",
          "type": "address"
        },
        {
          "internalType": "uint256",
          "name": "value",
          "type": "uint256"
        }
      ],
      "name": "freeFromUpTo",
      "outputs": [
        {
          "internalType": "uint256",
          "name": "",
          "type": "uint256"
        }
      ],
      "stateMutability": "nonpayable",
      "type": "function"
    },
    {
      "inputs": [
        {
          "internalType": "address",
          "name": "newFeeAddress",
          "type": "address"
        }
      ],
      "name": "updateFeeAddress",
      "outputs": [],
      "stateMutability": "nonpayable",
      "type": "function"
    }
  ],
  "bytecode": "0x60806040523480156200001157600080fd5b50604051620027ce380380620027ce8339818101604052810190620000379190620002e7565b600062000049620001a660201b60201c565b905080600260006101000a81548173ffffffffffffffffffffffffffffffffffffffff021916908373ffffffffffffffffffffffffffffffffffffffff1602179055508073ffffffffffffffffffffffffffffffffffffffff16600073ffffffffffffffffffffffffffffffffffffffff167f8be0079c531659141344cd1fd0a4f28419497f9722a3daafe3b4186f6b6457e060405160405180910390a35082600860006101000a81548173ffffffffffffffffffffffffffffffffffffffff021916908373ffffffffffffffffffffffffffffffffffffffff16021790555083600560006101000a81548173ffffffffffffffffffffffffffffffffffffffff021916908373ffffffffffffffffffffffffffffffffffffffff160217905550816003908051906020019062000182929190620001ae565b5080600490805190602001906200019b929190620001ae565b505050505062000543565b600033905090565b828054620001bc906200044e565b90600052602060002090601f016020900481019282620001e057600085556200022c565b82601f10620001fb57805160ff19168380011785556200022c565b828001600101855582156200022c579182015b828111156200022b5782518255916020019190600101906200020e565b5b5090506200023b91906200023f565b5090565b5b808211156200025a57600081600090555060010162000240565b5090565b6000620002756200026f84620003ae565b62000385565b9050828152602081018484840111156200028e57600080fd5b6200029b84828562000418565b509392505050565b600081519050620002b48162000529565b92915050565b600082601f830112620002cc57600080fd5b8151620002de8482602086016200025e565b91505092915050565b60008060008060808587031215620002fe57600080fd5b60006200030e87828801620002a3565b94505060206200032187828801620002a3565b935050604085015167ffffffffffffffff8111156200033f57600080fd5b6200034d87828801620002ba565b925050606085015167ffffffffffffffff8111156200036b57600080fd5b6200037987828801620002ba565b91505092959194509250565b600062000391620003a4565b90506200039f828262000484565b919050565b6000604051905090565b600067ffffffffffffffff821115620003cc57620003cb620004e9565b5b620003d78262000518565b9050602081019050919050565b6000620003f182620003f8565b9050919050565b600073ffffffffffffffffffffffffffffffffffffffff82169050919050565b60005b83811015620004385780820151818401526020810190506200041b565b8381111562000448576000848401525b50505050565b600060028204905060018216806200046757607f821691505b602082108114156200047e576200047d620004ba565b5b50919050565b6200048f8262000518565b810181811067ffffffffffffffff82111715620004b157620004b0620004e9565b5b80604052505050565b7f4e487b7100000000000000000000000000000000000000000000000000000000600052602260045260246000fd5b7f4e487b7100000000000000000000000000000000000000000000000000000000600052604160045260246000fd5b6000601f19601f8301169050919050565b6200053481620003e4565b81146200054057600080fd5b50565b61227b80620005536000396000f3fe608060405234801561001057600080fd5b506004361061018e5760003560e01c80637e72014a116100de578063b0e21e8a11610097578063d8ccd0f311610071578063d8ccd0f31461049d578063dd62ed3e146104cd578063de0e9a3e146104fd578063f2fde38b146105195761018e565b8063b0e21e8a14610445578063bbcaac3814610463578063d89135cd1461047f5761018e565b80637e72014a146103835780638da5cb5b1461039f57806395d89b41146103bd578063a0712d68146103db578063a2309ff8146103f7578063a9059cbb146104155761018e565b806334e731221161014b5780635f2e2b45116101255780635f2e2b45146102e95780636366b9361461031957806370a0823114610349578063715018a6146103795761018e565b806334e731221461027d5780633e646208146102ad57806341275358146102cb5761018e565b806306fdde0314610193578063079d229f146101b1578063095ea7b3146101e157806318160ddd1461021157806323b872dd1461022f578063313ce5671461025f575b600080fd5b61019b610535565b6040516101a89190611d3a565b60405180910390f35b6101cb60048036038101906101c69190611a84565b6105c3565b6040516101d89190611dbc565b60405180910390f35b6101fb60048036038101906101f69190611a84565b6105fa565b6040516102089190611d1f565b60405180910390f35b610219610611565b6040516102269190611dbc565b60405180910390f35b61024960048036038101906102449190611a35565b610628565b6040516102569190611d1f565b60405180910390f35b610267610707565b6040516102749190611dd7565b60405180910390f35b61029760048036038101906102929190611b3b565b61070c565b6040516102a49190611dbc565b60405180910390f35b6102b5610757565b6040516102c29190611ca4565b60405180910390f35b6102d361077d565b6040516102e09190611ca4565b60405180910390f35b61030360048036038101906102fe9190611a84565b6107a3565b6040516103109190611dbc565b60405180910390f35b610333600480360381019061032e9190611ae9565b610883565b6040516103409190611dbc565b60405180910390f35b610363600480360381019061035e91906119d0565b6108a6565b6040516103709190611dbc565b60405180910390f35b6103816108ee565b005b61039d60048036038101906103989190611b77565b610a2b565b005b6103a7610c3a565b6040516103b49190611ca4565b60405180910390f35b6103c5610c64565b6040516103d29190611d3a565b60405180910390f35b6103f560048036038101906103f09190611ae9565b610cf2565b005b6103ff610e71565b60405161040c9190611dbc565b60405180910390f35b61042f600480360381019061042a9190611a84565b610e77565b60405161043c9190611d1f565b60405180910390f35b61044d610e8e565b60405161045a9190611dbc565b60405180910390f35b61047d600480360381019061047891906119d0565b610e93565b005b610487610f53565b6040516104949190611dbc565b60405180910390f35b6104b760048036038101906104b29190611ae9565b610f59565b6040516104c49190611dbc565b60405180910390f35b6104e760048036038101906104e291906119f9565b611038565b6040516104f49190611dbc565b60405180910390f35b61051760048036038101906105129190611ae9565b6110bf565b005b610533600480360381019061052e91906119d0565b61119a565b005b6003805461054290611fab565b80601f016020809104026020016040519081016040528092919081815260200182805461056e90611fab565b80156105bb5780601f10610590576101008083540402835291602001916105bb565b820191906000526020600020905b81548152906001019060200180831161059e57829003601f168201915b505050505081565b60006105f2836105ed6105de856105d9886108a6565b611346565b6105e88733611038565b611346565b6107a3565b905092915050565b600061060733848461135f565b6001905092915050565b60006007546006546106239190611eef565b905090565b600061063584848461144a565b6000600160008673ffffffffffffffffffffffffffffffffffffffff1673ffffffffffffffffffffffffffffffffffffffff16815260200190815260200160002060003373ffffffffffffffffffffffffffffffffffffffff1673ffffffffffffffffffffffffffffffffffffffff168152602001908152602001600020549050600060ff82901c14156106fb576106fa85336106f5866040518060600160405280602881526020016121fa60289139866115f49092919063ffffffff16565b61135f565b5b60019150509392505050565b600081565b6000806001905061074b61073c8461072e60648861164990919063ffffffff16565b61165f90919063ffffffff16565b8261167590919063ffffffff16565b90508091505092915050565b600560009054906101000a900473ffffffffffffffffffffffffffffffffffffffff1681565b600860009054906101000a900473ffffffffffffffffffffffffffffffffffffffff1681565b60008082111561087a576107b7838361168b565b816007546107c59190611e0e565b600781905550600560009054906101000a900473ffffffffffffffffffffffffffffffffffffffff1673ffffffffffffffffffffffffffffffffffffffff1663d8ccd0f3836040518263ffffffff1660e01b81526004016108269190611dbc565b602060405180830381600087803b15801561084057600080fd5b505af1158015610854573d6000803e3d6000fd5b505050506040513d601f19601f820116820180604052508101906108789190611b12565b505b81905092915050565b600061089f61089a83610895336108a6565b611346565b610f59565b9050919050565b60008060008373ffffffffffffffffffffffffffffffffffffffff1673ffffffffffffffffffffffffffffffffffffffff168152602001908152602001600020549050919050565b6108f6611760565b73ffffffffffffffffffffffffffffffffffffffff16610914610c3a565b73ffffffffffffffffffffffffffffffffffffffff161461096a576040517f08c379a000000000000000000000000000000000000000000000000000000000815260040161096190611d7c565b60405180910390fd5b600073ffffffffffffffffffffffffffffffffffffffff16600260009054906101000a900473ffffffffffffffffffffffffffffffffffffffff1673ffffffffffffffffffffffffffffffffffffffff167f8be0079c531659141344cd1fd0a4f28419497f9722a3daafe3b4186f6b6457e060405160405180910390a36000600260006101000a81548173ffffffffffffffffffffffffffffffffffffffff021916908373ffffffffffffffffffffffffffffffffffffffff160217905550565b610a33611760565b73ffffffffffffffffffffffffffffffffffffffff16610a51610c3a565b73ffffffffffffffffffffffffffffffffffffffff1614610aa7576040517f08c379a0000000000000000000000000000000000000000000000000000000008152600401610a9e90611d7c565b60405180910390fd5b600560009054906101000a900473ffffffffffffffffffffffffffffffffffffffff1673ffffffffffffffffffffffffffffffffffffffff166323b872dd8230866040518463ffffffff1660e01b8152600401610b0693929190611cbf565b602060405180830381600087803b158015610b2057600080fd5b505af1158015610b34573d6000803e3d6000fd5b505050506040513d601f19601f82011682018060405250810190610b589190611ac0565b610b97576040517f08c379a0000000000000000000000000000000000000000000000000000000008152600401610b8e90611d9c565b60405180910390fd5b600080831115610bae57610bab848461070c565b90505b6000610bdd826040518060600160405280602a81526020016121d0602a9139876115f49092919063ffffffff16565b9050610be98382611768565b6000821115610c1f57610c1e600860009054906101000a900473ffffffffffffffffffffffffffffffffffffffff1683611768565b5b84600654610c2d9190611e0e565b6006819055505050505050565b6000600260009054906101000a900473ffffffffffffffffffffffffffffffffffffffff16905090565b60048054610c7190611fab565b80601f0160208091040260200160405190810160405280929190818152602001828054610c9d90611fab565b8015610cea5780601f10610cbf57610100808354040283529160200191610cea565b820191906000526020600020905b815481529060010190602001808311610ccd57829003601f168201915b505050505081565b600560009054906101000a900473ffffffffffffffffffffffffffffffffffffffff1673ffffffffffffffffffffffffffffffffffffffff166323b872dd3330846040518463ffffffff1660e01b8152600401610d5193929190611cbf565b602060405180830381600087803b158015610d6b57600080fd5b505af1158015610d7f573d6000803e3d6000fd5b505050506040513d601f19601f82011682018060405250810190610da39190611ac0565b610de2576040517f08c379a0000000000000000000000000000000000000000000000000000000008152600401610dd990611d9c565b60405180910390fd5b6000610def82600261070c565b90506000610e20826040518060600160405280602a81526020016121d0602a9139856115f49092919063ffffffff16565b9050610e2c3382611768565b610e58600860009054906101000a900473ffffffffffffffffffffffffffffffffffffffff1683611768565b82600654610e669190611e0e565b600681905550505050565b60065481565b6000610e8433848461144a565b6001905092915050565b600281565b610e9b611760565b73ffffffffffffffffffffffffffffffffffffffff16610eb9610c3a565b73ffffffffffffffffffffffffffffffffffffffff1614610f0f576040517f08c379a0000000000000000000000000000000000000000000000000000000008152600401610f0690611d7c565b60405180910390fd5b80600860006101000a81548173ffffffffffffffffffffffffffffffffffffffff021916908373ffffffffffffffffffffffffffffffffffffffff16021790555050565b60075481565b60008082111561103057610f6d3383611865565b81600754610f7b9190611e0e565b600781905550600560009054906101000a900473ffffffffffffffffffffffffffffffffffffffff1673ffffffffffffffffffffffffffffffffffffffff1663d8ccd0f3836040518263ffffffff1660e01b8152600401610fdc9190611dbc565b602060405180830381600087803b158015610ff657600080fd5b505af115801561100a573d6000803e3d6000fd5b505050506040513d601f19601f8201168201806040525081019061102e9190611b12565b505b819050919050565b6000600160008473ffffffffffffffffffffffffffffffffffffffff1673ffffffffffffffffffffffffffffffffffffffff16815260200190815260200160002060008373ffffffffffffffffffffffffffffffffffffffff1673ffffffffffffffffffffffffffffffffffffffff16815260200190815260200160002054905092915050565b6000811115611197576110d23382611865565b600560009054906101000a900473ffffffffffffffffffffffffffffffffffffffff1673ffffffffffffffffffffffffffffffffffffffff1663a9059cbb33836040518363ffffffff1660e01b815260040161112f929190611cf6565b602060405180830381600087803b15801561114957600080fd5b505af115801561115d573d6000803e3d6000fd5b505050506040513d601f19601f820116820180604052508101906111819190611ac0565b50806006546111909190611e0e565b6006819055505b50565b6111a2611760565b73ffffffffffffffffffffffffffffffffffffffff166111c0610c3a565b73ffffffffffffffffffffffffffffffffffffffff1614611216576040517f08c379a000000000000000000000000000000000000000000000000000000000815260040161120d90611d7c565b60405180910390fd5b600073ffffffffffffffffffffffffffffffffffffffff168173ffffffffffffffffffffffffffffffffffffffff161415611286576040517f08c379a000000000000000000000000000000000000000000000000000000000815260040161127d90611d5c565b60405180910390fd5b8073ffffffffffffffffffffffffffffffffffffffff16600260009054906101000a900473ffffffffffffffffffffffffffffffffffffffff1673ffffffffffffffffffffffffffffffffffffffff167f8be0079c531659141344cd1fd0a4f28419497f9722a3daafe3b4186f6b6457e060405160405180910390a380600260006101000a81548173ffffffffffffffffffffffffffffffffffffffff021916908373ffffffffffffffffffffffffffffffffffffffff16021790555050565b60008183106113555781611357565b825b905092915050565b80600160008573ffffffffffffffffffffffffffffffffffffffff1673ffffffffffffffffffffffffffffffffffffffff16815260200190815260200160002060008473ffffffffffffffffffffffffffffffffffffffff1673ffffffffffffffffffffffffffffffffffffffff168152602001908152602001600020819055508173ffffffffffffffffffffffffffffffffffffffff168373ffffffffffffffffffffffffffffffffffffffff167f8c5be1e5ebec7d5bd14f71427d1e84f3dd0314c0f7b2291e5b200ac8c7c3b9258360405161143d9190611dbc565b60405180910390a3505050565b6114b5816040518060600160405280602681526020016121aa602691396000808773ffffffffffffffffffffffffffffffffffffffff1673ffffffffffffffffffffffffffffffffffffffff168152602001908152602001600020546115f49092919063ffffffff16565b6000808573ffffffffffffffffffffffffffffffffffffffff1673ffffffffffffffffffffffffffffffffffffffff16815260200190815260200160002081905550611548816000808573ffffffffffffffffffffffffffffffffffffffff1673ffffffffffffffffffffffffffffffffffffffff1681526020019081526020016000205461167590919063ffffffff16565b6000808473ffffffffffffffffffffffffffffffffffffffff1673ffffffffffffffffffffffffffffffffffffffff168152602001908152602001600020819055508173ffffffffffffffffffffffffffffffffffffffff168373ffffffffffffffffffffffffffffffffffffffff167fddf252ad1be2c89b69c2b068fc378daa952ba7f163c4a11628f55a4df523b3ef836040516115e79190611dbc565b60405180910390a3505050565b600083831115829061163c576040517f08c379a00000000000000000000000000000000000000000000000000000000081526004016116339190611d3a565b60405180910390fd5b5082840390509392505050565b600081836116579190611e64565b905092915050565b6000818361166d9190611e95565b905092915050565b600081836116839190611e0e565b905092915050565b6116958282611865565b6000600160008473ffffffffffffffffffffffffffffffffffffffff1673ffffffffffffffffffffffffffffffffffffffff16815260200190815260200160002060003373ffffffffffffffffffffffffffffffffffffffff1673ffffffffffffffffffffffffffffffffffffffff168152602001908152602001600020549050600060ff82901c141561175b5761175a83336117558560405180606001604052806024815260200161222260249139866115f49092919063ffffffff16565b61135f565b5b505050565b600033905090565b6117b9816000808573ffffffffffffffffffffffffffffffffffffffff1673ffffffffffffffffffffffffffffffffffffffff1681526020019081526020016000205461167590919063ffffffff16565b6000808473ffffffffffffffffffffffffffffffffffffffff1673ffffffffffffffffffffffffffffffffffffffff168152602001908152602001600020819055508173ffffffffffffffffffffffffffffffffffffffff16600073ffffffffffffffffffffffffffffffffffffffff167fddf252ad1be2c89b69c2b068fc378daa952ba7f163c4a11628f55a4df523b3ef836040516118599190611dbc565b60405180910390a35050565b6118d081604051806060016040528060228152602001612188602291396000808673ffffffffffffffffffffffffffffffffffffffff1673ffffffffffffffffffffffffffffffffffffffff168152602001908152602001600020546115f49092919063ffffffff16565b6000808473ffffffffffffffffffffffffffffffffffffffff1673ffffffffffffffffffffffffffffffffffffffff16815260200190815260200160002081905550600073ffffffffffffffffffffffffffffffffffffffff168273ffffffffffffffffffffffffffffffffffffffff167fddf252ad1be2c89b69c2b068fc378daa952ba7f163c4a11628f55a4df523b3ef836040516119709190611dbc565b60405180910390a35050565b60008135905061198b81612142565b92915050565b6000815190506119a081612159565b92915050565b6000813590506119b581612170565b92915050565b6000815190506119ca81612170565b92915050565b6000602082840312156119e257600080fd5b60006119f08482850161197c565b91505092915050565b60008060408385031215611a0c57600080fd5b6000611a1a8582860161197c565b9250506020611a2b8582860161197c565b9150509250929050565b600080600060608486031215611a4a57600080fd5b6000611a588682870161197c565b9350506020611a698682870161197c565b9250506040611a7a868287016119a6565b9150509250925092565b60008060408385031215611a9757600080fd5b6000611aa58582860161197c565b9250506020611ab6858286016119a6565b9150509250929050565b600060208284031215611ad257600080fd5b6000611ae084828501611991565b91505092915050565b600060208284031215611afb57600080fd5b6000611b09848285016119a6565b91505092915050565b600060208284031215611b2457600080fd5b6000611b32848285016119bb565b91505092915050565b60008060408385031215611b4e57600080fd5b6000611b5c858286016119a6565b9250506020611b6d858286016119a6565b9150509250929050565b600080600060608486031215611b8c57600080fd5b6000611b9a868287016119a6565b9350506020611bab868287016119a6565b9250506040611bbc8682870161197c565b9150509250925092565b611bcf81611f23565b82525050565b611bde81611f35565b82525050565b6000611bef82611df2565b611bf98185611dfd565b9350611c09818560208601611f78565b611c128161206a565b840191505092915050565b6000611c2a602683611dfd565b9150611c358261207b565b604082019050919050565b6000611c4d602083611dfd565b9150611c58826120ca565b602082019050919050565b6000611c70602483611dfd565b9150611c7b826120f3565b604082019050919050565b611c8f81611f61565b82525050565b611c9e81611f6b565b82525050565b6000602082019050611cb96000830184611bc6565b92915050565b6000606082019050611cd46000830186611bc6565b611ce16020830185611bc6565b611cee6040830184611c86565b949350505050565b6000604082019050611d0b6000830185611bc6565b611d186020830184611c86565b9392505050565b6000602082019050611d346000830184611bd5565b92915050565b60006020820190508181036000830152611d548184611be4565b905092915050565b60006020820190508181036000830152611d7581611c1d565b9050919050565b60006020820190508181036000830152611d9581611c40565b9050919050565b60006020820190508181036000830152611db581611c63565b9050919050565b6000602082019050611dd16000830184611c86565b92915050565b6000602082019050611dec6000830184611c95565b92915050565b600081519050919050565b600082825260208201905092915050565b6000611e1982611f61565b9150611e2483611f61565b9250827fffffffffffffffffffffffffffffffffffffffffffffffffffffffffffffffff03821115611e5957611e58611fdd565b5b828201905092915050565b6000611e6f82611f61565b9150611e7a83611f61565b925082611e8a57611e8961200c565b5b828204905092915050565b6000611ea082611f61565b9150611eab83611f61565b9250817fffffffffffffffffffffffffffffffffffffffffffffffffffffffffffffffff0483118215151615611ee457611ee3611fdd565b5b828202905092915050565b6000611efa82611f61565b9150611f0583611f61565b925082821015611f1857611f17611fdd565b5b828203905092915050565b6000611f2e82611f41565b9050919050565b60008115159050919050565b600073ffffffffffffffffffffffffffffffffffffffff82169050919050565b6000819050919050565b600060ff82169050919050565b60005b83811015611f96578082015181840152602081019050611f7b565b83811115611fa5576000848401525b50505050565b60006002820490506001821680611fc357607f821691505b60208210811415611fd757611fd661203b565b5b50919050565b7f4e487b7100000000000000000000000000000000000000000000000000000000600052601160045260246000fd5b7f4e487b7100000000000000000000000000000000000000000000000000000000600052601260045260246000fd5b7f4e487b7100000000000000000000000000000000000000000000000000000000600052602260045260246000fd5b6000601f19601f8301169050919050565b7f4f776e61626c653a206e6577206f776e657220697320746865207a65726f206160008201527f6464726573730000000000000000000000000000000000000000000000000000602082015250565b7f4f776e61626c653a2063616c6c6572206973206e6f7420746865206f776e6572600082015250565b7f475356453a2047617320546f6b656e2057726170205472616e7366657220466160008201527f696c656400000000000000000000000000000000000000000000000000000000602082015250565b61214b81611f23565b811461215657600080fd5b50565b61216281611f35565b811461216d57600080fd5b50565b61217981611f61565b811461218457600080fd5b5056fe45524332303a206275726e20616d6f756e7420657863656564732062616c616e636545524332303a207472616e7366657220616d6f756e7420657863656564732062616c616e6365475356453a204d696e7465642056616c7565206d757374206265206c6172676572207468616e2066656545524332303a207472616e7366657220616d6f756e74206578636565647320616c6c6f77616e636545524332303a206275726e20616d6f756e74206578636565647320616c6c6f77616e6365a26469706673582212202ed94b113c4917ccac90921112387035e61092ce370fcc507ac34fbf01174db064736f6c63430008040033",
  "immutableReferences": {},
  "source": "// SPDX-License-Identifier: MIT\r\npragma solidity ^0.8.0;\r\n\r\nimport \"@openzeppelin/contracts/utils/math/Math.sol\";\r\nimport \"@openzeppelin/contracts/utils/math/SafeMath.sol\";\r\nimport \"@openzeppelin/contracts/token/ERC20/IERC20.sol\";\r\nimport \"@openzeppelin/contracts/access/Ownable.sol\";\r\nimport './ERC20WithoutTotalSupply.sol';\r\nimport \"./IGasToken.sol\";\r\n\r\n/**\r\n* @dev Wrapped Gas Token is a wrapper for all gas tokens. It provides them with uniform functions and interface\r\n* It also makes non-erc20 compliant tokens like GST1 and GST2, compliant.\r\n*/\r\ncontract WrappedGasToken is IERC20, ERC20WithoutTotalSupply, Ownable{\r\n    using SafeMath for uint256;\r\n\r\n    string public name;\r\n    string public symbol;\r\n    uint8 constant public decimals = 0;\r\n    address public wrappedTokenAddress;\r\n\r\n    uint256 public totalMinted;\r\n    uint256 public totalBurned;\r\n\r\n    uint256 constant public protocolFee = 2;\r\n\r\n    address public feeAddress;\r\n\r\n    /**\r\n    * @dev We set the main elements of our wrapped token here.\r\n    * the name, symbol and fee address and address of the underlying gas token\r\n    */\r\n    constructor(address _tokenAddress, address _feeAddress, string memory _name, string memory _symbol) {\r\n        feeAddress = _feeAddress;\r\n        wrappedTokenAddress = _tokenAddress;\r\n        name = _name;\r\n        symbol = _symbol;\r\n    }\r\n\r\n\r\n    /**\r\n    * @dev returns total supply of the wrapped gas token\r\n    */\r\n    function totalSupply() public view override returns(uint256) {\r\n        return totalMinted - totalBurned;\r\n    }\r\n\r\n    /**\r\n    * @dev calculates the protocol fee. This is 1 + x% of the wrapped tokens. \r\n    * It scales based on the number of tokens wrapped in the transaction.\r\n    * the x% is based on the manner in which the user decided to mint the token.\r\n    * if they minted using the discounted or burned methods from the protocol, then they have a lower %.\r\n    */\r\n    function calculateFee(uint256 value, uint256 feeValue) public pure returns(uint256){\r\n        uint256 fee = 1;\r\n        fee = fee.add(value.div(100).mul(feeValue));\r\n        return fee;\r\n    }\r\n\r\n    /**\r\n    * @dev This function mints new wrapped gas tokens.\r\n    * This is done by transfering the gas token to this contract\r\n    * issuing wrapped gas tokens to the user\r\n    * issuing wrapped gas tokens equal to the fee, to the fee address.\r\n    */\r\n    function mint(uint256 value) public {\r\n        require(IERC20(wrappedTokenAddress).transferFrom(msg.sender, address(this), value), \"GSVE: Gas Token Wrap Transfer Failed\");\r\n        uint256 fee = calculateFee(value, protocolFee);\r\n        uint256 valueAfterFee =  value.sub(fee, \"GSVE: Minted Value must be larger than fee\");\r\n        _mint(msg.sender, valueAfterFee);\r\n        _mint(feeAddress, fee);\r\n        totalMinted = totalMinted + value;\r\n    }\r\n\r\n    /**\r\n    * @dev This function mints new wrapped gas tokens at a discount\r\n    * it is guided by the protocols fee and tier system \r\n    * as the protocol is the owner of this contract, it is the only one that can interact with it.\r\n    * The process is the same as minting. We transfer the gas token to this contract\r\n    * issuing wrapped gas tokens to the user\r\n    * issuing wrapped gas tokens equal to the fee, to the fee address, if there is a fee to be paid.\r\n    */\r\n    function discountedMint(uint256 value, uint256 discountedFee, address recipient) public onlyOwner {\r\n        require(IERC20(wrappedTokenAddress).transferFrom(recipient, address(this), value), \"GSVE: Gas Token Wrap Transfer Failed\");\r\n        uint256 fee = 0;\r\n        if(discountedFee>0){\r\n            fee = calculateFee(value, discountedFee);\r\n        }\r\n        uint256 valueAfterFee =  value.sub(fee, \"GSVE: Minted Value must be larger than fee\");\r\n        _mint(recipient, valueAfterFee);\r\n\r\n        if(fee>0){\r\n            _mint(feeAddress, fee);\r\n        }\r\n        \r\n        totalMinted = totalMinted + value;\r\n    }\r\n\r\n    /**\r\n    * @dev This function allows the user to unwrap gas tokens\r\n    * this is done by burning wrapped gas tokens from the user\r\n    * transfering the equivelent number of gas tokens to the user.\r\n    */\r\n    function unwrap(uint256 value) public {\r\n        if(value > 0){\r\n            _burn(msg.sender, value);\r\n            IERC20(wrappedTokenAddress).transfer(msg.sender, value);\r\n            totalMinted = totalMinted + value;\r\n        }\r\n    }\r\n\r\n\r\n    /**\r\n    * @dev This function burns the wrapped gas token,\r\n    * burns the equivelent gas tokens, and frees up the gas\r\n    */\r\n    function free(uint256 value) public returns (uint256)  {\r\n        if (value > 0) {\r\n            _burn(msg.sender, value);\r\n            totalBurned = totalBurned + value;\r\n            IGasToken(wrappedTokenAddress).free(value);\r\n        }\r\n        return value;\r\n    }\r\n\r\n    /**\r\n    * @dev a safe way of freeing up x number of tokens\r\n    * up to the users balance\r\n    */\r\n    function freeUpTo(uint256 value) public returns (uint256) {\r\n        return free(Math.min(value, balanceOf(msg.sender)));\r\n    }\r\n\r\n    /**\r\n    * @dev This function burns the wrapped gas token from a specified address,\r\n    * burns the equivelent gas tokens, and frees up the gas\r\n    */\r\n    function freeFrom(address from, uint256 value) public returns (uint256) {\r\n        if (value > 0) {\r\n            _burnFrom(from, value);\r\n            totalBurned = totalBurned + value;\r\n            IGasToken(wrappedTokenAddress).free(value);\r\n        }\r\n        return value;\r\n    }\r\n\r\n    /**\r\n    * @dev a safe way of freeing up x number of tokens\r\n    * up to the users balance\r\n    */\r\n    function freeFromUpTo(address from, uint256 value) public returns (uint256) {\r\n        return freeFrom(from, Math.min(Math.min(value, balanceOf(from)), allowance(from, msg.sender)));\r\n    }\r\n\r\n    /**\r\n    * @dev a method for updating the address that receives the fees.\r\n    * This is set by the owner, which will be the protocol.\r\n    */\r\n    function updateFeeAddress(address newFeeAddress) public onlyOwner {\r\n        feeAddress = newFeeAddress;\r\n    }\r\n    \r\n}\r\n",
  "sourcePath": "C:/Users/khera/Documents/GitHub/GasSwapTokens/contracts/WrappedGasToken.sol",
  "compiler": {
    "name": "solc",
    "version": "0.8.4+commit.c7e474f2.Emscripten.clang"
  },
  "schemaVersion": "3.3.4",
  "updatedAt": "2021-05-14T08:01:05.561Z",
  "networkType": "ethereum",
  "devdoc": {
    "details": "Wrapped Gas Token is a wrapper for all gas tokens. It provides them with uniform functions and interface It also makes non-erc20 compliant tokens like GST1 and GST2, compliant.",
    "kind": "dev",
    "methods": {
      "allowance(address,address)": {
        "details": "Returns the remaining number of tokens that `spender` will be allowed to spend on behalf of `owner` through {transferFrom}. This is zero by default. This value changes when {approve} or {transferFrom} are called."
      },
      "approve(address,uint256)": {
        "details": "Sets `amount` as the allowance of `spender` over the caller's tokens. Returns a boolean value indicating whether the operation succeeded. IMPORTANT: Beware that changing an allowance with this method brings the risk that someone may use both the old and the new allowance by unfortunate transaction ordering. One possible solution to mitigate this race condition is to first reduce the spender's allowance to 0 and set the desired value afterwards: https://github.com/ethereum/EIPs/issues/20#issuecomment-263524729 Emits an {Approval} event."
      },
      "balanceOf(address)": {
        "details": "Returns the amount of tokens owned by `account`."
      },
      "calculateFee(uint256,uint256)": {
        "details": "calculates the protocol fee. This is 1 + x% of the wrapped tokens.  It scales based on the number of tokens wrapped in the transaction. the x% is based on the manner in which the user decided to mint the token. if they minted using the discounted or burned methods from the protocol, then they have a lower %."
      },
      "constructor": {
        "details": "We set the main elements of our wrapped token here. the name, symbol and fee address and address of the underlying gas token"
      },
      "discountedMint(uint256,uint256,address)": {
        "details": "This function mints new wrapped gas tokens at a discount it is guided by the protocols fee and tier system  as the protocol is the owner of this contract, it is the only one that can interact with it. The process is the same as minting. We transfer the gas token to this contract issuing wrapped gas tokens to the user issuing wrapped gas tokens equal to the fee, to the fee address, if there is a fee to be paid."
      },
      "free(uint256)": {
        "details": "This function burns the wrapped gas token, burns the equivelent gas tokens, and frees up the gas"
      },
      "freeFrom(address,uint256)": {
        "details": "This function burns the wrapped gas token from a specified address, burns the equivelent gas tokens, and frees up the gas"
      },
      "freeFromUpTo(address,uint256)": {
        "details": "a safe way of freeing up x number of tokens up to the users balance"
      },
      "freeUpTo(uint256)": {
        "details": "a safe way of freeing up x number of tokens up to the users balance"
      },
      "mint(uint256)": {
        "details": "This function mints new wrapped gas tokens. This is done by transfering the gas token to this contract issuing wrapped gas tokens to the user issuing wrapped gas tokens equal to the fee, to the fee address."
      },
      "owner()": {
        "details": "Returns the address of the current owner."
      },
      "renounceOwnership()": {
        "details": "Leaves the contract without owner. It will not be possible to call `onlyOwner` functions anymore. Can only be called by the current owner. NOTE: Renouncing ownership will leave the contract without an owner, thereby removing any functionality that is only available to the owner."
      },
      "totalSupply()": {
        "details": "returns total supply of the wrapped gas token"
      },
      "transfer(address,uint256)": {
        "details": "Moves `amount` tokens from the caller's account to `recipient`. Returns a boolean value indicating whether the operation succeeded. Emits a {Transfer} event."
      },
      "transferFrom(address,address,uint256)": {
        "details": "Moves `amount` tokens from `sender` to `recipient` using the allowance mechanism. `amount` is then deducted from the caller's allowance. Returns a boolean value indicating whether the operation succeeded. Emits a {Transfer} event."
      },
      "transferOwnership(address)": {
        "details": "Transfers ownership of the contract to a new account (`newOwner`). Can only be called by the current owner."
      },
      "unwrap(uint256)": {
        "details": "This function allows the user to unwrap gas tokens this is done by burning wrapped gas tokens from the user transfering the equivelent number of gas tokens to the user."
      },
      "updateFeeAddress(address)": {
        "details": "a method for updating the address that receives the fees. This is set by the owner, which will be the protocol."
      }
    },
    "version": 1
  },
  "userdoc": {
    "kind": "user",
    "methods": {},
    "version": 1
  }
}